{"abi":[{"type":"constructor","inputs":[{"name":"admin","type":"address","internalType":"address"}],"stateMutability":"nonpayable"},{"type":"function","name":"DEFAULT_ADMIN_ROLE","inputs":[],"outputs":[{"name":"","type":"bytes32","internalType":"bytes32"}],"stateMutability":"view"},{"type":"function","name":"POOL_CREATOR_ROLE","inputs":[],"outputs":[{"name":"","type":"bytes32","internalType":"bytes32"}],"stateMutability":"view"},{"type":"function","name":"allPools","inputs":[{"name":"","type":"uint256","internalType":"uint256"}],"outputs":[{"name":"","type":"address","internalType":"address"}],"stateMutability":"view"},{"type":"function","name":"allPoolsLength","inputs":[],"outputs":[{"name":"","type":"uint256","internalType":"uint256"}],"stateMutability":"view"},{"type":"function","name":"computePoolAddress","inputs":[{"name":"tokenA","type":"address","internalType":"address"},{"name":"tokenB","type":"address","internalType":"address"}],"outputs":[{"name":"predicted","type":"address","internalType":"address"}],"stateMutability":"view"},{"type":"function","name":"createPool","inputs":[{"name":"tokenA","type":"address","internalType":"address"},{"name":"tokenB","type":"address","internalType":"address"}],"outputs":[{"name":"pool","type":"address","internalType":"address"}],"stateMutability":"nonpayable"},{"type":"function","name":"createPool2","inputs":[{"name":"tokenA","type":"address","internalType":"address"},{"name":"tokenB","type":"address","internalType":"address"}],"outputs":[{"name":"pool","type":"address","internalType":"address"}],"stateMutability":"nonpayable"},{"type":"function","name":"getPool","inputs":[{"name":"","type":"address","internalType":"address"},{"name":"","type":"address","internalType":"address"}],"outputs":[{"name":"","type":"address","internalType":"address"}],"stateMutability":"view"},{"type":"function","name":"getRoleAdmin","inputs":[{"name":"role","type":"bytes32","internalType":"bytes32"}],"outputs":[{"name":"","type":"bytes32","internalType":"bytes32"}],"stateMutability":"view"},{"type":"function","name":"grantRole","inputs":[{"name":"role","type":"bytes32","internalType":"bytes32"},{"name":"account","type":"address","internalType":"address"}],"outputs":[],"stateMutability":"nonpayable"},{"type":"function","name":"hasRole","inputs":[{"name":"role","type":"bytes32","internalType":"bytes32"},{"name":"account","type":"address","internalType":"address"}],"outputs":[{"name":"","type":"bool","internalType":"bool"}],"stateMutability":"view"},{"type":"function","name":"renounceRole","inputs":[{"name":"role","type":"bytes32","internalType":"bytes32"},{"name":"callerConfirmation","type":"address","internalType":"address"}],"outputs":[],"stateMutability":"nonpayable"},{"type":"function","name":"revokeRole","inputs":[{"name":"role","type":"bytes32","internalType":"bytes32"},{"name":"account","type":"address","internalType":"address"}],"outputs":[],"stateMutability":"nonpayable"},{"type":"function","name":"supportsInterface","inputs":[{"name":"interfaceId","type":"bytes4","internalType":"bytes4"}],"outputs":[{"name":"","type":"bool","internalType":"bool"}],"stateMutability":"view"},{"type":"event","name":"PoolCreated","inputs":[{"name":"token0","type":"address","indexed":true,"internalType":"address"},{"name":"token1","type":"address","indexed":true,"internalType":"address"},{"name":"pool","type":"address","indexed":false,"internalType":"address"},{"name":"poolCount","type":"uint256","indexed":false,"internalType":"uint256"},{"name":"create2","type":"bool","indexed":false,"internalType":"bool"}],"anonymous":false},{"type":"event","name":"RoleAdminChanged","inputs":[{"name":"role","type":"bytes32","indexed":true,"internalType":"bytes32"},{"name":"previousAdminRole","type":"bytes32","indexed":true,"internalType":"bytes32"},{"name":"newAdminRole","type":"bytes32","indexed":true,"internalType":"bytes32"}],"anonymous":false},{"type":"event","name":"RoleGranted","inputs":[{"name":"role","type":"bytes32","indexed":true,"internalType":"bytes32"},{"name":"account","type":"address","indexed":true,"internalType":"address"},{"name":"sender","type":"address","indexed":true,"internalType":"address"}],"anonymous":false},{"type":"event","name":"RoleRevoked","inputs":[{"name":"role","type":"bytes32","indexed":true,"internalType":"bytes32"},{"name":"account","type":"address","indexed":true,"internalType":"address"},{"name":"sender","type":"address","indexed":true,"internalType":"address"}],"anonymous":false},{"type":"error","name":"AccessControlBadConfirmation","inputs":[]},{"type":"error","name":"AccessControlUnauthorizedAccount","inputs":[{"name":"account","type":"address","internalType":"address"},{"name":"neededRole","type":"bytes32","internalType":"bytes32"}]},{"type":"error","name":"IdenticalTokens","inputs":[]},{"type":"error","name":"PoolAlreadyExists","inputs":[{"name":"token0","type":"address","internalType":"address"},{"name":"token1","type":"address","internalType":"address"},{"name":"pool","type":"address","internalType":"address"}]},{"type":"error","name":"ZeroToken","inputs":[]}],"bytecode":{"object":"0x60803461007257601f61217338819003918201601f19168301916001600160401b038311848410176100765780849260209460405283398101031261007257516001600160a01b0381168103610072578061005c6100629261008a565b506100f6565b50604051611f9e90816101958239f35b5f80fd5b634e487b7160e01b5f52604160045260245ffd5b6001600160a01b03165f8181525f80516020612153833981519152602052604090205460ff166100f1575f8181525f8051602061215383398151915260205260408120805460ff191660011790553391905f805160206121338339815191528180a4600190565b505f90565b6001600160a01b03165f8181527f7d21986f97b64cd2d9c36c5f357e46868c76c53128809cf5af679c0bf9c6ed9e60205260409020547f4066b03ab177190abcd4de6384e71f7a60f56b879537b65d43a0523ade6cfe52919060ff1661018e57815f525f60205260405f20815f5260205260405f20600160ff1982541617905533915f805160206121338339815191525f80a4600190565b50505f9056fe608060409080825260048036101562000016575f80fd5b5f3560e01c91826301ffc9a714620007af57508163248a9ca314620007845781632f2ff15d146200075557816336568abe146200070a57816341d1de9714620006c5578163531aa03e146200067157816391d14854146200062a578163a217fddf146200060e578163b09728a514620005d2578163d547741f146200058f578163d8ed2241146200042e578163e343361514620002c8578163e9bb2e0514620000ec575063efde4e6414620000c9575f80fd5b34620000e8575f366003190112620000e8576020906002549051908152f35b5f80fd5b8234620000e85780600319360112620000e857620001286200010d6200081d565b6200011762000806565b9062000122620008e0565b62000a6c565b620001368183949362000acc565b815193602094858101906200017d816200016e868986906028926001600160601b0319809260601b16835260601b1660148201520190565b03601f1981018352826200087e565b519020835161143e8082019082821067ffffffffffffffff831117620002b5578291620001ca9162000b2b84396001600160a01b03808a1682528716602082015233604082015260600190565b03905ff58015620002ab5760018060a01b0380809216951691825f526001875281855f20941693845f528752845f206001600160601b0360a01b90878282541617905560018852855f20845f52885286865f209182541617905560025490600160401b82101562000298575080600162000248920160025562000834565b819291549060031b9187831b921b19161790557f3981838c5d479949d0eff29582b53a6043a7780b7d8fae787f371e2e99b46307606060025485519087825288820152600186820152a351908152f35b604190634e487b7160e01b5f525260245ffd5b83513d5f823e3d90fd5b604185634e487b7160e01b5f525260245ffd5b8234620000e85780600319360112620000e857620002e96200010d6200081d565b620002f78183949362000acc565b815161143e8082019082821067ffffffffffffffff8311176200041b578291620003419162000b2b84396001600160a01b0380881682528516602082015233604082015260600190565b03905ff08015620004115760018060a01b0380809216941690815f526020956001875281855f20941693845f528752845f206001600160601b0360a01b90878282541617905560018852855f20845f52885286865f209182541617905560025490600160401b821015620002985750806001620003c2920160025562000834565b819291549060031b9187831b921b19161790557f3981838c5d479949d0eff29582b53a6043a7780b7d8fae787f371e2e99b463076060600254855190878252888201525f86820152a351908152f35b82513d5f823e3d90fd5b604187634e487b7160e01b5f525260245ffd5b905034620000e85781600319360112620000e85762000461620004506200081d565b6200045a62000806565b9062000a6c565b83919351936200052b62000538602096878101816200049e878784906028926001600160601b0319809260601b16835260601b1660148201520190565b0391620004b4601f19938481018352826200087e565b519020946200051061143e95885196620004d18c8201896200087e565b80885262000b2b8c89013988516001600160a01b03918216818d019081529190931660208201523360408201528290606001038381018352826200087e565b8651938491620005248b84018098620008b5565b90620008b5565b039081018352826200087e565b519020918051928584019260ff60f81b84523060601b60218601526035850152605584015260558352608083019383851067ffffffffffffffff861117620002985750839052905190206001600160a01b03168152f35b8234620000e85780600319360112620000e857620005d09135620005ca6001620005b862000806565b93835f525f6020525f2001546200095a565b620009f9565b005b8234620000e8575f366003190112620000e857602090517f4066b03ab177190abcd4de6384e71f7a60f56b879537b65d43a0523ade6cfe528152f35b8234620000e8575f366003190112620000e857602090515f8152f35b8234620000e85780600319360112620000e8576020916200064a62000806565b90355f525f8352815f209060018060a01b03165f52825260ff815f20541690519015158152f35b8234620000e85780600319360112620000e857602090620006916200081d565b6200069b62000806565b6001600160a01b039182165f90815260018552838120918316815290845282902054915191168152f35b905034620000e8576020366003190112620000e8573590600254821015620000e857620006f460209262000834565b905491519160018060a01b039160031b1c168152f35b8234620000e85780600319360112620000e8576200072762000806565b90336001600160a01b03831603620007465750620005d09135620009f9565b5163334bd91960e11b81529050fd5b8234620000e85780600319360112620000e857620005d091356200077e6001620005b862000806565b6200097c565b8234620000e8576020366003190112620000e857602091355f525f82526001815f2001549051908152f35b9034620000e8576020366003190112620000e857359063ffffffff60e01b8216809203620000e857602091637965db0b60e01b8114908115620007f4575b5015158152f35b6301ffc9a760e01b14905083620007ed565b602435906001600160a01b0382168203620000e857565b600435906001600160a01b0382168203620000e857565b6002548110156200086a5760025f527f405787fa12a823e0f2b7631cc41b3ba8828b3321ca811111fa75cd3aa3bb5ace01905f90565b634e487b7160e01b5f52603260045260245ffd5b90601f8019910116810190811067ffffffffffffffff821117620008a157604052565b634e487b7160e01b5f52604160045260245ffd5b908151915f5b838110620008cc575050015f815290565b8060208092840101518185015201620008bb565b335f9081527f7d21986f97b64cd2d9c36c5f357e46868c76c53128809cf5af679c0bf9c6ed9e60205260409020547f4066b03ab177190abcd4de6384e71f7a60f56b879537b65d43a0523ade6cfe529060ff16156200093c5750565b6044906040519063e2517d3f60e01b82523360048301526024820152fd5b805f525f60205260405f20335f5260205260ff60405f205416156200093c5750565b90815f525f60205260405f209060018060a01b031690815f5260205260ff60405f205416155f14620009f357815f525f60205260405f20815f5260205260405f20600160ff1982541617905533917f2f8788117e7eff1d82e926ec794901d17c78024a50270940304540a733656f0d5f80a4600190565b50505f90565b90815f525f60205260405f209060018060a01b031690815f5260205260ff60405f2054165f14620009f357815f525f60205260405f20815f5260205260405f2060ff19815416905533917ff6391f5c32d9c69d2a47ea670b442974b53935d1edc7fd64eb21e047a839171b5f80a4600190565b6001600160a01b0382811690821680821462000aba578015801562000ab1575b62000a9f57101562000a9b5791565b9091565b60405163ad1991f560e01b8152600490fd5b50811562000a8c565b604051635c6d7b7360e01b8152600490fd5b60018060a01b038082165f52600160205260405f208184165f5260205260405f2054168062000afa57505050565b60405163da050a2f60e01b81526001600160a01b0392831660048201529282166024840152166044820152606490fdfe608034620003f1576001600160401b0390601f601f196200143e3881900383810183168501919086831186841017620002f957808692606094604052833981010312620003f157620000518362000415565b906020946200007060406200006888880162000415565b960162000415565b506200007b620003f5565b93600c85526b20a6a6902628102a37b5b2b760a11b878601526200009e620003f5565b94600391828752620414c560ec1b898801528151848111620002f95783546001938482811c92168015620003e6575b8c831014620003d2578b82858594116200037c575b50508b9084831160011462000319575f926200030d575b50505f1982861b1c191690831b1783555b8651938411620002f95760049687548381811c91168015620002ee575b8b821014620002db5782811162000293575b50899185116001146200022e57849550908492915f9562000222575b50501b925f19911b1c19161782555b6001600160a01b03908116928315158062000216575b15620001e6571692838314620001b657505060018060a01b031990816005541617600555600654161760065560405161101390816200042b8239f35b60405162461bcd60e51b815291820152600a60248201526939b0b6b2903a37b5b2b760b11b604482015260649150fd5b60405162461bcd60e51b815280840186905260096024820152683130b2103a37b5b2b760b91b6044820152606490fd5b5081811615156200017a565b015193505f8062000155565b929194841692875f52848a5f20945f5b8c898383106200027b575050501062000261575b50505050811b01825562000164565b01519060f8845f19921b161c191690555f80808062000252565b8686015189559097019694850194889350016200023e565b885f528a5f208380880160051c8201928d8910620002d1575b0160051c019084905b828110620002c557505062000139565b5f8155018490620002b5565b92508192620002ac565b602289634e487b7160e01b5f525260245ffd5b90607f169062000127565b634e487b7160e01b5f52604160045260245ffd5b015190505f80620000f9565b908c9189879516885f52835f20935f905b8282106200036257505084116200034a575b505050811b0183556200010a565b01515f1983881b60f8161c191690555f80806200033c565b84840151865589979095019493840193908101906200032a565b90919250865f5284825f209181860160051c8301938610620003c8575b918791869594930160051c01915b828110620003b957508d9150620000e2565b5f8155859450879101620003a7565b9250819262000399565b634e487b7160e01b5f52602260045260245ffd5b91607f1691620000cd565b5f80fd5b60408051919082016001600160401b03811183821017620002f957604052565b51906001600160a01b0382168203620003f15756fe604060808152600480361015610013575f80fd5b5f3560e01c8063054d50d414610cd157806306fdde0314610bdc5780630902f1ac14610bb9578063095ea7b314610b105780630dfe168114610ae857806318160ddd14610aca57806323b872dd146109d9578063313ce567146109be57806370a082311461098857806395d89b4114610885578063a9059cbb14610855578063d21220a71461082d578063dd62ed3e146107e4578063e0ab0772146105f6578063e39b0eb5146103df5763f3e6ea8a146100cb575f80fd5b346103db5760803660031901126103db576100e4610da3565b916024918235906100f3610dcf565b938215946101018615610e6d565b6005546001600160a01b039081169781168089149490859081156103cd575b501561039b57841561039057885b851561038a57508160065416935b8515610382576007545b861561037957600854995b811591821580610370575b1561033f576103e591828b02928b840414171561032d5761017d8c83610de5565b926103e880830292830414171561032d576101a2929161019c91610e0c565b90610e19565b986101b16044358b1015610ebf565b8910156102fb575086516323b872dd60e01b81523382820190815230602080830191909152604082018990529a8b9183919082900360600190829087165a905f91f180156102f157899361023f96938c96935f936102d4575b508a5163a9059cbb60e01b81526001600160a01b03909416908401908152602081019590955291958694859391849160400190565b0393165af180156102ca5761029d575b501561027a5761026190600754610e0c565b60075561027082600854610ef6565b6008555b51908152f35b61028690600854610e0c565b60085561029582600754610ef6565b600755610274565b6102bc90863d88116102c3575b6102b48183610e37565b810190610ea7565b505f61024f565b503d6102aa565b84513d5f823e3d90fd5b6102ea90883d8a116102c3576102b48183610e37565b505f61020a565b88513d5f823e3d90fd5b90600d60649260208a519362461bcd60e51b85528401528201526c6c6f77206c697175696469747960981b6044820152fd5b83601186634e487b7160e01b5f52525ffd5b8a5162461bcd60e51b8152602081870152600c818601526b6e6f206c697175696469747960a01b6044820152606490fd5b508b151561015c565b60075499610151565b600854610146565b9361013c565b81600654169861012e565b606490600d8560208a519362461bcd60e51b85528401528201526c34b73b30b634b2103a37b5b2b760991b6044820152fd5b90508260065416145f610120565b5f80fd5b50346103db5760803660031901126103db578035906103fc610dcf565b91610408811515610e6d565b600254926104316104248561041f60075486610de5565b610e19565b9461041f60085485610de5565b92610440602435861015610ebf565b61044e604435851015610ebf565b33156105e057335f526020925f8452865f20548181106105b45790805f923384528387520388832055806002540360025587519081527fddf252ad1be2c89b69c2b068fc378daa952ba7f163c4a11628f55a4df523b3ef853392a36104b585600754610ef6565b6007556104c484600854610ef6565b600855600554865163a9059cbb60e01b8082526001600160a01b03858116838601908152602081018a90529095929492939192918791869188169082905f90829060400103925af180156105aa57879587955f9261058d575b506006548b519485526001600160a01b0390951692840192835260208301969096529194859316918391829060400103925af1801561058357610566575b508351928352820152f35b61057c90823d84116102c3576102b48183610e37565b505f61055b565b85513d5f823e3d90fd5b6105a390873d89116102c3576102b48183610e37565b505f61051d565b89513d5f823e3d90fd5b875163391434e360e21b8152338185019081526020810192909252604082018390529081906060010390fd5b6024905f875191634b637e8f60e11b8352820152fd5b5090346103db5760a03660031901126103db576001600160a01b03918035919060843584811691602435918390036103db5761068095851515806107db575b61063e90610e6d565b60055485516323b872dd60e01b8082523385830190815230602082810191909152604082018b90529a9194938b9284929186169183915f918391606090910190565b03925af180156107d157908992916107b4575b50600654875193845233858501908152306020820152604081018790528492908390036060019183915f91165af1801561058357610797575b506106fe6002549283155f14610769576106f36106e98289610e0c565b975b600754610e0c565b600755600854610e0c565b600855821561075357508361071291610e0c565b600255805f525f8452815f208381540190555f7fddf252ad1be2c89b69c2b068fc378daa952ba7f163c4a11628f55a4df523b3ef858451868152a351908152f35b6024905f85519163ec442f0560e01b8352820152fd5b6106f36107916107828661077d858c610e0c565b610de5565b61019c60075460085490610e0c565b976106eb565b6107ad90873d89116102c3576102b48183610e37565b505f6106cc565b6107ca90833d85116102c3576102b48183610e37565b505f610693565b87513d5f823e3d90fd5b50821515610635565b82346103db57806003193601126103db57602090610800610da3565b610808610db9565b9060018060a01b038091165f5260018452825f2091165f528252805f20549051908152f35b82346103db575f3660031901126103db5760065490516001600160a01b039091168152602090f35b82346103db57806003193601126103db5760209061087e610874610da3565b6024359033610f03565b5160018152f35b5090346103db575f3660031901126103db578051905f9280549060018260011c916001841693841561097e575b602094858510811461096b5784885290811561094957506001146108f0575b6108ec86866108e2828b0383610e37565b5191829182610d5c565b0390f35b5f9081529295507f8a35acfbc15ff81a39ae7d344fd709f28e8600b4aa8c65c6b64bfe7fe36bd19b5b82841061093657505050826108ec946108e292820101945f6108d1565b8054868501880152928601928101610919565b60ff191687860152505050151560051b83010192506108e2826108ec5f6108d1565b602283634e487b7160e01b5f525260245ffd5b92607f16926108b2565b82346103db5760203660031901126103db576020906001600160a01b036109ad610da3565b165f525f8252805f20549051908152f35b82346103db575f3660031901126103db576020905160128152f35b50346103db5760603660031901126103db576109f3610da3565b6109fb610db9565b906044359260018060a01b038216805f526001602052855f20335f52602052855f2054915f198310610a36575b60208761087e888888610f03565b858310610a9e578115610a88573315610a7257505f9081526001602090815286822033835281529086902091859003909155829061087e610a28565b6024905f885191634a1406b160e11b8352820152fd5b6024905f88519163e602df0560e01b8352820152fd5b8651637dc7a0d960e11b8152339181019182526020820193909352604081018690528291506060010390fd5b82346103db575f3660031901126103db576020906002549051908152f35b82346103db575f3660031901126103db5760055490516001600160a01b039091168152602090f35b5090346103db57806003193601126103db57610b2a610da3565b602435903315610ba3576001600160a01b0316908115610b8d5760209350335f5260018452825f20825f52845280835f205582519081527f8c5be1e5ebec7d5bd14f71427d1e84f3dd0314c0f7b2291e5b200ac8c7c3b925843392a35160018152f35b8251634a1406b160e11b81525f81860152602490fd5b825163e602df0560e01b81525f81860152602490fd5b82346103db575f3660031901126103db5760075460085482519182526020820152f35b5090346103db575f3660031901126103db578051905f9260035460018160011c91600181168015610cc7575b6020948585108214610cb45750838752908115610c945750600114610c3a575b5050506108e2826108ec940383610e37565b60035f9081529295507fc2575a0e9e593c00f959f8c92f12db2869c3395a3b0502d05e2516446f71f85b5b828410610c8157505050826108ec946108e29282010194610c28565b8054868501880152928601928101610c65565b60ff1916868501525050151560051b83010192506108e2826108ec610c28565b602290634e487b7160e01b5f525260245ffd5b92607f1692610c08565b5090346103db5760603660031901126103db5781356024356103e591828102928184041490151715610d4957610d0960443583610de5565b936103e891828102928184041490151715610d3657509261019c610d2f92602095610e0c565b9051908152f35b601190634e487b7160e01b5f525260245ffd5b601184634e487b7160e01b5f525260245ffd5b602080825282518183018190529093925f5b828110610d8f57505060409293505f838284010152601f8019910116010190565b818101860151848201604001528501610d6e565b600435906001600160a01b03821682036103db57565b602435906001600160a01b03821682036103db57565b606435906001600160a01b03821682036103db57565b81810292918115918404141715610df857565b634e487b7160e01b5f52601160045260245ffd5b91908201809211610df857565b8115610e23570490565b634e487b7160e01b5f52601260045260245ffd5b90601f8019910116810190811067ffffffffffffffff821117610e5957604052565b634e487b7160e01b5f52604160045260245ffd5b15610e7457565b60405162461bcd60e51b815260206004820152600b60248201526a1e995c9bc8185b5bdd5b9d60aa1b6044820152606490fd5b908160209103126103db575180151581036103db5790565b15610ec657565b60405162461bcd60e51b8152602060048201526008602482015267736c69707061676560c01b6044820152606490fd5b91908203918211610df857565b916001600160a01b03808416928315610fc55716928315610fad57825f525f60205260405f205490828210610f7b5750817fddf252ad1be2c89b69c2b068fc378daa952ba7f163c4a11628f55a4df523b3ef92602092855f525f84520360405f2055845f5260405f20818154019055604051908152a3565b60405163391434e360e21b81526001600160a01b03919091166004820152602481019190915260448101829052606490fd5b60405163ec442f0560e01b81525f6004820152602490fd5b604051634b637e8f60e11b81525f6004820152602490fdfea26469706673582212201df48da9e5864112c9d68e1f3ee0197faa2d37ee484b54fd2fd039343bb49d6a64736f6c63430008180033a2646970667358221220a50dedd340d37acb46fec3ef72c3b62e8178b97b1f56c2d1954c7f55670b53b464736f6c634300081800332f8788117e7eff1d82e926ec794901d17c78024a50270940304540a733656f0dad3228b676f7d3cd4284a5443f17f1962b36e491b30a40b2405849e597ba5fb5","linkReferences":{}},"methodIdentifiers":{"DEFAULT_ADMIN_ROLE()":"a217fddf","POOL_CREATOR_ROLE()":"b09728a5","allPools(uint256)":"41d1de97","allPoolsLength()":"efde4e64","computePoolAddress(address,address)":"d8ed2241","createPool(address,address)":"e3433615","createPool2(address,address)":"e9bb2e05","getPool(address,address)":"531aa03e","getRoleAdmin(bytes32)":"248a9ca3","grantRole(bytes32,address)":"2f2ff15d","hasRole(bytes32,address)":"91d14854","renounceRole(bytes32,address)":"36568abe","revokeRole(bytes32,address)":"d547741f","supportsInterface(bytes4)":"01ffc9a7"},"id":46}