{"abi":[{"type":"constructor","inputs":[{"name":"admin","type":"address","internalType":"address"}],"stateMutability":"nonpayable"},{"type":"function","name":"DEFAULT_ADMIN_ROLE","inputs":[],"outputs":[{"name":"","type":"bytes32","internalType":"bytes32"}],"stateMutability":"view"},{"type":"function","name":"POOL_CREATOR_ROLE","inputs":[],"outputs":[{"name":"","type":"bytes32","internalType":"bytes32"}],"stateMutability":"view"},{"type":"function","name":"allPools","inputs":[{"name":"","type":"uint256","internalType":"uint256"}],"outputs":[{"name":"","type":"address","internalType":"address"}],"stateMutability":"view"},{"type":"function","name":"allPoolsLength","inputs":[],"outputs":[{"name":"","type":"uint256","internalType":"uint256"}],"stateMutability":"view"},{"type":"function","name":"computePoolAddress","inputs":[{"name":"tokenA","type":"address","internalType":"address"},{"name":"tokenB","type":"address","internalType":"address"}],"outputs":[{"name":"predicted","type":"address","internalType":"address"}],"stateMutability":"view"},{"type":"function","name":"createPool","inputs":[{"name":"tokenA","type":"address","internalType":"address"},{"name":"tokenB","type":"address","internalType":"address"}],"outputs":[{"name":"pool","type":"address","internalType":"address"}],"stateMutability":"nonpayable"},{"type":"function","name":"createPool2","inputs":[{"name":"tokenA","type":"address","internalType":"address"},{"name":"tokenB","type":"address","internalType":"address"}],"outputs":[{"name":"pool","type":"address","internalType":"address"}],"stateMutability":"nonpayable"},{"type":"function","name":"getPool","inputs":[{"name":"","type":"address","internalType":"address"},{"name":"","type":"address","internalType":"address"}],"outputs":[{"name":"","type":"address","internalType":"address"}],"stateMutability":"view"},{"type":"function","name":"getRoleAdmin","inputs":[{"name":"role","type":"bytes32","internalType":"bytes32"}],"outputs":[{"name":"","type":"bytes32","internalType":"bytes32"}],"stateMutability":"view"},{"type":"function","name":"grantRole","inputs":[{"name":"role","type":"bytes32","internalType":"bytes32"},{"name":"account","type":"address","internalType":"address"}],"outputs":[],"stateMutability":"nonpayable"},{"type":"function","name":"hasRole","inputs":[{"name":"role","type":"bytes32","internalType":"bytes32"},{"name":"account","type":"address","internalType":"address"}],"outputs":[{"name":"","type":"bool","internalType":"bool"}],"stateMutability":"view"},{"type":"function","name":"renounceRole","inputs":[{"name":"role","type":"bytes32","internalType":"bytes32"},{"name":"callerConfirmation","type":"address","internalType":"address"}],"outputs":[],"stateMutability":"nonpayable"},{"type":"function","name":"revokeRole","inputs":[{"name":"role","type":"bytes32","internalType":"bytes32"},{"name":"account","type":"address","internalType":"address"}],"outputs":[],"stateMutability":"nonpayable"},{"type":"function","name":"supportsInterface","inputs":[{"name":"interfaceId","type":"bytes4","internalType":"bytes4"}],"outputs":[{"name":"","type":"bool","internalType":"bool"}],"stateMutability":"view"},{"type":"event","name":"PoolCreated","inputs":[{"name":"token0","type":"address","indexed":true,"internalType":"address"},{"name":"token1","type":"address","indexed":true,"internalType":"address"},{"name":"pool","type":"address","indexed":false,"internalType":"address"},{"name":"poolCount","type":"uint256","indexed":false,"internalType":"uint256"},{"name":"create2","type":"bool","indexed":false,"internalType":"bool"}],"anonymous":false},{"type":"event","name":"RoleAdminChanged","inputs":[{"name":"role","type":"bytes32","indexed":true,"internalType":"bytes32"},{"name":"previousAdminRole","type":"bytes32","indexed":true,"internalType":"bytes32"},{"name":"newAdminRole","type":"bytes32","indexed":true,"internalType":"bytes32"}],"anonymous":false},{"type":"event","name":"RoleGranted","inputs":[{"name":"role","type":"bytes32","indexed":true,"internalType":"bytes32"},{"name":"account","type":"address","indexed":true,"internalType":"address"},{"name":"sender","type":"address","indexed":true,"internalType":"address"}],"anonymous":false},{"type":"event","name":"RoleRevoked","inputs":[{"name":"role","type":"bytes32","indexed":true,"internalType":"bytes32"},{"name":"account","type":"address","indexed":true,"internalType":"address"},{"name":"sender","type":"address","indexed":true,"internalType":"address"}],"anonymous":false},{"type":"error","name":"AccessControlBadConfirmation","inputs":[]},{"type":"error","name":"AccessControlUnauthorizedAccount","inputs":[{"name":"account","type":"address","internalType":"address"},{"name":"neededRole","type":"bytes32","internalType":"bytes32"}]},{"type":"error","name":"IdenticalTokens","inputs":[]},{"type":"error","name":"PoolAlreadyExists","inputs":[{"name":"token0","type":"address","internalType":"address"},{"name":"token1","type":"address","internalType":"address"},{"name":"pool","type":"address","internalType":"address"}]},{"type":"error","name":"ZeroToken","inputs":[]}],"bytecode":{"object":"0x60803461007257601f612ae838819003918201601f19168301916001600160401b038311848410176100765780849260209460405283398101031261007257516001600160a01b0381168103610072578061005c6100629261008a565b506100f6565b5060405161291390816101958239f35b5f80fd5b634e487b7160e01b5f52604160045260245ffd5b6001600160a01b03165f8181525f80516020612ac8833981519152602052604090205460ff166100f1575f8181525f80516020612ac883398151915260205260408120805460ff191660011790553391905f80516020612aa88339815191528180a4600190565b505f90565b6001600160a01b03165f8181527f7d21986f97b64cd2d9c36c5f357e46868c76c53128809cf5af679c0bf9c6ed9e60205260409020547f4066b03ab177190abcd4de6384e71f7a60f56b879537b65d43a0523ade6cfe52919060ff1661018e57815f525f60205260405f20815f5260205260405f20600160ff1982541617905533915f80516020612aa88339815191525f80a4600190565b50505f9056fe608060409080825260048036101562000016575f80fd5b5f3560e01c91826301ffc9a714620007af57508163248a9ca314620007845781632f2ff15d146200075557816336568abe146200070a57816341d1de9714620006c5578163531aa03e146200067157816391d14854146200062a578163a217fddf146200060e578163b09728a514620005d2578163d547741f146200058f578163d8ed2241146200042e578163e343361514620002c8578163e9bb2e0514620000ec575063efde4e6414620000c9575f80fd5b34620000e8575f366003190112620000e8576020906002549051908152f35b5f80fd5b8234620000e85780600319360112620000e857620001286200010d6200081d565b6200011762000806565b9062000122620008e0565b62000a6c565b620001368183949362000acc565b815193602094858101906200017d816200016e868986906028926001600160601b0319809260601b16835260601b1660148201520190565b03601f1981018352826200087e565b5190208351611db38082019082821067ffffffffffffffff831117620002b5578291620001ca9162000b2b84396001600160a01b03808a1682528716602082015233604082015260600190565b03905ff58015620002ab5760018060a01b0380809216951691825f526001875281855f20941693845f528752845f206001600160601b0360a01b90878282541617905560018852855f20845f52885286865f209182541617905560025490600160401b82101562000298575080600162000248920160025562000834565b819291549060031b9187831b921b19161790557f3981838c5d479949d0eff29582b53a6043a7780b7d8fae787f371e2e99b46307606060025485519087825288820152600186820152a351908152f35b604190634e487b7160e01b5f525260245ffd5b83513d5f823e3d90fd5b604185634e487b7160e01b5f525260245ffd5b8234620000e85780600319360112620000e857620002e96200010d6200081d565b620002f78183949362000acc565b8151611db38082019082821067ffffffffffffffff8311176200041b578291620003419162000b2b84396001600160a01b0380881682528516602082015233604082015260600190565b03905ff08015620004115760018060a01b0380809216941690815f526020956001875281855f20941693845f528752845f206001600160601b0360a01b90878282541617905560018852855f20845f52885286865f209182541617905560025490600160401b821015620002985750806001620003c2920160025562000834565b819291549060031b9187831b921b19161790557f3981838c5d479949d0eff29582b53a6043a7780b7d8fae787f371e2e99b463076060600254855190878252888201525f86820152a351908152f35b82513d5f823e3d90fd5b604187634e487b7160e01b5f525260245ffd5b905034620000e85781600319360112620000e85762000461620004506200081d565b6200045a62000806565b9062000a6c565b83919351936200052b62000538602096878101816200049e878784906028926001600160601b0319809260601b16835260601b1660148201520190565b0391620004b4601f19938481018352826200087e565b5190209462000510611db395885196620004d18c8201896200087e565b80885262000b2b8c89013988516001600160a01b03918216818d019081529190931660208201523360408201528290606001038381018352826200087e565b8651938491620005248b84018098620008b5565b90620008b5565b039081018352826200087e565b519020918051928584019260ff60f81b84523060601b60218601526035850152605584015260558352608083019383851067ffffffffffffffff861117620002985750839052905190206001600160a01b03168152f35b8234620000e85780600319360112620000e857620005d09135620005ca6001620005b862000806565b93835f525f6020525f2001546200095a565b620009f9565b005b8234620000e8575f366003190112620000e857602090517f4066b03ab177190abcd4de6384e71f7a60f56b879537b65d43a0523ade6cfe528152f35b8234620000e8575f366003190112620000e857602090515f8152f35b8234620000e85780600319360112620000e8576020916200064a62000806565b90355f525f8352815f209060018060a01b03165f52825260ff815f20541690519015158152f35b8234620000e85780600319360112620000e857602090620006916200081d565b6200069b62000806565b6001600160a01b039182165f90815260018552838120918316815290845282902054915191168152f35b905034620000e8576020366003190112620000e8573590600254821015620000e857620006f460209262000834565b905491519160018060a01b039160031b1c168152f35b8234620000e85780600319360112620000e8576200072762000806565b90336001600160a01b03831603620007465750620005d09135620009f9565b5163334bd91960e11b81529050fd5b8234620000e85780600319360112620000e857620005d091356200077e6001620005b862000806565b6200097c565b8234620000e8576020366003190112620000e857602091355f525f82526001815f2001549051908152f35b9034620000e8576020366003190112620000e857359063ffffffff60e01b8216809203620000e857602091637965db0b60e01b8114908115620007f4575b5015158152f35b6301ffc9a760e01b14905083620007ed565b602435906001600160a01b0382168203620000e857565b600435906001600160a01b0382168203620000e857565b6002548110156200086a5760025f527f405787fa12a823e0f2b7631cc41b3ba8828b3321ca811111fa75cd3aa3bb5ace01905f90565b634e487b7160e01b5f52603260045260245ffd5b90601f8019910116810190811067ffffffffffffffff821117620008a157604052565b634e487b7160e01b5f52604160045260245ffd5b908151915f5b838110620008cc575050015f815290565b8060208092840101518185015201620008bb565b335f9081527f7d21986f97b64cd2d9c36c5f357e46868c76c53128809cf5af679c0bf9c6ed9e60205260409020547f4066b03ab177190abcd4de6384e71f7a60f56b879537b65d43a0523ade6cfe529060ff16156200093c5750565b6044906040519063e2517d3f60e01b82523360048301526024820152fd5b805f525f60205260405f20335f5260205260ff60405f205416156200093c5750565b90815f525f60205260405f209060018060a01b031690815f5260205260ff60405f205416155f14620009f357815f525f60205260405f20815f5260205260405f20600160ff1982541617905533917f2f8788117e7eff1d82e926ec794901d17c78024a50270940304540a733656f0d5f80a4600190565b50505f90565b90815f525f60205260405f209060018060a01b031690815f5260205260ff60405f2054165f14620009f357815f525f60205260405f20815f5260205260405f2060ff19815416905533917ff6391f5c32d9c69d2a47ea670b442974b53935d1edc7fd64eb21e047a839171b5f80a4600190565b6001600160a01b0382811690821680821462000aba578015801562000ab1575b62000a9f57101562000a9b5791565b9091565b60405163ad1991f560e01b8152600490fd5b50811562000a8c565b604051635c6d7b7360e01b8152600490fd5b60018060a01b038082165f52600160205260405f208184165f5260205260405f2054168062000afa57505050565b60405163da050a2f60e01b81526001600160a01b0392831660048201529282166024840152166044820152606490fdfe60c0346200044b57601f601f196001600160401b0362001db338819003848101841686019190838311878410176200035a578087926060946040528339810103126200044b5762000050846200046f565b936020946200006f6040620000678885016200046f565b93016200046f565b94829382976200007e6200044f565b92600c84526b20a6a6902628102a37b5b2b760a11b82850152620000a16200044f565b600392838252620414c560ec1b8183015285518581116200035a5784546001978882811c9216801562000440575b848310146200042c578186849311620003d9575b5083908683116001146200037a575f926200036e575b50505f1982871b1c191690871b1784555b81519485116200035a576004998a548781811c911680156200034f575b838210146200033c5790818588979695949311620002e1575b50819386116001146200027a5750505f936200026e575b505082841b925f19911b1c19161785555b7f9b779b17422d0df92223018b32b4d1fa46e071723d6817e2486d003becc55f00556001600160a01b039382851690828616908183146200025f578115801562000256575b62000247575091859391620001e09893116200023b575b5050166080521660a052620001d98162000484565b50620004f4565b506040516117dd90816200059682396080518181816101ba015281816105bc015281816108790152610fbd015260a0518181816101fe015281816103e901528181610428015281816105e7015281816108a50152610ad70152f35b935090505f80620001c4565b60405163c1ab6dc160e01b8152fd5b508215620001ad565b604051630d11785f60e21b8152fd5b015191505f8062000157565b87969493929194168b5f52845f20945f905b828210620002c75750508511620002ad575b50505050811b01855562000168565b01519060f8845f19921b161c191690555f8080806200029e565b84840151875589989096019593840193908101906200028c565b909192939495508b5f52825f208580890160051c820192858a1062000332575b918a918a999897969594930160051c01915b8281106200032357505062000140565b5f81558998508a910162000313565b9250819262000301565b60228c634e487b7160e01b5f525260245ffd5b90607f169062000127565b634e487b7160e01b5f52604160045260245ffd5b015190505f80620000f9565b908d8a941691885f52855f20925f5b87828210620003c25750508411620003aa575b505050811b0184556200010a565b01515f1983891b60f8161c191690555f80806200039c565b8385015186558d9790950194938401930162000389565b909150865f52835f208680850160051c82019286861062000422575b918b91869594930160051c01915b82811062000413575050620000e3565b5f81558594508b910162000403565b92508192620003f5565b634e487b7160e01b5f52602260045260245ffd5b91607f1691620000cf565b5f80fd5b60408051919082016001600160401b038111838210176200035a57604052565b51906001600160a01b03821682036200044b57565b6001600160a01b03165f8181525f8051602062001d93833981519152602052604090205460ff16620004ef575f8181525f8051602062001d9383398151915260205260408120805460ff191660011790553391905f8051602062001d738339815191528180a4600190565b505f90565b6001600160a01b03165f8181527fe09f975e15f8f53f24cbbc282b13c40b84df485fcdb8d3997fa103dc5a4ef84160205260409020547f65d7a28e3265b37a6474929f336521b332c1681b933f6cb9f3376673440d862a919060ff166200058f57815f52600660205260405f20815f5260205260405f20600160ff1982541617905533915f8051602062001d738339815191525f80a4600190565b50505f9056fe6080604081815260049182361015610015575f80fd5b5f3560e01c90816301ffc9a71461124e57508063054d50d41461119257806306fdde03146110b75780630902f1ac14611094578063095ea7b314610fec5780630dfe168114610fa957806318160ddd14610f8b57806323b872dd14610e99578063248a9ca314610e6f5780632f2ff15d14610e47578063313ce56714610e2c57806336568abe14610de85780633f4ba83a14610d8157806341cd47bf14610d655780635c975abb14610d4257806370a0823114610d0c5780638456cb5914610cb357806391d1485414610c6f57806395d89b4114610b50578063a217fddf14610b36578063a9059cbb14610b06578063ba9a7a5614610a82578063d21220a714610ac3578063d547741f14610a87578063d73792a914610a82578063dd62ed3e14610a39578063e0ab077214610703578063e39b0eb51461049e578063e63ab1e9146104645763f3e6ea8a14610169575f80fd5b34610460576080366003190112610460576101826112e7565b9060249182359060443593610195611313565b61019d6115f8565b6101a5611627565b8315610450576001600160a01b0392831692917f000000000000000000000000000000000000000000000000000000000000000083811685811490811580610424575b6104145781156103df57506007549960085492937f00000000000000000000000000000000000000000000000000000000000000009b935b84158080156103d7575b6103c7576103e58b026103e4198c8204016103b5576102498382611345565b916103e890818902918983041417156103a357610270929161026a9161136c565b90611379565b9b8c1561038857808d1061036d5750808c101561035d57906102a98c9493926102a361029c8d8961136c565b9682611397565b96611345565b906102b48686611345565b918083106103445750505050996102e9886102ee958c95889560209f5f1461033657906102e091611645565b3090339061167f565b611708565b8451938452858785015216917fb39c9bc43f811e1a7ce159c5f147458fdb80266bf23c17322013316e27e086d0843392a460015f805160206117888339815191525551908152f35b61033f91611645565b6102e0565b8c516373c752df60e11b81529384015282015260449150fd5b8a5163bb55fd2760e01b81528390fd5b83604491848f8f519363d28d3eb560e01b8552840152820152fd5b83604491845f8f519363d28d3eb560e01b8552840152820152fd5b84601187634e487b7160e01b5f52525ffd5b83601186634e487b7160e01b5f52525ffd5b8b5163bb55fd2760e01b81528490fd5b50811561022a565b600854600754919b7f000000000000000000000000000000000000000000000000000000000000000088169591945091610220565b885163c1ab6dc160e01b81528b90fd5b50857f0000000000000000000000000000000000000000000000000000000000000000168714156101e8565b845163098fb56160e01b81528790fd5b5f80fd5b5034610460575f36600319011261046057602090517f65d7a28e3265b37a6474929f336521b332c1681b933f6cb9f3376673440d862a8152f35b5090346104605760803660031901126104605760243581356044356104c1611313565b906104ca6115f8565b6104d2611627565b82156106f3576002549485156106e557600754906008549261050b610500896104fb868a611345565b611379565b986104fb8689611345565b96881580156106dd575b6106cd578089106106b157508087106106945750331561067e57335f525f602052875f2054908582106106535750610633926105af876105a98a7f1dc8bb69df2b8e91fbdcbfcf93d951b3f0000f085a95fe3f7946d6161439245d98965f8e8c6105b5993384528360205203818320558c60025403600255518c81525f8051602061176883398151915260203392a3611397565b92611397565b90611645565b6105e086827f0000000000000000000000000000000000000000000000000000000000000000611708565b61060b85827f0000000000000000000000000000000000000000000000000000000000000000611708565b86518681526020810186905260408101949094526001600160a01b0316929081906060820190565b0390a260015f805160206117888339815191525582519182526020820152f35b885163391434e360e21b81523391810191825260208201929092526040810186905281906060010390fd5b6024905f895191634b637e8f60e11b8352820152fd5b885163d28d3eb560e01b8152918201879052602482015260449150fd5b826044918a8c519263d28d3eb560e01b84528301526024820152fd5b895163749383ad60e01b81528390fd5b508715610515565b865163bb55fd2760e01b8152fd5b8551631f2a200560e01b81528590fd5b5090346104605760a0366003190112610460578035916024803560443594606435946084359360018060a01b038516809503610460576107416115f8565b610749611627565b82158015610a31575b610a2257600754916008549360025498891591825f146109ec57969a5b8088106109d15750808b106109b65750156109735761078e8986611345565b975f986003811180600114610948571561093e575b506103e719890198891161092c57881561091d576103e89081810180911161090b575f8051602061176883398151915260206001935f936002558484528382528b84208181540190558b51908152a35b85156108f85750509161087187926105af60209961086b857f64b83944e79c3ce8d4c297411de637c3e102d064677aac0c163976ebdcd6f50e988a5f8f8f908f915f805160206117688339815191529261084f8260025461136c565b60025585855284835280852082815401905551908152a361136c565b9261136c565b61089d8130337f000000000000000000000000000000000000000000000000000000000000000061167f565b6108c98230337f000000000000000000000000000000000000000000000000000000000000000061167f565b8451908152602081019190915260408101859052606090a260015f805160206117888339815191525551908152f35b5f87519163ec442f0560e01b8352820152fd5b83601184634e487b7160e01b5f52525ffd5b508651633489be7560e21b8152fd5b50601190634e487b7160e01b5f52525ffd5b151598505f6107a3565b5098506001808a01811c908a5b8b83106109635750506107a3565b919a508a82048b01811c91610955565b96610990846104fb610989866104fb868b611345565b938c611345565b808210156109ae5750965b876107f3578651633489be7560e21b8152fd5b90509661099b565b90506044928a89519363d28d3eb560e01b8552840152820152fd5b83604491868a8d519363d28d3eb560e01b8552840152820152fd5b6109fa866104fb8984611345565b97808911610a0a5750969a61076f565b975050610a1b866104fb878a611345565b969a61076f565b508451631f2a200560e01b8152fd5b508315610752565b5034610460578060031936011261046057602090610a556112e7565b610a5d6112fd565b9060018060a01b038091165f5260018452825f2091165f528252805f20549051908152f35b611329565b5034610460578060031936011261046057610ac19135610abc6001610aaa6112fd565b93835f5260066020525f2001546114e4565b611584565b005b5034610460575f36600319011261046057517f00000000000000000000000000000000000000000000000000000000000000006001600160a01b03168152602090f35b5034610460578060031936011261046057602090610b2f610b256112e7565b60243590336113a4565b5160018152f35b5034610460575f36600319011261046057602090515f8152f35b5034610460575f366003190112610460578051905f835460018160011c9060018316928315610c65575b6020938484108114610c5257838852908115610c365750600114610be2575b505050829003601f01601f191682019267ffffffffffffffff841183851017610bcf5750829182610bcb9252826112a0565b0390f35b604190634e487b7160e01b5f525260245ffd5b5f878152929350837f8a35acfbc15ff81a39ae7d344fd709f28e8600b4aa8c65c6b64bfe7fe36bd19b5b838510610c2257505050508301015f8080610b99565b805488860183015293019284908201610c0c565b60ff1916878501525050151560051b84010190505f8080610b99565b602289634e487b7160e01b5f525260245ffd5b91607f1691610b7a565b5034610460578060031936011261046057602091610c8b6112fd565b90355f5260068352815f209060018060a01b03165f52825260ff815f20541690519015158152f35b5034610460575f3660031901126104605760207f62e78cea01bee320cd4e420270b5ea74000d11b0c9f74754ebdbfc544b05a25891610cf061146b565b610cf8611627565b600160ff19600554161760055551338152a1005b5034610460576020366003190112610460576020906001600160a01b03610d316112e7565b165f525f8252805f20549051908152f35b5034610460575f3660031901126104605760209060ff6005541690519015158152f35b5034610460575f36600319011261046057602090516103e58152f35b5034610460575f36600319011261046057610d9a61146b565b6005549160ff831615610dda577f5db9ee0a495bf2e6ff9c91a7834c1ba4fdd244a5e8aa4e537bd38aeae4b073aa6020838560ff191660055551338152a1005b9051638dfc202b60e01b8152fd5b5034610460578060031936011261046057610e016112fd565b90336001600160a01b03831603610e1d5750610ac19135611584565b5163334bd91960e11b81529050fd5b5034610460575f366003190112610460576020905160128152f35b5034610460578060031936011261046057610ac19135610e6a6001610aaa6112fd565b611506565b503461046057602036600319011261046057602091355f52600682526001815f2001549051908152f35b50903461046057606036600319011261046057610eb46112e7565b610ebc6112fd565b906044359260018060a01b038216805f526001602052855f20335f52602052855f2054915f198310610ef7575b602087610b2f8888886113a4565b858310610f5f578115610f49573315610f3357505f90815260016020908152868220338352815290869020918590039091558290610b2f610ee9565b6024905f885191634a1406b160e11b8352820152fd5b6024905f88519163e602df0560e01b8352820152fd5b8651637dc7a0d960e11b8152339181019182526020820193909352604081018690528291506060010390fd5b5034610460575f366003190112610460576020906002549051908152f35b5034610460575f36600319011261046057517f00000000000000000000000000000000000000000000000000000000000000006001600160a01b03168152602090f35b50346104605780600319360112610460576110056112e7565b60243590331561107e576001600160a01b03169081156110685760209350335f5260018452825f20825f52845280835f205582519081527f8c5be1e5ebec7d5bd14f71427d1e84f3dd0314c0f7b2291e5b200ac8c7c3b925843392a35160018152f35b8251634a1406b160e11b81525f81860152602490fd5b825163e602df0560e01b81525f81860152602490fd5b5034610460575f3660031901126104605760075460085482519182526020820152f35b5034610460575f366003190112610460578051905f60035460018160011c9060018316928315611188575b6020938484108114610c5257838852908115610c36575060011461113257505050829003601f01601f191682019267ffffffffffffffff841183851017610bcf5750829182610bcb9252826112a0565b60035f908152929350837fc2575a0e9e593c00f959f8c92f12db2869c3395a3b0502d05e2516446f71f85b5b83851061117457505050508301015f8080610b99565b80548886018301529301928490820161115e565b91607f16916110e2565b503461046057606036600319011261046057813560243560443593821561124057811594858015611238575b611229576103e580850294850403611216576111da9084611345565b946103e880840293840414171561120357509261026a6111fc9260209561136c565b9051908152f35b601190634e487b7160e01b5f525260245ffd5b601182634e487b7160e01b5f525260245ffd5b50835163bb55fd2760e01b8152fd5b5080156111be565b835163098fb56160e01b8152fd5b833461046057602036600319011261046057359063ffffffff60e01b821680920361046057602091637965db0b60e01b811490811561128f575b5015158152f35b6301ffc9a760e01b14905083611288565b602080825282518183018190529093925f5b8281106112d357505060409293505f838284010152601f8019910116010190565b8181018601518482016040015285016112b2565b600435906001600160a01b038216820361046057565b602435906001600160a01b038216820361046057565b606435906001600160a01b038216820361046057565b34610460575f3660031901126104605760206040516103e88152f35b8181029291811591840414171561135857565b634e487b7160e01b5f52601160045260245ffd5b9190820180921161135857565b8115611383570490565b634e487b7160e01b5f52601260045260245ffd5b9190820391821161135857565b916001600160a01b03808416928315611453571692831561143b57825f525f60205260405f2054908282106114095750815f8051602061176883398151915292602092855f525f84520360405f2055845f5260405f20818154019055604051908152a3565b60405163391434e360e21b81526001600160a01b03919091166004820152602481019190915260448101829052606490fd5b60405163ec442f0560e01b81525f6004820152602490fd5b604051634b637e8f60e11b81525f6004820152602490fd5b335f9081527fe09f975e15f8f53f24cbbc282b13c40b84df485fcdb8d3997fa103dc5a4ef84160205260409020547f65d7a28e3265b37a6474929f336521b332c1681b933f6cb9f3376673440d862a9060ff16156114c65750565b6044906040519063e2517d3f60e01b82523360048301526024820152fd5b805f52600660205260405f20335f5260205260ff60405f205416156114c65750565b90815f52600660205260405f209060018060a01b031690815f5260205260ff60405f205416155f1461157e57815f52600660205260405f20815f5260205260405f20600160ff1982541617905533917f2f8788117e7eff1d82e926ec794901d17c78024a50270940304540a733656f0d5f80a4600190565b50505f90565b90815f52600660205260405f209060018060a01b031690815f5260205260ff60405f2054165f1461157e57815f52600660205260405f20815f5260205260405f2060ff19815416905533917ff6391f5c32d9c69d2a47ea670b442974b53935d1edc7fd64eb21e047a839171b5f80a4600190565b5f8051602061178883398151915260028154146116155760029055565b604051633ee5aeb560e01b8152600490fd5b60ff6005541661163357565b60405163d93c066560e01b8152600490fd5b6040907f5141ecc84a35c12ca2bf76bb33d393bd2fc22f906da0743534beef4ae63c6c8e92816007558060085582519182526020820152a1565b6040516323b872dd60e01b5f9081526001600160a01b03938416600452938316602452604494909452909160209060648180855af160015f51148116156116e9575b836040525f606052156116d357505050565b635274afe760e01b835216600482015260249150fd5b60018115166116ff57813b15153d1516166116c1565b833d5f823e3d90fd5b60405163a9059cbb60e01b5f9081526001600160a01b039384166004526024949094529260209060448180855af160015f5114811615611751575b83604052156116d357505050565b60018115166116ff57813b15153d15161661174356feddf252ad1be2c89b69c2b068fc378daa952ba7f163c4a11628f55a4df523b3ef9b779b17422d0df92223018b32b4d1fa46e071723d6817e2486d003becc55f00a26469706673582212206dce72ff3976433ad6c4ade9fa9f1d5e9d5b5646166579fb291624fdff0a749e64736f6c634300081800332f8788117e7eff1d82e926ec794901d17c78024a50270940304540a733656f0d54cdd369e4e8a8515e52ca72ec816c2101831ad1f18bf44102ed171459c9b4f8a26469706673582212207f540bed181998a9ef4e4179b240b19ecf2c1a91f1352d4722ffdecebb83ee7464736f6c634300081800332f8788117e7eff1d82e926ec794901d17c78024a50270940304540a733656f0dad3228b676f7d3cd4284a5443f17f1962b36e491b30a40b2405849e597ba5fb5","linkReferences":{}},"methodIdentifiers":{"DEFAULT_ADMIN_ROLE()":"a217fddf","POOL_CREATOR_ROLE()":"b09728a5","allPools(uint256)":"41d1de97","allPoolsLength()":"efde4e64","computePoolAddress(address,address)":"d8ed2241","createPool(address,address)":"e3433615","createPool2(address,address)":"e9bb2e05","getPool(address,address)":"531aa03e","getRoleAdmin(bytes32)":"248a9ca3","grantRole(bytes32,address)":"2f2ff15d","hasRole(bytes32,address)":"91d14854","renounceRole(bytes32,address)":"36568abe","revokeRole(bytes32,address)":"d547741f","supportsInterface(bytes4)":"01ffc9a7"},"id":106}