{"abi":[{"type":"constructor","inputs":[{"name":"admin","type":"address","internalType":"address"},{"name":"timelock","type":"address","internalType":"address"}],"stateMutability":"nonpayable"},{"type":"receive","stateMutability":"payable"},{"type":"function","name":"DEFAULT_ADMIN_ROLE","inputs":[],"outputs":[{"name":"","type":"bytes32","internalType":"bytes32"}],"stateMutability":"view"},{"type":"function","name":"SPENDER_ROLE","inputs":[],"outputs":[{"name":"","type":"bytes32","internalType":"bytes32"}],"stateMutability":"view"},{"type":"function","name":"allocateETH","inputs":[{"name":"recipient","type":"address","internalType":"address"},{"name":"amount","type":"uint256","internalType":"uint256"}],"outputs":[],"stateMutability":"nonpayable"},{"type":"function","name":"allocateToken","inputs":[{"name":"token","type":"address","internalType":"address"},{"name":"recipient","type":"address","internalType":"address"},{"name":"amount","type":"uint256","internalType":"uint256"}],"outputs":[],"stateMutability":"nonpayable"},{"type":"function","name":"claimETH","inputs":[],"outputs":[],"stateMutability":"nonpayable"},{"type":"function","name":"claimToken","inputs":[{"name":"token","type":"address","internalType":"address"}],"outputs":[],"stateMutability":"nonpayable"},{"type":"function","name":"ethBalance","inputs":[],"outputs":[{"name":"","type":"uint256","internalType":"uint256"}],"stateMutability":"view"},{"type":"function","name":"getRoleAdmin","inputs":[{"name":"role","type":"bytes32","internalType":"bytes32"}],"outputs":[{"name":"","type":"bytes32","internalType":"bytes32"}],"stateMutability":"view"},{"type":"function","name":"grantRole","inputs":[{"name":"role","type":"bytes32","internalType":"bytes32"},{"name":"account","type":"address","internalType":"address"}],"outputs":[],"stateMutability":"nonpayable"},{"type":"function","name":"hasRole","inputs":[{"name":"role","type":"bytes32","internalType":"bytes32"},{"name":"account","type":"address","internalType":"address"}],"outputs":[{"name":"","type":"bool","internalType":"bool"}],"stateMutability":"view"},{"type":"function","name":"pendingETH","inputs":[{"name":"","type":"address","internalType":"address"}],"outputs":[{"name":"","type":"uint256","internalType":"uint256"}],"stateMutability":"view"},{"type":"function","name":"pendingTokens","inputs":[{"name":"","type":"address","internalType":"address"},{"name":"","type":"address","internalType":"address"}],"outputs":[{"name":"","type":"uint256","internalType":"uint256"}],"stateMutability":"view"},{"type":"function","name":"renounceRole","inputs":[{"name":"role","type":"bytes32","internalType":"bytes32"},{"name":"callerConfirmation","type":"address","internalType":"address"}],"outputs":[],"stateMutability":"nonpayable"},{"type":"function","name":"revokeRole","inputs":[{"name":"role","type":"bytes32","internalType":"bytes32"},{"name":"account","type":"address","internalType":"address"}],"outputs":[],"stateMutability":"nonpayable"},{"type":"function","name":"supportsInterface","inputs":[{"name":"interfaceId","type":"bytes4","internalType":"bytes4"}],"outputs":[{"name":"","type":"bool","internalType":"bool"}],"stateMutability":"view"},{"type":"function","name":"tokenBalance","inputs":[{"name":"token","type":"address","internalType":"address"}],"outputs":[{"name":"","type":"uint256","internalType":"uint256"}],"stateMutability":"view"},{"type":"event","name":"ETHAllocated","inputs":[{"name":"recipient","type":"address","indexed":true,"internalType":"address"},{"name":"amount","type":"uint256","indexed":false,"internalType":"uint256"}],"anonymous":false},{"type":"event","name":"ETHClaimed","inputs":[{"name":"recipient","type":"address","indexed":true,"internalType":"address"},{"name":"amount","type":"uint256","indexed":false,"internalType":"uint256"}],"anonymous":false},{"type":"event","name":"ETHReceived","inputs":[{"name":"sender","type":"address","indexed":true,"internalType":"address"},{"name":"amount","type":"uint256","indexed":false,"internalType":"uint256"}],"anonymous":false},{"type":"event","name":"RoleAdminChanged","inputs":[{"name":"role","type":"bytes32","indexed":true,"internalType":"bytes32"},{"name":"previousAdminRole","type":"bytes32","indexed":true,"internalType":"bytes32"},{"name":"newAdminRole","type":"bytes32","indexed":true,"internalType":"bytes32"}],"anonymous":false},{"type":"event","name":"RoleGranted","inputs":[{"name":"role","type":"bytes32","indexed":true,"internalType":"bytes32"},{"name":"account","type":"address","indexed":true,"internalType":"address"},{"name":"sender","type":"address","indexed":true,"internalType":"address"}],"anonymous":false},{"type":"event","name":"RoleRevoked","inputs":[{"name":"role","type":"bytes32","indexed":true,"internalType":"bytes32"},{"name":"account","type":"address","indexed":true,"internalType":"address"},{"name":"sender","type":"address","indexed":true,"internalType":"address"}],"anonymous":false},{"type":"event","name":"TokenAllocated","inputs":[{"name":"token","type":"address","indexed":true,"internalType":"address"},{"name":"recipient","type":"address","indexed":true,"internalType":"address"},{"name":"amount","type":"uint256","indexed":false,"internalType":"uint256"}],"anonymous":false},{"type":"event","name":"TokenClaimed","inputs":[{"name":"token","type":"address","indexed":true,"internalType":"address"},{"name":"recipient","type":"address","indexed":true,"internalType":"address"},{"name":"amount","type":"uint256","indexed":false,"internalType":"uint256"}],"anonymous":false},{"type":"error","name":"AccessControlBadConfirmation","inputs":[]},{"type":"error","name":"AccessControlUnauthorizedAccount","inputs":[{"name":"account","type":"address","internalType":"address"},{"name":"neededRole","type":"bytes32","internalType":"bytes32"}]},{"type":"error","name":"ETHTransferFailed","inputs":[]},{"type":"error","name":"InsufficientBalance","inputs":[{"name":"requested","type":"uint256","internalType":"uint256"},{"name":"available","type":"uint256","internalType":"uint256"}]},{"type":"error","name":"NothingToClaim","inputs":[]},{"type":"error","name":"ReentrancyGuardReentrantCall","inputs":[]},{"type":"error","name":"SafeERC20FailedOperation","inputs":[{"name":"token","type":"address","internalType":"address"}]},{"type":"error","name":"ZeroAddress","inputs":[]},{"type":"error","name":"ZeroAmount","inputs":[]}],"bytecode":{"object":"0x6080346100ce57601f610ce538819003918201601f19168301916001600160401b038311848410176100d25780849260409485528339810103126100ce57610052602061004b836100e6565b92016100e6565b60017f9b779b17422d0df92223018b32b4d1fa46e071723d6817e2486d003becc55f00556001600160a01b03828116159081156100c3575b506100b15761009b6100a1926100fa565b50610166565b50604051610aa090816102058239f35b60405163d92e233d60e01b8152600490fd5b90508116155f61008a565b5f80fd5b634e487b7160e01b5f52604160045260245ffd5b51906001600160a01b03821682036100ce57565b6001600160a01b03165f8181525f80516020610cc5833981519152602052604090205460ff16610161575f8181525f80516020610cc583398151915260205260408120805460ff191660011790553391905f80516020610ca58339815191528180a4600190565b505f90565b6001600160a01b03165f8181527f4ffb062551029653461ccbf75b2f79c88d255df04d3a67abc9377d166127112960205260409020547f7434c6f201a551bfd17336985361933e0c4935b520dac8a49d937b325f7d5c0a919060ff166101fe57815f525f60205260405f20815f5260205260405f20600160ff1982541617905533915f80516020610ca58339815191525f80a4600190565b50505f9056fe608060409080825260048036101561004a575b5050361561001e575f80fd5b513481527fbfe611b001dfcd411432f7bf0d79b82b4b2ee81511edac123a3403c357fb972a60203392a2005b5f3560e01c91826301ffc9a7146107cb57508163097cd04f14610782578163248a9ca3146107595781632f2ff15d1461073157816332f289cf1461060c57816336568abe146105c85781634e6630b0146105ae57816367272999146104ac57816372c16a241461047257816391d148541461042f578163a217fddf14610415578163ad736751146102cb578163c9d72a4d1461020c578163d547741f146101d1578163eedc966a14610142575063fc52910d14610108575f80610012565b3461013e57602036600319011261013e576020906001600160a01b0361012c61081d565b165f5260018252805f20549051908152f35b5f80fd5b90503461013e576020918260031936011261013e57826001600160a01b0361016861081d565b169260248351809581936370a0823160e01b835230908301525afa9182156101c7575f92610198575b5051908152f35b9091508281813d83116101c0575b6101b08183610849565b8101031261013e5751905f610191565b503d6101a6565b50513d5f823e3d90fd5b823461013e578060031936011261013e5761020a913561020560016101f4610833565b93835f525f6020525f200154610919565b6109f8565b005b823461013e578060031936011261013e5761022561081d565b90602435916102326108a0565b6001600160a01b03169283156102bd5782156102af5782471061029357507f7d0d23f5cdc5f7f4cdedb472b6136c05dc8e397fdd4b0de6175b035f5149423d91602091845f5260018352805f2061028a83825461087f565b905551908152a2005b906044924791519263cf47918160e01b84528301526024820152fd5b9051631f2a200560e01b8152fd5b905163d92e233d60e01b8152fd5b823461013e57606036600319011261013e576102e561081d565b916102ee610833565b604435906102fa6108a0565b6001600160a01b03908116948515801561040b575b6103fb5782156103eb5716928051926370a0823160e01b845230818501526020938481602481895afa9081156103e1575f916103b4575b5083811061039a575050907f918348ece72b49a58054829fde7465a1e06386019b2a981c2daee97b0f795ede9291855f5260028352805f20855f528352805f2061039183825461087f565b905551908152a3005b83604493519263cf47918160e01b84528301526024820152fd5b90508481813d83116103da575b6103cb8183610849565b8101031261013e575187610346565b503d6103c1565b83513d5f823e3d90fd5b8451631f2a200560e01b81528490fd5b845163d92e233d60e01b81528490fd5b508181161561030f565b823461013e575f36600319011261013e57602090515f8152f35b823461013e578060031936011261013e5760209161044b610833565b90355f525f8352815f209060018060a01b03165f52825260ff815f20541690519015158152f35b823461013e575f36600319011261013e57602090517f7434c6f201a551bfd17336985361933e0c4935b520dac8a49d937b325f7d5c0a8152f35b823461013e575f36600319011261013e576104c56109b6565b335f526001602052805f20549182156105a057335f5260016020525f828120555f80808086335af13d1561059b573d67ffffffffffffffff81116105885783519061051a601f8201601f191660200183610849565b81525f60203d92013e5b1561057a5750519081527f33f3a07d17ea3581c3647a566de28834fda4b148c01e213b5f980b4f54cafb5c60203392a260017f9b779b17422d0df92223018b32b4d1fa46e071723d6817e2486d003becc55f0055005b905163b12d13eb60e01b8152fd5b604183634e487b7160e01b5f525260245ffd5b610524565b90516312d37ee560e31b8152fd5b823461013e575f36600319011261013e5751478152602090f35b823461013e578060031936011261013e576105e1610833565b90336001600160a01b038316036105fd575061020a91356109f8565b5163334bd91960e11b81529050fd5b823461013e5760208060031936011261013e5761062761081d565b906106306109b6565b335f908152600282528381206001600160a01b039093168082529282528390205492831561072257335f5260028252805f20835f5282525f81812055805163a9059cbb60e01b5f5233865284602452825f60448180885af160015f5114811615610703575b818352156106ee5750907f4831bdd9dcf3048a28319ce81d3cab7a15366bcf449bc7803a539107440809cc91519384523393a360017f9b779b17422d0df92223018b32b4d1fa46e071723d6817e2486d003becc55f0055005b635274afe760e01b8152858101849052602490fd5b600181151661071957843b15153d151616610695565b503d5f823e3d90fd5b516312d37ee560e31b81528490fd5b823461013e578060031936011261013e5761020a913561075460016101f4610833565b61093a565b823461013e57602036600319011261013e57602091355f525f82526001815f2001549051908152f35b823461013e578060031936011261013e5760209061079e61081d565b6107a6610833565b9060018060a01b038091165f5260028452825f2091165f528252805f20549051908152f35b903461013e57602036600319011261013e57359063ffffffff60e01b821680920361013e57602091637965db0b60e01b811490811561080c575b5015158152f35b6301ffc9a760e01b14905083610805565b600435906001600160a01b038216820361013e57565b602435906001600160a01b038216820361013e57565b90601f8019910116810190811067ffffffffffffffff82111761086b57604052565b634e487b7160e01b5f52604160045260245ffd5b9190820180921161088c57565b634e487b7160e01b5f52601160045260245ffd5b335f9081527f4ffb062551029653461ccbf75b2f79c88d255df04d3a67abc9377d166127112960205260409020547f7434c6f201a551bfd17336985361933e0c4935b520dac8a49d937b325f7d5c0a9060ff16156108fb5750565b6044906040519063e2517d3f60e01b82523360048301526024820152fd5b805f525f60205260405f20335f5260205260ff60405f205416156108fb5750565b90815f525f60205260405f209060018060a01b031690815f5260205260ff60405f205416155f146109b057815f525f60205260405f20815f5260205260405f20600160ff1982541617905533917f2f8788117e7eff1d82e926ec794901d17c78024a50270940304540a733656f0d5f80a4600190565b50505f90565b7f9b779b17422d0df92223018b32b4d1fa46e071723d6817e2486d003becc55f0060028154146109e65760029055565b604051633ee5aeb560e01b8152600490fd5b90815f525f60205260405f209060018060a01b031690815f5260205260ff60405f2054165f146109b057815f525f60205260405f20815f5260205260405f2060ff19815416905533917ff6391f5c32d9c69d2a47ea670b442974b53935d1edc7fd64eb21e047a839171b5f80a460019056fea2646970667358221220f82fff80395a6b3cd24ac0f9fdf1ead01c922983d420407b8cb1790137ce188164736f6c634300081800332f8788117e7eff1d82e926ec794901d17c78024a50270940304540a733656f0dad3228b676f7d3cd4284a5443f17f1962b36e491b30a40b2405849e597ba5fb5","linkReferences":{}},"methodIdentifiers":{"DEFAULT_ADMIN_ROLE()":"a217fddf","SPENDER_ROLE()":"72c16a24","allocateETH(address,uint256)":"c9d72a4d","allocateToken(address,address,uint256)":"ad736751","claimETH()":"67272999","claimToken(address)":"32f289cf","ethBalance()":"4e6630b0","getRoleAdmin(bytes32)":"248a9ca3","grantRole(bytes32,address)":"2f2ff15d","hasRole(bytes32,address)":"91d14854","pendingETH(address)":"fc52910d","pendingTokens(address,address)":"097cd04f","renounceRole(bytes32,address)":"36568abe","revokeRole(bytes32,address)":"d547741f","supportsInterface(bytes4)":"01ffc9a7","tokenBalance(address)":"eedc966a"},"id":107}