{"abi":[{"type":"constructor","inputs":[{"name":"_token","type":"address","internalType":"contract IVotes"},{"name":"_timelock","type":"address","internalType":"contract TimelockController"}],"stateMutability":"nonpayable"},{"type":"receive","stateMutability":"payable"},{"type":"function","name":"BALLOT_TYPEHASH","inputs":[],"outputs":[{"name":"","type":"bytes32","internalType":"bytes32"}],"stateMutability":"view"},{"type":"function","name":"CLOCK_MODE","inputs":[],"outputs":[{"name":"","type":"string","internalType":"string"}],"stateMutability":"view"},{"type":"function","name":"COUNTING_MODE","inputs":[],"outputs":[{"name":"","type":"string","internalType":"string"}],"stateMutability":"pure"},{"type":"function","name":"EXTENDED_BALLOT_TYPEHASH","inputs":[],"outputs":[{"name":"","type":"bytes32","internalType":"bytes32"}],"stateMutability":"view"},{"type":"function","name":"cancel","inputs":[{"name":"targets","type":"address[]","internalType":"address[]"},{"name":"values","type":"uint256[]","internalType":"uint256[]"},{"name":"calldatas","type":"bytes[]","internalType":"bytes[]"},{"name":"descriptionHash","type":"bytes32","internalType":"bytes32"}],"outputs":[{"name":"","type":"uint256","internalType":"uint256"}],"stateMutability":"nonpayable"},{"type":"function","name":"castVote","inputs":[{"name":"proposalId","type":"uint256","internalType":"uint256"},{"name":"support","type":"uint8","internalType":"uint8"}],"outputs":[{"name":"","type":"uint256","internalType":"uint256"}],"stateMutability":"nonpayable"},{"type":"function","name":"castVoteBySig","inputs":[{"name":"proposalId","type":"uint256","internalType":"uint256"},{"name":"support","type":"uint8","internalType":"uint8"},{"name":"voter","type":"address","internalType":"address"},{"name":"signature","type":"bytes","internalType":"bytes"}],"outputs":[{"name":"","type":"uint256","internalType":"uint256"}],"stateMutability":"nonpayable"},{"type":"function","name":"castVoteWithReason","inputs":[{"name":"proposalId","type":"uint256","internalType":"uint256"},{"name":"support","type":"uint8","internalType":"uint8"},{"name":"reason","type":"string","internalType":"string"}],"outputs":[{"name":"","type":"uint256","internalType":"uint256"}],"stateMutability":"nonpayable"},{"type":"function","name":"castVoteWithReasonAndParams","inputs":[{"name":"proposalId","type":"uint256","internalType":"uint256"},{"name":"support","type":"uint8","internalType":"uint8"},{"name":"reason","type":"string","internalType":"string"},{"name":"params","type":"bytes","internalType":"bytes"}],"outputs":[{"name":"","type":"uint256","internalType":"uint256"}],"stateMutability":"nonpayable"},{"type":"function","name":"castVoteWithReasonAndParamsBySig","inputs":[{"name":"proposalId","type":"uint256","internalType":"uint256"},{"name":"support","type":"uint8","internalType":"uint8"},{"name":"voter","type":"address","internalType":"address"},{"name":"reason","type":"string","internalType":"string"},{"name":"params","type":"bytes","internalType":"bytes"},{"name":"signature","type":"bytes","internalType":"bytes"}],"outputs":[{"name":"","type":"uint256","internalType":"uint256"}],"stateMutability":"nonpayable"},{"type":"function","name":"clock","inputs":[],"outputs":[{"name":"","type":"uint48","internalType":"uint48"}],"stateMutability":"view"},{"type":"function","name":"eip712Domain","inputs":[],"outputs":[{"name":"fields","type":"bytes1","internalType":"bytes1"},{"name":"name","type":"string","internalType":"string"},{"name":"version","type":"string","internalType":"string"},{"name":"chainId","type":"uint256","internalType":"uint256"},{"name":"verifyingContract","type":"address","internalType":"address"},{"name":"salt","type":"bytes32","internalType":"bytes32"},{"name":"extensions","type":"uint256[]","internalType":"uint256[]"}],"stateMutability":"view"},{"type":"function","name":"execute","inputs":[{"name":"targets","type":"address[]","internalType":"address[]"},{"name":"values","type":"uint256[]","internalType":"uint256[]"},{"name":"calldatas","type":"bytes[]","internalType":"bytes[]"},{"name":"descriptionHash","type":"bytes32","internalType":"bytes32"}],"outputs":[{"name":"","type":"uint256","internalType":"uint256"}],"stateMutability":"payable"},{"type":"function","name":"getProposalId","inputs":[{"name":"targets","type":"address[]","internalType":"address[]"},{"name":"values","type":"uint256[]","internalType":"uint256[]"},{"name":"calldatas","type":"bytes[]","internalType":"bytes[]"},{"name":"descriptionHash","type":"bytes32","internalType":"bytes32"}],"outputs":[{"name":"","type":"uint256","internalType":"uint256"}],"stateMutability":"view"},{"type":"function","name":"getVotes","inputs":[{"name":"account","type":"address","internalType":"address"},{"name":"timepoint","type":"uint256","internalType":"uint256"}],"outputs":[{"name":"","type":"uint256","internalType":"uint256"}],"stateMutability":"view"},{"type":"function","name":"getVotesWithParams","inputs":[{"name":"account","type":"address","internalType":"address"},{"name":"timepoint","type":"uint256","internalType":"uint256"},{"name":"params","type":"bytes","internalType":"bytes"}],"outputs":[{"name":"","type":"uint256","internalType":"uint256"}],"stateMutability":"view"},{"type":"function","name":"hasVoted","inputs":[{"name":"proposalId","type":"uint256","internalType":"uint256"},{"name":"account","type":"address","internalType":"address"}],"outputs":[{"name":"","type":"bool","internalType":"bool"}],"stateMutability":"view"},{"type":"function","name":"hashProposal","inputs":[{"name":"targets","type":"address[]","internalType":"address[]"},{"name":"values","type":"uint256[]","internalType":"uint256[]"},{"name":"calldatas","type":"bytes[]","internalType":"bytes[]"},{"name":"descriptionHash","type":"bytes32","internalType":"bytes32"}],"outputs":[{"name":"","type":"uint256","internalType":"uint256"}],"stateMutability":"pure"},{"type":"function","name":"name","inputs":[],"outputs":[{"name":"","type":"string","internalType":"string"}],"stateMutability":"view"},{"type":"function","name":"nonces","inputs":[{"name":"owner","type":"address","internalType":"address"}],"outputs":[{"name":"","type":"uint256","internalType":"uint256"}],"stateMutability":"view"},{"type":"function","name":"onERC1155BatchReceived","inputs":[{"name":"","type":"address","internalType":"address"},{"name":"","type":"address","internalType":"address"},{"name":"","type":"uint256[]","internalType":"uint256[]"},{"name":"","type":"uint256[]","internalType":"uint256[]"},{"name":"","type":"bytes","internalType":"bytes"}],"outputs":[{"name":"","type":"bytes4","internalType":"bytes4"}],"stateMutability":"nonpayable"},{"type":"function","name":"onERC1155Received","inputs":[{"name":"","type":"address","internalType":"address"},{"name":"","type":"address","internalType":"address"},{"name":"","type":"uint256","internalType":"uint256"},{"name":"","type":"uint256","internalType":"uint256"},{"name":"","type":"bytes","internalType":"bytes"}],"outputs":[{"name":"","type":"bytes4","internalType":"bytes4"}],"stateMutability":"nonpayable"},{"type":"function","name":"onERC721Received","inputs":[{"name":"","type":"address","internalType":"address"},{"name":"","type":"address","internalType":"address"},{"name":"","type":"uint256","internalType":"uint256"},{"name":"","type":"bytes","internalType":"bytes"}],"outputs":[{"name":"","type":"bytes4","internalType":"bytes4"}],"stateMutability":"nonpayable"},{"type":"function","name":"proposalDeadline","inputs":[{"name":"proposalId","type":"uint256","internalType":"uint256"}],"outputs":[{"name":"","type":"uint256","internalType":"uint256"}],"stateMutability":"view"},{"type":"function","name":"proposalEta","inputs":[{"name":"proposalId","type":"uint256","internalType":"uint256"}],"outputs":[{"name":"","type":"uint256","internalType":"uint256"}],"stateMutability":"view"},{"type":"function","name":"proposalNeedsQueuing","inputs":[{"name":"proposalId","type":"uint256","internalType":"uint256"}],"outputs":[{"name":"","type":"bool","internalType":"bool"}],"stateMutability":"view"},{"type":"function","name":"proposalProposer","inputs":[{"name":"proposalId","type":"uint256","internalType":"uint256"}],"outputs":[{"name":"","type":"address","internalType":"address"}],"stateMutability":"view"},{"type":"function","name":"proposalSnapshot","inputs":[{"name":"proposalId","type":"uint256","internalType":"uint256"}],"outputs":[{"name":"","type":"uint256","internalType":"uint256"}],"stateMutability":"view"},{"type":"function","name":"proposalThreshold","inputs":[],"outputs":[{"name":"","type":"uint256","internalType":"uint256"}],"stateMutability":"view"},{"type":"function","name":"proposalVotes","inputs":[{"name":"proposalId","type":"uint256","internalType":"uint256"}],"outputs":[{"name":"againstVotes","type":"uint256","internalType":"uint256"},{"name":"forVotes","type":"uint256","internalType":"uint256"},{"name":"abstainVotes","type":"uint256","internalType":"uint256"}],"stateMutability":"view"},{"type":"function","name":"propose","inputs":[{"name":"targets","type":"address[]","internalType":"address[]"},{"name":"values","type":"uint256[]","internalType":"uint256[]"},{"name":"calldatas","type":"bytes[]","internalType":"bytes[]"},{"name":"description","type":"string","internalType":"string"}],"outputs":[{"name":"","type":"uint256","internalType":"uint256"}],"stateMutability":"nonpayable"},{"type":"function","name":"queue","inputs":[{"name":"targets","type":"address[]","internalType":"address[]"},{"name":"values","type":"uint256[]","internalType":"uint256[]"},{"name":"calldatas","type":"bytes[]","internalType":"bytes[]"},{"name":"descriptionHash","type":"bytes32","internalType":"bytes32"}],"outputs":[{"name":"","type":"uint256","internalType":"uint256"}],"stateMutability":"nonpayable"},{"type":"function","name":"quorum","inputs":[{"name":"blockNumber","type":"uint256","internalType":"uint256"}],"outputs":[{"name":"","type":"uint256","internalType":"uint256"}],"stateMutability":"view"},{"type":"function","name":"quorumDenominator","inputs":[],"outputs":[{"name":"","type":"uint256","internalType":"uint256"}],"stateMutability":"view"},{"type":"function","name":"quorumNumerator","inputs":[{"name":"timepoint","type":"uint256","internalType":"uint256"}],"outputs":[{"name":"","type":"uint256","internalType":"uint256"}],"stateMutability":"view"},{"type":"function","name":"quorumNumerator","inputs":[],"outputs":[{"name":"","type":"uint256","internalType":"uint256"}],"stateMutability":"view"},{"type":"function","name":"relay","inputs":[{"name":"target","type":"address","internalType":"address"},{"name":"value","type":"uint256","internalType":"uint256"},{"name":"data","type":"bytes","internalType":"bytes"}],"outputs":[],"stateMutability":"payable"},{"type":"function","name":"setProposalThreshold","inputs":[{"name":"newProposalThreshold","type":"uint256","internalType":"uint256"}],"outputs":[],"stateMutability":"nonpayable"},{"type":"function","name":"setVotingDelay","inputs":[{"name":"newVotingDelay","type":"uint48","internalType":"uint48"}],"outputs":[],"stateMutability":"nonpayable"},{"type":"function","name":"setVotingPeriod","inputs":[{"name":"newVotingPeriod","type":"uint32","internalType":"uint32"}],"outputs":[],"stateMutability":"nonpayable"},{"type":"function","name":"state","inputs":[{"name":"proposalId","type":"uint256","internalType":"uint256"}],"outputs":[{"name":"","type":"uint8","internalType":"enum IGovernor.ProposalState"}],"stateMutability":"view"},{"type":"function","name":"supportsInterface","inputs":[{"name":"interfaceId","type":"bytes4","internalType":"bytes4"}],"outputs":[{"name":"","type":"bool","internalType":"bool"}],"stateMutability":"view"},{"type":"function","name":"timelock","inputs":[],"outputs":[{"name":"","type":"address","internalType":"address"}],"stateMutability":"view"},{"type":"function","name":"token","inputs":[],"outputs":[{"name":"","type":"address","internalType":"contract IERC5805"}],"stateMutability":"view"},{"type":"function","name":"updateQuorumNumerator","inputs":[{"name":"newQuorumNumerator","type":"uint256","internalType":"uint256"}],"outputs":[],"stateMutability":"nonpayable"},{"type":"function","name":"updateTimelock","inputs":[{"name":"newTimelock","type":"address","internalType":"contract TimelockController"}],"outputs":[],"stateMutability":"nonpayable"},{"type":"function","name":"version","inputs":[],"outputs":[{"name":"","type":"string","internalType":"string"}],"stateMutability":"view"},{"type":"function","name":"votingDelay","inputs":[],"outputs":[{"name":"","type":"uint256","internalType":"uint256"}],"stateMutability":"view"},{"type":"function","name":"votingPeriod","inputs":[],"outputs":[{"name":"","type":"uint256","internalType":"uint256"}],"stateMutability":"view"},{"type":"event","name":"EIP712DomainChanged","inputs":[],"anonymous":false},{"type":"event","name":"ProposalCanceled","inputs":[{"name":"proposalId","type":"uint256","indexed":false,"internalType":"uint256"}],"anonymous":false},{"type":"event","name":"ProposalCreated","inputs":[{"name":"proposalId","type":"uint256","indexed":false,"internalType":"uint256"},{"name":"proposer","type":"address","indexed":false,"internalType":"address"},{"name":"targets","type":"address[]","indexed":false,"internalType":"address[]"},{"name":"values","type":"uint256[]","indexed":false,"internalType":"uint256[]"},{"name":"signatures","type":"string[]","indexed":false,"internalType":"string[]"},{"name":"calldatas","type":"bytes[]","indexed":false,"internalType":"bytes[]"},{"name":"voteStart","type":"uint256","indexed":false,"internalType":"uint256"},{"name":"voteEnd","type":"uint256","indexed":false,"internalType":"uint256"},{"name":"description","type":"string","indexed":false,"internalType":"string"}],"anonymous":false},{"type":"event","name":"ProposalExecuted","inputs":[{"name":"proposalId","type":"uint256","indexed":false,"internalType":"uint256"}],"anonymous":false},{"type":"event","name":"ProposalQueued","inputs":[{"name":"proposalId","type":"uint256","indexed":false,"internalType":"uint256"},{"name":"etaSeconds","type":"uint256","indexed":false,"internalType":"uint256"}],"anonymous":false},{"type":"event","name":"ProposalThresholdSet","inputs":[{"name":"oldProposalThreshold","type":"uint256","indexed":false,"internalType":"uint256"},{"name":"newProposalThreshold","type":"uint256","indexed":false,"internalType":"uint256"}],"anonymous":false},{"type":"event","name":"QuorumNumeratorUpdated","inputs":[{"name":"oldQuorumNumerator","type":"uint256","indexed":false,"internalType":"uint256"},{"name":"newQuorumNumerator","type":"uint256","indexed":false,"internalType":"uint256"}],"anonymous":false},{"type":"event","name":"TimelockChange","inputs":[{"name":"oldTimelock","type":"address","indexed":false,"internalType":"address"},{"name":"newTimelock","type":"address","indexed":false,"internalType":"address"}],"anonymous":false},{"type":"event","name":"VoteCast","inputs":[{"name":"voter","type":"address","indexed":true,"internalType":"address"},{"name":"proposalId","type":"uint256","indexed":false,"internalType":"uint256"},{"name":"support","type":"uint8","indexed":false,"internalType":"uint8"},{"name":"weight","type":"uint256","indexed":false,"internalType":"uint256"},{"name":"reason","type":"string","indexed":false,"internalType":"string"}],"anonymous":false},{"type":"event","name":"VoteCastWithParams","inputs":[{"name":"voter","type":"address","indexed":true,"internalType":"address"},{"name":"proposalId","type":"uint256","indexed":false,"internalType":"uint256"},{"name":"support","type":"uint8","indexed":false,"internalType":"uint8"},{"name":"weight","type":"uint256","indexed":false,"internalType":"uint256"},{"name":"reason","type":"string","indexed":false,"internalType":"string"},{"name":"params","type":"bytes","indexed":false,"internalType":"bytes"}],"anonymous":false},{"type":"event","name":"VotingDelaySet","inputs":[{"name":"oldVotingDelay","type":"uint256","indexed":false,"internalType":"uint256"},{"name":"newVotingDelay","type":"uint256","indexed":false,"internalType":"uint256"}],"anonymous":false},{"type":"event","name":"VotingPeriodSet","inputs":[{"name":"oldVotingPeriod","type":"uint256","indexed":false,"internalType":"uint256"},{"name":"newVotingPeriod","type":"uint256","indexed":false,"internalType":"uint256"}],"anonymous":false},{"type":"error","name":"CheckpointUnorderedInsertion","inputs":[]},{"type":"error","name":"FailedCall","inputs":[]},{"type":"error","name":"GovernorAlreadyCastVote","inputs":[{"name":"voter","type":"address","internalType":"address"}]},{"type":"error","name":"GovernorAlreadyQueuedProposal","inputs":[{"name":"proposalId","type":"uint256","internalType":"uint256"}]},{"type":"error","name":"GovernorDisabledDeposit","inputs":[]},{"type":"error","name":"GovernorInsufficientProposerVotes","inputs":[{"name":"proposer","type":"address","internalType":"address"},{"name":"votes","type":"uint256","internalType":"uint256"},{"name":"threshold","type":"uint256","internalType":"uint256"}]},{"type":"error","name":"GovernorInvalidProposalLength","inputs":[{"name":"targets","type":"uint256","internalType":"uint256"},{"name":"calldatas","type":"uint256","internalType":"uint256"},{"name":"values","type":"uint256","internalType":"uint256"}]},{"type":"error","name":"GovernorInvalidQuorumFraction","inputs":[{"name":"quorumNumerator","type":"uint256","internalType":"uint256"},{"name":"quorumDenominator","type":"uint256","internalType":"uint256"}]},{"type":"error","name":"GovernorInvalidSignature","inputs":[{"name":"voter","type":"address","internalType":"address"}]},{"type":"error","name":"GovernorInvalidVoteParams","inputs":[]},{"type":"error","name":"GovernorInvalidVoteType","inputs":[]},{"type":"error","name":"GovernorInvalidVotingPeriod","inputs":[{"name":"votingPeriod","type":"uint256","internalType":"uint256"}]},{"type":"error","name":"GovernorNonexistentProposal","inputs":[{"name":"proposalId","type":"uint256","internalType":"uint256"}]},{"type":"error","name":"GovernorNotQueuedProposal","inputs":[{"name":"proposalId","type":"uint256","internalType":"uint256"}]},{"type":"error","name":"GovernorOnlyExecutor","inputs":[{"name":"account","type":"address","internalType":"address"}]},{"type":"error","name":"GovernorQueueNotImplemented","inputs":[]},{"type":"error","name":"GovernorRestrictedProposer","inputs":[{"name":"proposer","type":"address","internalType":"address"}]},{"type":"error","name":"GovernorUnableToCancel","inputs":[{"name":"proposalId","type":"uint256","internalType":"uint256"},{"name":"account","type":"address","internalType":"address"}]},{"type":"error","name":"GovernorUnexpectedProposalState","inputs":[{"name":"proposalId","type":"uint256","internalType":"uint256"},{"name":"current","type":"uint8","internalType":"enum IGovernor.ProposalState"},{"name":"expectedStates","type":"bytes32","internalType":"bytes32"}]},{"type":"error","name":"InvalidAccountNonce","inputs":[{"name":"account","type":"address","internalType":"address"},{"name":"currentNonce","type":"uint256","internalType":"uint256"}]},{"type":"error","name":"InvalidShortString","inputs":[]},{"type":"error","name":"SafeCastOverflowedUintDowncast","inputs":[{"name":"bits","type":"uint8","internalType":"uint8"},{"name":"value","type":"uint256","internalType":"uint256"}]},{"type":"error","name":"StringTooLong","inputs":[{"name":"str","type":"string","internalType":"string"}]}],"bytecode":{"object":"0x61018060405234620000bb57620000206200001962000158565b90620001cc565b604051613c02908162000b89823960805181613774015260a05181613829015260c0518161373e015260e051816137c3015261010051816137e901526101205181611375015261014051816113a10152610160518181816115ee01528181611a8801528181611bbc01528181611c4501528181611d4301528181611f7f0152818161203d0152818161211e01528181612b5801526136e50152f35b5f80fd5b634e487b7160e01b5f52604160045260245ffd5b604081019081106001600160401b03821117620000ef57604052565b620000bf565b60c081019081106001600160401b03821117620000ef57604052565b601f909101601f19168101906001600160401b03821190821017620000ef57604052565b604051906200014482620000d3565b565b6001600160a01b03811603620000bb57565b620047cb9060408238039283825194859262000175828562000111565b833981010312620000bb576020825192620001908462000146565b0151916200019e8362000146565b9190565b60405190620001b182620000d3565b600c8252565b60405190620001c682620000d3565b60018252565b906200014491620002a1620001e0620001a2565b602081016b2232a334a3b7bb32b93737b960a11b815262000200620001b7565b906020820190603160f81b82526200021884620006da565b610120526200022783620007e0565b6101405283519020918260e05251902080610100524660a0526040519060208201927f8b73c3c69bb8fe3d512ecc4cf759cc79239f7b179b0ffacaa9a75d522b39400f8452604083015260608201524660808201523060a082015260a081526200029181620000f5565b5190206080523060c05262000419565b620002ab620005fd565b620002b56200064c565b620002bf620006a2565b6001600160a01b031661016052620002d66200055e565b6200050f565b90600182811c921680156200030c575b6020831014620002f857565b634e487b7160e01b5f52602260045260245ffd5b91607f1691620002ec565b601f811162000324575050565b60035f5260205f20906020601f840160051c8301931062000361575b601f0160051c01905b81811062000355575050565b5f815560010162000349565b909150819062000340565b601f811162000379575050565b5f805260205f20906020601f840160051c83019310620003b5575b601f0160051c01905b818110620003a9575050565b5f81556001016200039d565b909150819062000394565b90601f8211620003ce575050565b60019160015f5260205f20906020601f840160051c830193106200040e575b601f0160051c01905b8181106200040357505050565b5f81558201620003f6565b9091508190620003ed565b80519091906001600160401b038111620000ef5762000445816200043f600354620002dc565b62000317565b602080601f83116001146200048a575081906200047993945f926200047e575b50508160011b915f199060031b1c19161790565b600355565b015190505f8062000465565b60035f52601f198316949091907fc2575a0e9e593c00f959f8c92f12db2869c3395a3b0502d05e2516446f71f85b925f905b878210620004f6575050836001959610620004dd575b505050811b01600355565b01515f1960f88460031b161c191690555f8080620004d2565b80600185968294968601518155019501930190620004bc565b600b547f08f74ea46ef7894f65eabfb5e6e695de773a000b47c529ab559178069b226401604060018060a01b038094169381519084168152846020820152a16001600160a01b03191617600b55565b600a5480620005aa57505f80516020620047ab83398151915260405f5b6200058f62000589620008e8565b62000a85565b505081516001600160d01b03909116815260046020820152a1565b5f19908082810111620005e957600a5f52015f805160206200478b83398151915201545f80516020620047ab8339815191529060409060301c6200057b565b634e487b7160e01b5f52601160045260245ffd5b6008546040519065ffffffffffff811682527fc565b045403dc03c2eea82b81a0465edad9e2e7fc4d97e11421c209da93d7a936040611c2093846020820152a165ffffffffffff191617600855565b67c4e00000000000006008547f7e3f7f0708a84de9203036abaa450dccc85ad5ff52f78c170f3edb55cf5e88286040805163ffffffff8460301c16815261c4e06020820152a163ffffffff60301b191617600855565b7fccb45da8d5717e6c4544694297c4ba5cf151d455c9bb0ed4fc7a38411bc05461604060075481519081525f6020820152a15f600755565b90815160208082105f14620006fa57505090620006f79062000997565b90565b6001600160401b038211620000ef5762000720826200071a5f54620002dc565b6200036c565b602090601f83116001146200075a575081906200075393945f926200047e5750508160011b915f199060031b1c19161790565b5f5560ff90565b5f8052601f198316949091907f290decd9548b62a8d60345a988386fc84ba6bc95484008f6362f93160ef3e563925f905b878210620007c7575050836001959610620007ae575b505050811b015f5560ff90565b01515f1960f88460031b161c191690555f8080620007a1565b806001859682949686015181550195019301906200078b565b908151602090602081105f14620007ff57505090620006f79062000997565b6001600160401b038111620000ef576001916200082882620008228554620002dc565b620003c0565b602090601f831160011462000863575081906200085c9394955f926200047e5750508160011b915f199060031b1c19161790565b905560ff90565b60015f52601f198316959091907fb10e2d527612073b26eecdfd717e6a320cf44b4afac2b0732d9fcbe2b7fa0cf6925f905b888210620008d05750508385969710620008b7575b505050811b01905560ff90565b01515f1960f88460031b161c191690555f8080620008aa565b80878596829496860151815501950193019062000895565b610160516040516324776b7d60e21b815290602090829060049082906001600160a01b03165afa5f91816200092a575b50620006f75750620006f74362000b55565b9091506020813d6020116200096b575b81620009496020938362000111565b81010312620000bb575165ffffffffffff81168103620000bb57905f62000918565b3d91506200093a565b60208151910151906020811062000989575090565b5f199060200360031b1b1690565b601f815111620009b257620009ac8162000974565b90511790565b6040519063305a27a960e01b82528160208060048301528251908160248401525f935b828510620009f8575050604492505f838284010152601f80199101168101030190fd5b8481018201518686016044015293810193859350620009d5565b5f19810191908211620005e957565b600a5468010000000000000000811015620000ef576001810180600a5581101562000a7157600a5f5260205f20019065ffffffffffff81511690602065ffffffffffff1991015160301b16179055565b634e487b7160e01b5f52603260045260245ffd5b600a54801562000b3a5762000a9e62000ab59162000a12565b600a5f525f805160206200478b8339815191520190565b80549165ffffffffffff80821690841681811162000b28570362000af35750805465ffffffffffff1666040000000000001790555b60301c90600490565b62000b22915062000b1562000b0762000135565b65ffffffffffff9092168252565b6004602082015262000a21565b62000aea565b604051632520601d60e01b8152600490fd5b5062000b4e9062000b1562000b0762000135565b5f90600490565b65ffffffffffff9081811162000b69571690565b604490604051906306dfcc6560e41b8252603060048301526024820152fdfe60806040526004361015610022575b3615610018575f80fd5b6100206122c2565b005b5f3560e01c806301ffc9a71461032c57806302a251a31461032757806306f3f9e61461032257806306fdde031461031d578063143489d014610318578063150b7a0214610313578063160cbed71461030e5780632656227d146103095780632d63f693146103045780632fe3e261146102ff5780633932abb1146102fa5780633e4f49e6146102f557806343859632146102f0578063452115d6146102eb5780634bf5d7e9146102e6578063544ffc9c146102e157806354fd4d50146102dc57806356781388146102d75780635b8d0e0d146102d25780635f398a14146102cd57806360c4247f146102c857806379051887146102c35780637b3c71d3146102be5780637d5e81e2146102b95780637ecebe00146102b457806384b0196e146102af5780638ff262e3146102aa57806391ddadf4146102a557806397c3d334146102a05780639a802a6d1461029b578063a7713a7014610296578063a890c91014610291578063a8f8a6681461026e578063a9a952941461028c578063ab58fb8e14610287578063b58131b014610282578063bc197c811461027d578063c01f9e3714610278578063c28bc2fa14610273578063c59057e41461026e578063d33219b414610269578063dd4e2ba514610264578063deaaa7cc1461025f578063e540d01d1461025a578063eb9019d414610255578063ece40cc114610250578063f23a6e611461024b578063f8ce560a146102465763fc0c546a0361000e57611c30565b611b8b565b611b20565b611acb565b611a2d565b611986565b61194c565b6118ef565b6118c7565b6116f0565b611835565b611817565b611777565b61175d565b611728565b61170c565b61167c565b611651565b611580565b611565565b61153b565b611424565b61135d565b6112ef565b611256565b611201565b61118f565b611161565b6110f2565b61106a565b610fef565b610f9e565b610f53565b610f24565b610e88565b610e33565b610e06565b610db1565b610d77565b610d42565b610be2565b61099f565b610760565b6105e8565b610508565b6103e6565b6103c0565b346103b25760203660031901126103b25760043563ffffffff60e01b81168091036103b2576020906366defe7760e11b81149081156103a1575b8115610390575b811561037f575b506040519015158152f35b6301ffc9a760e01b1490505f610374565b630271189760e51b8114915061036d565b6332a2ad4360e11b81149150610366565b5f80fd5b5f9103126103b257565b346103b2575f3660031901126103b257602063ffffffff60085460301c16604051908152f35b346103b25760203660031901126103b2576004356104026122d6565b6064811161048f576001600160d01b03908161041c612ba4565b16610425612028565b9280831161046f577f0553476bf02ef2726e8ce5ced78d63e26e602e4a2257b1f559418e24b46339979361045b918416906135d3565b5050604080519182526020820192909252a1005b6040516306dfcc6560e41b815260d0600482015260248101849052604490fd5b6044906040519063243e544560e01b8252600482015260646024820152fd5b5f5b8381106104bf5750505f910152565b81810151838201526020016104b0565b906020916104e8815180928185528580860191016104ae565b601f01601f1916010190565b9060206105059281815201906104cf565b90565b346103b2575f3660031901126103b2576040515f60035461052881611c74565b808452906020906001908181169081156105be5750600114610565575b61056185610555818703826106c4565b604051918291826104f4565b0390f35b60035f90815293507fc2575a0e9e593c00f959f8c92f12db2869c3395a3b0502d05e2516446f71f85b5b8385106105ab5750505050810160200161055582610561610545565b805486860184015293820193810161058f565b8695506105619693506020925061055594915060ff191682840152151560051b8201019293610545565b346103b25760203660031901126103b2576004355f526004602052602060018060a01b0360405f205416604051908152f35b6001600160a01b038116036103b257565b634e487b7160e01b5f52604160045260245ffd5b6001600160401b03811161065257604052565b61062b565b604081019081106001600160401b0382111761065257604052565b602081019081106001600160401b0382111761065257604052565b60c081019081106001600160401b0382111761065257604052565b61010081019081106001600160401b0382111761065257604052565b90601f801991011681019081106001600160401b0382111761065257604052565b604051906106f282610657565b565b6001600160401b03811161065257601f01601f191660200190565b92919261071b826106f4565b9161072960405193846106c4565b8294818452818301116103b2578281602093845f960137010152565b9080601f830112156103b2578160206105059335910161070f565b346103b25760803660031901126103b25761077c60043561061a565b61078760243561061a565b6064356001600160401b0381116103b2576107a6903690600401610745565b50600b546001600160a01b031630036107cb57604051630a85bd0160e11b8152602090f35b604051637485328f60e11b8152600490fd5b6001600160401b0381116106525760051b60200190565b9080601f830112156103b257602090823561080e816107dd565b9361081c60405195866106c4565b81855260208086019260051b8201019283116103b257602001905b828210610845575050505090565b83809183356108538161061a565b815201910190610837565b9080601f830112156103b2576020908235610878816107dd565b9361088660405195866106c4565b81855260208086019260051b8201019283116103b257602001905b8282106108af575050505090565b813581529083019083016108a1565b81601f820112156103b2578035916020916108d8846107dd565b936108e660405195866106c4565b808552838086019160051b830101928084116103b257848301915b8483106109115750505050505090565b82356001600160401b0381116103b257869161093284848094890101610745565b815201920191610901565b60806003198201126103b2576001600160401b03916004358381116103b25782610969916004016107f4565b926024358181116103b257836109819160040161085e565b926044359182116103b257610998916004016108be565b9060643590565b346103b2576109ad3661093d565b6109bb81838587969761225e565b926109c584612367565b50600b546109e3906001600160a01b03165b6001600160a01b031690565b9260409586519363793d064960e11b855260209081866004818a5afa958615610b91575f96610bc3575b506bffffffffffffffffffffffff193060601b161895818951809263b1c5f42760e01b82528180610a448c8a8a8d60048601612c34565b03915afa918215610b91575f92610b96575b5050610a6a875f52600c60205260405f2090565b55600b54610a80906001600160a01b03166109d7565b90813b156103b2575f8094610aab878b51998a97889687956308f2a0bb60e41b875260048701612c79565b03925af1908115610b9157610acf92610aca92610b78575b5042612841565b6131b6565b65ffffffffffff811615610b6757917f9a2e42fd6722813d69113e7d0079d3d940171428df7373df9c7f7617cfda2892610b5684610b38610561966001610b1e885f52600460205260405f2090565b019065ffffffffffff1665ffffffffffff19825416179055565b835185815265ffffffffffff90911660208201529081906040820190565b0390a1519081529081906020820190565b8251634844252360e11b8152600490fd5b80610b85610b8b9261063f565b806103b6565b5f610ac3565b611cd9565b610bb59250803d10610bbc575b610bad81836106c4565b8101906120c9565b5f80610a56565b503d610ba3565b610bdb919650823d8411610bbc57610bad81836106c4565b945f610a0d565b610beb3661093d565b610bf981838587959761225e565b92610c03846123b9565b50610c2c610c19855f52600460205260405f2090565b805460ff60f01b1916600160f01b179055565b600b546001600160a01b03939084163003610cdd575b94610c5292916105619686612d17565b600b543091166001600160a01b0316141580610cb8575b610caa575b6040518181527f712ae1383f79ac853f8d882153778e0260ef8f03b504e2866e0593e04d2b291f90602090a16040519081529081906020820190565b610cb35f600555565b610c6e565b50610cd8610cd46005546001600160801b0381169060801c1490565b1590565b610c69565b929093915f5b8451811015610d385760019030610d0d6109d7610d00848a611cc0565b516001600160a01b031690565b14610d19575b01610ce3565b610d33610d26828a611cc0565b516020815191012061240b565b610d13565b5091939092610c42565b346103b25760203660031901126103b2576004355f526004602052602065ffffffffffff60405f205460a01c16604051908152f35b346103b2575f3660031901126103b25760206040517f3e83946653575f9a39005e1545185629e92736b7528ab20ca3816f315424a8118152f35b346103b2575f3660031901126103b257602065ffffffffffff60085416604051908152f35b634e487b7160e01b5f52602160045260245ffd5b60081115610df457565b610dd6565b906008821015610df45752565b346103b25760203660031901126103b2576020610e24600435612445565b610e316040518092610df9565bf35b346103b25760403660031901126103b257602060ff610e7c602435610e578161061a565b6004355f5260098452600360405f20019060018060a01b03165f5260205260405f2090565b54166040519015158152f35b346103b257610e963661093d565b92610ea68483858496959661225e565b610eaf81612445565b6008811015610df4571580610f07575b15610ee357610561610ed386868686612eaa565b6040519081529081906020820190565b604051638fe5d8a960e01b81526004810191909152336024820152604490fd5b0390fd5b50805f52600460205260018060a01b0360405f2054163314610ebf565b346103b2575f3660031901126103b257610561610f3f611d2f565b6040519182916020835260208301906104cf565b346103b25760203660031901126103b2576004355f52600960205260405f20805461056160026001840154930154604051938493846040919493926060820195825260208201520152565b346103b2575f3660031901126103b257610561604051610fbd81610657565b60018152603160f81b60208201526040519182916020835260208301906104cf565b6024359060ff821682036103b257565b346103b25760403660031901126103b257602061103561100d610fdf565b60405161101981610672565b5f81526040519161102983610672565b5f8352336004356125ce565b604051908152f35b9181601f840112156103b2578235916001600160401b0383116103b257602083818601950101116103b257565b346103b25760c03660031901126103b257611083610fdf565b604435906110908261061a565b6001600160401b03906064358281116103b2576110b190369060040161103d565b6084358481116103b2576110c9903690600401610745565b9160a4359485116103b257610561956110e9610ed3963690600401610745565b94600435611dfd565b346103b25760803660031901126103b25761110b610fdf565b6001600160401b03906044358281116103b25761112c90369060040161103d565b90916064359384116103b2576111576110359361114f6020963690600401610745565b93369161070f565b90336004356125ce565b346103b25760203660031901126103b25760206110356004356126ea565b65ffffffffffff8116036103b257565b346103b25760203660031901126103b2576004356111ac8161117f565b6111b46122d6565b6008547fc565b045403dc03c2eea82b81a0465edad9e2e7fc4d97e11421c209da93d7a93604065ffffffffffff81519481851686521693846020820152a165ffffffffffff191617600855005b346103b25760603660031901126103b25761121a610fdf565b6044356001600160401b0381116103b25760209161124961124261103593369060040161103d565b369161070f565b6040519161102983610672565b346103b25760803660031901126103b2576001600160401b036004358181116103b2576112879036906004016107f4565b906024358181116103b2576112a090369060040161085e565b916044358281116103b2576112b99036906004016108be565b6064359283116103b257366023840112156103b257610561936112e9610ed394369060248160040135910161070f565b92611f03565b346103b25760203660031901126103b25760043561130c8161061a565b60018060a01b03165f526002602052602060405f2054604051908152f35b9081518082526020808093019301915f5b828110611349575050505090565b83518552938101939281019260010161133b565b346103b2575f3660031901126103b2576113f66113997f00000000000000000000000000000000000000000000000000000000000000006132d4565b6105616113c57f00000000000000000000000000000000000000000000000000000000000000006133d1565b611404604051916113d583610672565b5f8352604051958695600f60f81b875260e0602088015260e08701906104cf565b9085820360408701526104cf565b904660608501523060808501525f60a085015283820360c085015261132a565b346103b25760803660031901126103b257600435611440610fdf565b906044359161144e8361061a565b6064356001600160401b0381116103b257610cd46114736114ff923690600401610745565b6001600160a01b0386165f9081526002602052604090208054600181019091556114f99060405160208101917ff2aad550cf55f045cb27e9c559f9889fdfb6e6cdaa032301d6ea397784ae51d7835288604083015260ff8816606083015260018060a01b038a16608083015260a082015260a081526114f18161068d565b519020612fe5565b86613015565b61151a5790610ed39161056193611514611ce4565b92612553565b6040516394ab6c0760e01b81526001600160a01b0384166004820152602490fd5b346103b2575f3660031901126103b2576020611555612028565b65ffffffffffff60405191168152f35b346103b2575f3660031901126103b257602060405160648152f35b346103b25760603660031901126103b25760043561159d8161061a565b6044356001600160401b0381116103b2576044916115c16020923690600401610745565b50604051630748d63560e31b81526001600160a01b039182166004820152602480359082015292839182907f0000000000000000000000000000000000000000000000000000000000000000165afa8015610b9157610561915f91611632575b506040519081529081906020820190565b61164b915060203d602011610bbc57610bad81836106c4565b5f611621565b346103b2575f3660031901126103b25760206001600160d01b03611673612ba4565b16604051908152f35b346103b25760203660031901126103b2576004356116998161061a565b6116a16122d6565b600b547f08f74ea46ef7894f65eabfb5e6e695de773a000b47c529ab559178069b226401604060018060a01b038094169381519084168152846020820152a16001600160a01b03191617600b55005b346103b25760206110356117033661093d565b9291909161225e565b346103b25760203660031901126103b257602060405160018152f35b346103b25760203660031901126103b2576004355f526004602052602065ffffffffffff600160405f20015416604051908152f35b346103b2575f3660031901126103b25760206110356120f6565b346103b25760a03660031901126103b25761179360043561061a565b61179e60243561061a565b6001600160401b036044358181116103b2576117be90369060040161085e565b506064358181116103b2576117d790369060040161085e565b506084359081116103b2576117f0903690600401610745565b506105616117fc612179565b6040516001600160e01b031990911681529081906020820190565b346103b25760203660031901126103b2576020611035600435612196565b60603660031901126103b25760043561184d8161061a565b604435906001600160401b0382116103b2575f809161187361002094369060040161103d565b9061187c6122d6565b81604051928392833781018481520391602435905af13d156118bf573d906118a3826106f4565b916118b160405193846106c4565b82523d5f602084013e612be8565b606090612be8565b346103b2575f3660031901126103b257600b546040516001600160a01b039091168152602090f35b346103b2575f3660031901126103b25761056160405161190e81610657565b602081527f737570706f72743d627261766f2671756f72756d3d666f722c6162737461696e60208201526040519182916020835260208301906104cf565b346103b2575f3660031901126103b25760206040517ff2aad550cf55f045cb27e9c559f9889fdfb6e6cdaa032301d6ea397784ae51d78152f35b346103b25760203660031901126103b25760043563ffffffff808216918281036103b2576119b26122d6565b8215611a15577f7e3f7f0708a84de9203036abaa450dccc85ad5ff52f78c170f3edb55cf5e8828604069ffffffff00000000000093600854958251918760301c1682526020820152a160301b169069ffffffff0000000000001916176008555f80f35b60405163f1cfbf0560e01b81525f6004820152602490fd5b346103b25760403660031901126103b25760446020600435611a4e8161061a565b5f604051611a5b81610672565b52604051630748d63560e31b81526001600160a01b039182166004820152602480359082015292839182907f0000000000000000000000000000000000000000000000000000000000000000165afa8015610b9157610561915f9161163257506040519081529081906020820190565b346103b25760203660031901126103b257600435611ae76122d6565b60075460408051918252602082018390527fccb45da8d5717e6c4544694297c4ba5cf151d455c9bb0ed4fc7a38411bc0546191a1600755005b346103b25760a03660031901126103b257611b3c60043561061a565b611b4760243561061a565b6084356001600160401b0381116103b257611b66903690600401610745565b50600b546001600160a01b031630036107cb5760405163f23a6e6160e01b8152602090f35b346103b25760203660031901126103b257604051632394e7a360e21b815260048035908201819052906020816024817f00000000000000000000000000000000000000000000000000000000000000006001600160a01b03165afa8015610b915761056192610ed3925f92611c0b575b50611c05906126ea565b9061348f565b611c05919250611c299060203d602011610bbc57610bad81836106c4565b9190611bfb565b346103b2575f3660031901126103b2576040517f00000000000000000000000000000000000000000000000000000000000000006001600160a01b03168152602090f35b90600182811c92168015611ca2575b6020831014611c8e57565b634e487b7160e01b5f52602260045260245ffd5b91607f1691611c83565b634e487b7160e01b5f52603260045260245ffd5b8051821015611cd45760209160051b010190565b611cac565b6040513d5f823e3d90fd5b60405190611cf182610672565b5f8252565b60405190611d0382610657565b601d82527f6d6f64653d626c6f636b6e756d6265722666726f6d3d64656661756c740000006020830152565b604051634bf5d7e960e01b81525f816004817f00000000000000000000000000000000000000000000000000000000000000006001600160a01b03165afa5f9181611d83575b506105055750610505611cf6565b9091503d805f833e611d9581836106c4565b8101906020818303126103b2578051906001600160401b0382116103b2570181601f820112156103b2578051611dca816106f4565b92611dd860405194856106c4565b818452602082840101116103b257611df691602080850191016104ae565b905f611d75565b939092919695610cd4611eb391611ead8a611e1936878961070f565b6001600160a01b0382165f90815260026020526040902080546001810190915590602081519101208b5160208d0120906040519260208401947f3e83946653575f9a39005e1545185629e92736b7528ab20ca3816f315424a81186528d604086015260ff8d16606086015260018060a01b0316608085015260a084015260c083015260e082015260e081526114f1816106a8565b8a613015565b611ece57610505959691611ec891369161070f565b926125ce565b6040516394ab6c0760e01b81526001600160a01b0388166004820152602490fd5b634e487b7160e01b5f52601160045260245ffd5b9193929093611f1282336127cb565b1561201057611f1f6120f6565b9485611f33575b6105059495503393612965565b65ffffffffffff5f1981611f45612028565b16019080821161200b575f604051611f5c81610672565b52604051630748d63560e31b8152336004820152911660248201526020816044817f00000000000000000000000000000000000000000000000000000000000000006001600160a01b03165afa908115610b91575f91611fec575b50868110611fc55750611f26565b604051636121770b60e11b8152336004820152602481019190915260448101879052606490fd5b612005915060203d602011610bbc57610bad81836106c4565b5f611fb7565b611eef565b60405163d9b3955760e01b8152336004820152602490fd5b6040516324776b7d60e21b81526020816004817f00000000000000000000000000000000000000000000000000000000000000006001600160a01b03165afa5f918161207e575b506105055750610505436131b6565b9091506020813d6020116120b3575b8161209a602093836106c4565b810103126103b257516120ac8161117f565b905f61206f565b3d915061208d565b5f1981019190821161200b57565b908160209103126103b2575190565b81156120e2570490565b634e487b7160e01b5f52601260045260245ffd5b5f19430143811161200b57604051632394e7a360e21b815260048101919091526020816024817f00000000000000000000000000000000000000000000000000000000000000006001600160a01b03165afa8015610b91576064915f9161215c57500490565b612175915060203d602011610bbc57610bad81836106c4565b0490565b600b546001600160a01b031630036107cb5763bc197c8160e01b90565b5f52600460205260405f205465ffffffffffff908163ffffffff8260d01c169160a01c160181811161200b571690565b9081518082526020808093019301915f5b8281106121e5575050505090565b83516001600160a01b0316855293810193928101926001016121d7565b90808251908181526020809101926020808460051b8301019501935f915b8483106122305750505050505090565b909192939495848061224e600193601f198682030187528a516104cf565b9801930193019194939290612220565b92906122aa926122bc9260405194859261229a612287602086019960808b5260a08701906121c6565b601f19968787830301604088015261132a565b9085858303016060860152612202565b906080830152039081018352826106c4565b51902090565b600b546001600160a01b031630036107cb57565b600b546001600160a01b03163381036123305730036122f157565b6122fa366106f4565b61230760405191826106c4565b3681526020810190365f83375f602036830101525190205b80612328612c11565b0361231f5750565b6040516347096e4760e01b8152336004820152602490fd5b6040906123635f939594606083019683526020830190610df9565b0152565b61237081612445565b906008821015610df4576010600160ff84161b161561238d575090565b6123b0606492604051926331b75e4d60e01b845260048401526024830190610df9565b60106044820152fd5b6123c281612445565b906008821015610df4576030600160ff84161b16156123df575090565b612402606492604051926331b75e4d60e01b845260048401526024830190610df9565b60306044820152fd5b61241490612cc6565b1561241b57565b634e487b715f5260416020526024601cfd5b908160209103126103b2575180151581036103b25790565b61244e81612d9e565b9061245882610dea565b6005820361254f5761247391505f52600c60205260405f2090565b54600b54612489906001600160a01b03166109d7565b604051632c258a9f60e11b81526004810183905260209291908381602481855afa908115610b91575f91612532575b50156124c657505050600590565b604051632ab0f52960e01b815260048101929092528290829060249082905afa918215610b91575f92612505575b50501561250057600790565b600290565b6125249250803d1061252b575b61251c81836106c4565b81019061242d565b5f806124f4565b503d612512565b6125499150843d861161252b5761251c81836106c4565b5f6124b8565b5090565b9161050593916040519361256685610672565b5f85526125ce565b93909260ff61259a9361050597958752166020860152604085015260a0606085015260a08401906104cf565b9160808184039101526104cf565b909260ff60809361050596958452166020830152604082015281606082015201906104cf565b9291906125da84612445565b6008811015610df4576002600160ff83161b16156126bc5750835f52600460205261263461262c61262661261b60405f2065ffffffffffff905460a01c1690565b65ffffffffffff1690565b83612b27565b83838761307c565b948051155f14612680575061267a7fb8e138887d0aa13bab447e82de9d5c1777041ecd21ca36ba824ff1e6c07ddda4938660405194859460018060a01b031697856125a8565b0390a290565b61267a907fe2babfbac5889a709b63bb7f598b324e08bc5a4fb9ec647fb3cbc9ec07eb8712948760405195869560018060a01b0316988661256e565b6040516331b75e4d60e01b8152600481018690526064916126e1906024830190610df9565b60026044820152fd5b6126f2613161565b9265ffffffffffff925090821681106127145750505b6001600160d01b031690565b61271f9192506131b6565b600a54905f908260058111612777575b5061273a93506139b4565b8061274657505f612708565b61276b612755612772926120bb565b600a5f525f80516020613bad8339815191520190565b5460301c90565b612708565b909261278282613889565b820391821161200b5761273a94600a5f5280835f80516020613bad833981519152015416908516105f146127b95750915b5f61272f565b9291506127c590612833565b906127b3565b9080516034811061282b5760131981830101516001600160b01b03191669dc8f8d908f908c9a8dc360b01b0161282b5761280a91602919820190613214565b901591821561281857505090565b6001600160a01b03918216911614919050565b505050600190565b906001820180921161200b57565b9190820180921161200b57565b90612858826107dd565b61286560405191826106c4565b8281528092612876601f19916107dd565b01905f5b82811061288657505050565b80606060208093850101520161287a565b95926128cb906128d9939b9a989996959261012090895260209c60018060a01b03168d8a01528060408a01528801906121c6565b90868203606088015261132a565b9784890360808601528251808a52818a019180808360051b8d01019501925f905b8382106129375750505050506105059697509061291e9184820360a0860152612202565b9360c083015260e08201526101008184039101526104cf565b909192939583806129568f93600194601f199082030186528a516104cf565b980192019201909392916128fa565b91949390929461297d8651602088012082868661225e565b958351855190818114801590612b1c575b8015612b14575b612aeb57505065ffffffffffff94856129c86129b98a5f52600460205260405f2090565b5460a01c65ffffffffffff1690565b16612ac4577f7d84a6263ae0d98d3329bd7b46bb4e8d6f98cd35a7adb45c274c8b7fd5ebd5e095612abf9363ffffffff612a11612a03612028565b600854948086169116612841565b9260301c16612a9d612a2b8c5f52600460205260405f2090565b80546001600160a01b0319166001600160a01b038a16178155612a74612a50866131b6565b825465ffffffffffff60a01b191660a09190911b65ffffffffffff60a01b16178255565b612a7d836132a4565b815463ffffffff60d01b191660d09190911b63ffffffff60d01b16179055565b612ab1612aaa895161284e565b9184612841565b936040519889988d8a612897565b0390a1565b87612ace81612445565b6040516331b75e4d60e01b8152918291610f039160048401612348565b8351604051630447b05d60e41b8152600481019290925260248201526044810191909152606490fd5b508015612995565b50835181141561298e565b604051630748d63560e31b81526001600160a01b0391821660048201526024810192909252602090829060449082907f0000000000000000000000000000000000000000000000000000000000000000165afa908115610b91575f91612b8b575090565b610505915060203d602011610bbc57610bad81836106c4565b600a5480612bb157505f90565b805f1981011161200b57600a5f527fc65a7bb8d6351c1cf70c95a316cc6a92839c986682d98bc35f958f4883f9d2a7015460301c90565b15612bf05790565b805115612bff57602081519101fd5b60405163d6bda27560e01b8152600490fd5b612c19613506565b9015612c225790565b634e487b715f5260316020526024601cfd5b949392612c60608093612c52612c6e9460a08a5260a08a01906121c6565b9088820360208a015261132a565b908682036040880152612202565b935f60608201520152565b9192612ca860a094612c9a612cb6949998979960c0875260c08701906121c6565b90858203602087015261132a565b908382036040850152612202565b945f606083015260808201520152565b6005548060801c9160018301926001600160801b0380931683851614612d0f575f52600660205260405f2055600554916001600160801b03199060801b16911617600555600190565b505050505f90565b9290939160018060a01b03600b541690813b156103b2575f93612d656040519788958694859463e38335e560e01b86526bffffffffffffffffffffffff193060601b16189260048601612c34565b039134905af1908115610b91575f92612d8c92612d8f575b505f52600c60205260405f2090565b55565b612d989061063f565b5f612d7d565b612db0815f52600460205260405f2090565b5460ff8160f01c16612ea35760f81c612e9d57612ddb61261b6129b9835f52600460205260405f2090565b8015612e8457612dec61261b612028565b80911015612e7e57612dfd82612196565b10612e085750600190565b612e14610cd4826136a3565b8015612e5b575b15612e265750600390565b61261b6001612e40612e4d935f52600460205260405f2090565b015465ffffffffffff1690565b612e5657600490565b600590565b50612e79610cd4825f52600960205260405f20600181015490541090565b612e1b565b50505f90565b604051636ad0607560e01b815260048101839052602490fd5b50600290565b5050600790565b90612eb693929161225e565b612ebf81612445565b6008811015610df457603b600160ff83161b1615612fb85750612f02612eed825f52600460205260405f2090565b80546001600160f81b0316600160f81b179055565b6040518181527f789cf55be980739dad1d0699b93b58e806b51c9d96619bfa8fe0a28abaa7b30c90602090a1612f40815f52600c60205260405f2090565b5480612f4a575090565b600b54612f5f906001600160a01b03166109d7565b803b156103b25760405163c4d252f560e01b815260048101929092525f908290602490829084905af18015610b9157612fa5575b505f818152600c602052604081205590565b80610b85612fb29261063f565b5f612f93565b90612fdc606492604051926331b75e4d60e01b845260048401526024830190610df9565b603b6044820152fd5b604290612ff061373b565b906040519161190160f01b8352600283015260228201522090565b60041115610df457565b9091813b61303d57613027919261384f565b506130318161300b565b15918261281857505090565b6020918160645f935160405192630b135d3f60e11b9788855260048501526040602485015286820190604485015e01915afa905f5114601f3d11161690565b613091909291925f52600960205260405f2090565b91600383016130ba6130b383839060018060a01b03165f5260205260405f2090565b5460ff1690565b613140576130de60ff93926130eb929060018060a01b03165f5260205260405f2090565b805460ff19166001179055565b168061310257506130fd828254612841565b905590565b6001810361311957506001016130fd828254612841565b60020361312e576002016130fd828254612841565b6040516303599be160e11b8152600490fd5b6040516371c6af4960e01b81526001600160a01b0383166004820152602490fd5b600a548061317257505f905f905f90565b805f1981011161200b57600a5f527fc65a7bb8d6351c1cf70c95a316cc6a92839c986682d98bc35f958f4883f9d2a7015460019165ffffffffffff82169160301c90565b65ffffffffffff908181116131c9571690565b604490604051906306dfcc6560e41b8252603060048301526024820152fd5b908160011b918083046002149015171561200b57565b908160041b918083046010149015171561200b57565b919082518211801561329b575b6132745761322e81612833565b82118061327d575b6132419015156131e8565b6028018060281161200b5781830383811161200b57036132745761326492613a0e565b90916001600160a01b0390911690565b5050505f905f90565b50828101602001516001600160f01b03191661060f60f31b14613236565b50818111613221565b63ffffffff908181116132b5571690565b604490604051906306dfcc6560e41b8252602060048301526024820152fd5b60ff81146133125760ff811690601f821161330057604051916132f683610657565b8252602082015290565b604051632cd44ac360e21b8152600490fd5b506040515f815f549161332483611c74565b808352926020906001908181169081156133ad575060011461334f575b5050610505925003826106c4565b9150925f80527f290decd9548b62a8d60345a988386fc84ba6bc95484008f6362f93160ef3e563935f925b82841061339557506105059450505081016020015f80613341565b8554878501830152948501948694509281019261337a565b9150506020925061050594915060ff191682840152151560051b8201015f80613341565b60ff81146133f35760ff811690601f821161330057604051916132f683610657565b506040515f8160019160015461340881611c74565b80845293602091600181169081156133ad5750600114613430575050610505925003826106c4565b91509260015f527fb10e2d527612073b26eecdfd717e6a320cf44b4afac2b0732d9fcbe2b7fa0cf6935f925b82841061347757506105059450505081016020015f80613341565b8554878501830152948501948694509281019261345c565b5f19828209828202918280831092039180830392146134fc5781606411156134ea577f5c28f5c28f5c28f5c28f5c28f5c28f5c28f5c28f5c28f5c28f5c28f5c28f5c29936064910990828211900360fe1b910360021c170290565b634e487b715f5260116020526024601cfd5b5050606491500490565b6005546001600160801b03918282169160801c821461354b57600192825f526006602052600160405f20935f8554955501166001600160801b03196005541617600555565b5f9250829150565b600a5490600160401b821015610652576001820180600a55821015611cd4576106f291600a5f525f80516020613bad83398151915201906135b165ffffffffffff825116839065ffffffffffff1665ffffffffffff19825416179055565b60200151815465ffffffffffff1660309190911b65ffffffffffff1916179055565b600a54919291801561367a576127556135eb916120bb565b9081549165ffffffffffff90818416918316808311613668578692036136305761362992509065ffffffffffff82549181199060301b169116179055565b60301c9190565b50506136639061364f6136416106e5565b65ffffffffffff9092168252565b6001600160d01b0385166020820152613553565b613629565b604051632520601d60e01b8152600490fd5b5061369e9061368a6136416106e5565b6001600160d01b0384166020820152613553565b5f9190565b5f52600960205260405f20600460205265ffffffffffff60405f205460a01c16604051632394e7a360e21b815281600482015260208160248160018060a01b037f0000000000000000000000000000000000000000000000000000000000000000165afa8015610b915761373692613725925f92611c0b5750611c05906126ea565b916002600182015491015490612841565b101590565b307f00000000000000000000000000000000000000000000000000000000000000006001600160a01b03161480613826575b15613796577f000000000000000000000000000000000000000000000000000000000000000090565b60405160208101907f8b73c3c69bb8fe3d512ecc4cf759cc79239f7b179b0ffacaa9a75d522b39400f82527f000000000000000000000000000000000000000000000000000000000000000060408201527f000000000000000000000000000000000000000000000000000000000000000060608201524660808201523060a082015260a081526122bc8161068d565b507f0000000000000000000000000000000000000000000000000000000000000000461461376d565b815191906041830361387f576138789250602082015190606060408401519301515f1a90613ab8565b9192909190565b50505f9160029190565b600181111561050557600181600160801b8110156139a2575b61394a61394061393661392c61392261391861395697600488600160401b6139519a1015613995575b640100000000811015613988575b6201000081101561397b575b61010081101561396f575b6010811015613963575b101561395b575b60030260011c613911818b6120d8565b0160011c90565b613911818a6120d8565b61391181896120d8565b61391181886120d8565b61391181876120d8565b61391181866120d8565b80936120d8565b821190565b900390565b60011b613901565b811c9160021b916138fa565b60081c91811b916138f0565b60101c9160081b916138e5565b60201c9160101b916138d9565b60401c9160201b916138cb565b50600160401b9050608082901c6138a2565b8282106139c057505090565b909180831860011c8184160190600a5f5265ffffffffffff80835f80516020613bad833981519152015416908416105f146139fe5750915b906139b4565b9250613a0990612833565b6139f8565b929092613a1a84612833565b831180613a9a575b613a34613a3b919492939415156131e8565b5f95612841565b915b818310613a4d5750505060019190565b9092919360ff613a6e613a696020888601015160ff60f81b1690565b613b3a565b1690600f8211613a8f5790613a846001926131fe565b019401919290613a3d565b505f94508493505050565b50602084820101516001600160f01b03191661060f60f31b14613a22565b91907f7fffffffffffffffffffffffffffffff5d576e7357a4501ddfe92f46681b20a08411613b2f579160209360809260ff5f9560405194855216868401526040830152606082015282805260015afa15610b91575f516001600160a01b03811615613b2557905f905f90565b505f906001905f90565b5050505f9160039190565b60f81c602f811180613ba2575b15613b5657602f190160ff1690565b6060811180613b98575b15613b6f576056190160ff1690565b6040811180613b8e575b15613b88576036190160ff1690565b5060ff90565b5060478110613b79565b5060678110613b60565b50603a8110613b4756fec65a7bb8d6351c1cf70c95a316cc6a92839c986682d98bc35f958f4883f9d2a8a2646970667358221220225cf794084723eb897e8829edd6e8d04bdc57b30686eeac33bc7e931bb57a4264736f6c63430008180033c65a7bb8d6351c1cf70c95a316cc6a92839c986682d98bc35f958f4883f9d2a80553476bf02ef2726e8ce5ced78d63e26e602e4a2257b1f559418e24b4633997","linkReferences":{}},"methodIdentifiers":{"BALLOT_TYPEHASH()":"deaaa7cc","CLOCK_MODE()":"4bf5d7e9","COUNTING_MODE()":"dd4e2ba5","EXTENDED_BALLOT_TYPEHASH()":"2fe3e261","cancel(address[],uint256[],bytes[],bytes32)":"452115d6","castVote(uint256,uint8)":"56781388","castVoteBySig(uint256,uint8,address,bytes)":"8ff262e3","castVoteWithReason(uint256,uint8,string)":"7b3c71d3","castVoteWithReasonAndParams(uint256,uint8,string,bytes)":"5f398a14","castVoteWithReasonAndParamsBySig(uint256,uint8,address,string,bytes,bytes)":"5b8d0e0d","clock()":"91ddadf4","eip712Domain()":"84b0196e","execute(address[],uint256[],bytes[],bytes32)":"2656227d","getProposalId(address[],uint256[],bytes[],bytes32)":"a8f8a668","getVotes(address,uint256)":"eb9019d4","getVotesWithParams(address,uint256,bytes)":"9a802a6d","hasVoted(uint256,address)":"43859632","hashProposal(address[],uint256[],bytes[],bytes32)":"c59057e4","name()":"06fdde03","nonces(address)":"7ecebe00","onERC1155BatchReceived(address,address,uint256[],uint256[],bytes)":"bc197c81","onERC1155Received(address,address,uint256,uint256,bytes)":"f23a6e61","onERC721Received(address,address,uint256,bytes)":"150b7a02","proposalDeadline(uint256)":"c01f9e37","proposalEta(uint256)":"ab58fb8e","proposalNeedsQueuing(uint256)":"a9a95294","proposalProposer(uint256)":"143489d0","proposalSnapshot(uint256)":"2d63f693","proposalThreshold()":"b58131b0","proposalVotes(uint256)":"544ffc9c","propose(address[],uint256[],bytes[],string)":"7d5e81e2","queue(address[],uint256[],bytes[],bytes32)":"160cbed7","quorum(uint256)":"f8ce560a","quorumDenominator()":"97c3d334","quorumNumerator()":"a7713a70","quorumNumerator(uint256)":"60c4247f","relay(address,uint256,bytes)":"c28bc2fa","setProposalThreshold(uint256)":"ece40cc1","setVotingDelay(uint48)":"79051887","setVotingPeriod(uint32)":"e540d01d","state(uint256)":"3e4f49e6","supportsInterface(bytes4)":"01ffc9a7","timelock()":"d33219b4","token()":"fc0c546a","updateQuorumNumerator(uint256)":"06f3f9e6","updateTimelock(address)":"a890c910","version()":"54fd4d50","votingDelay()":"3932abb1","votingPeriod()":"02a251a3"},"id":110}