{"abi":[{"type":"constructor","inputs":[{"name":"_feed","type":"address","internalType":"address"},{"name":"_maxStaleness","type":"uint256","internalType":"uint256"},{"name":"owner_","type":"address","internalType":"address"}],"stateMutability":"nonpayable"},{"type":"function","name":"feed","inputs":[],"outputs":[{"name":"","type":"address","internalType":"contract AggregatorV3Interface"}],"stateMutability":"view"},{"type":"function","name":"latestPrice","inputs":[],"outputs":[{"name":"price","type":"uint256","internalType":"uint256"},{"name":"updatedAt","type":"uint256","internalType":"uint256"}],"stateMutability":"view"},{"type":"function","name":"maxStaleness","inputs":[],"outputs":[{"name":"","type":"uint256","internalType":"uint256"}],"stateMutability":"view"},{"type":"function","name":"owner","inputs":[],"outputs":[{"name":"","type":"address","internalType":"address"}],"stateMutability":"view"},{"type":"function","name":"renounceOwnership","inputs":[],"outputs":[],"stateMutability":"nonpayable"},{"type":"function","name":"safePrice","inputs":[],"outputs":[{"name":"price","type":"uint256","internalType":"uint256"}],"stateMutability":"view"},{"type":"function","name":"transferOwnership","inputs":[{"name":"newOwner","type":"address","internalType":"address"}],"outputs":[],"stateMutability":"nonpayable"},{"type":"event","name":"MaxStalenessUpdated","inputs":[{"name":"oldVal","type":"uint256","indexed":false,"internalType":"uint256"},{"name":"newVal","type":"uint256","indexed":false,"internalType":"uint256"}],"anonymous":false},{"type":"event","name":"OwnershipTransferred","inputs":[{"name":"previousOwner","type":"address","indexed":true,"internalType":"address"},{"name":"newOwner","type":"address","indexed":true,"internalType":"address"}],"anonymous":false},{"type":"error","name":"InvalidRound","inputs":[{"name":"roundId","type":"uint80","internalType":"uint80"},{"name":"answeredInRound","type":"uint80","internalType":"uint80"}]},{"type":"error","name":"NegativeOrZeroPrice","inputs":[{"name":"answer","type":"int256","internalType":"int256"}]},{"type":"error","name":"OwnableInvalidOwner","inputs":[{"name":"owner","type":"address","internalType":"address"}]},{"type":"error","name":"OwnableUnauthorizedAccount","inputs":[{"name":"account","type":"address","internalType":"address"}]},{"type":"error","name":"StalePrice","inputs":[{"name":"updatedAt","type":"uint256","internalType":"uint256"},{"name":"threshold","type":"uint256","internalType":"uint256"}]}],"bytecode":{"object":"0x60e06040908082523461014657606081610843803803809161002182856101dd565b8339810103126101465761003481610214565b60208281015190926001600160a01b03908190610052908701610214565b169283156101c6575f80546001600160a01b031981168617825587519591908416907f8be0079c531659141344cd1fd0a4f28419497f9722a3daafe3b4186f6b6457e09080a3169182156101905750801561015b5781839160049360805260a05284519283809263313ce56760e01b82525afa918215610151575f92610115575b505060c0525161061a90816102298239608051818181610124015281816102fc0152610445015260a05181818161025c0152610363015260c051816105290152f35b90809250813d831161014a575b61012c81836101dd565b81010312610146575160ff81168103610146575f806100d3565b5f80fd5b503d610122565b83513d5f823e3d90fd5b835162461bcd60e51b815260048101849052600e60248201526d5a65726f207374616c656e65737360901b6044820152606490fd5b62461bcd60e51b81526004810184905260116024820152705a65726f2066656564206164647265737360781b6044820152606490fd5b8551631e4fbdf760e01b81525f6004820152602490fd5b601f909101601f19168101906001600160401b0382119082101761020057604052565b634e487b7160e01b5f52604160045260245ffd5b51906001600160a01b03821682036101465756fe6080604081815260049182361015610015575f80fd5b5f3560e01c90816337a7b7d81461043357508063655ee64a146102d6578063715018a61461027f57806387cf4696146102455780638da5cb5b1461021e578063a3e6ba94146100fe5763f2fde38b1461006c575f80fd5b346100fa5760203660031901126100fa576001600160a01b038235818116939192908490036100fa5761009d6105b9565b83156100e45750505f54826bffffffffffffffffffffffff60a01b8216175f55167f8be0079c531659141344cd1fd0a4f28419497f9722a3daafe3b4186f6b6457e05f80a3005b905f6024925191631e4fbdf760e01b8352820152fd5b5f80fd5b5090346100fa575f3660031901126100fa578151633fabe5a360e21b81529060a08282817f00000000000000000000000000000000000000000000000000000000000000006001600160a01b03165afa908115610214575f80925f945f916101da575b506001600160501b03808316908216106101ab5750505f821315610196575061018990610525565b9082519182526020820152f35b602491845191637137cc0b60e11b8352820152fd5b855163a247860b60e01b81526001600160501b0392831684820190815291909216602082015281900360400190fd5b9294505050610201915060a03d60a01161020d575b6101f98183610474565b8101906104be565b9094929391505f610161565b503d6101ef565b83513d5f823e3d90fd5b50346100fa575f3660031901126100fa575f5490516001600160a01b039091168152602090f35b50346100fa575f3660031901126100fa57602090517f00000000000000000000000000000000000000000000000000000000000000008152f35b346100fa575f3660031901126100fa576102976105b9565b5f80546001600160a01b0319811682556001600160a01b03167f8be0079c531659141344cd1fd0a4f28419497f9722a3daafe3b4186f6b6457e08280a3005b5090346100fa575f3660031901126100fa578151633fabe5a360e21b81529060a08282817f00000000000000000000000000000000000000000000000000000000000000006001600160a01b03165afa918215610214575f80935f925f91610407575b506001600160501b03808316908216106103d85750505f8313156103c25761036181426104f3565b7f000000000000000000000000000000000000000000000000000000000000000080911161039c5760208561039586610525565b9051908152f35b604492916103ab8692426104f3565b91516304e61d6960e31b8152928301526024820152fd5b509151637137cc0b60e11b815291820152602490fd5b855163a247860b60e01b81526001600160501b0392831685820190815291909216602082015281900360400190fd5b9250505061042591925060a03d60a01161020d576101f98183610474565b92915093929093915f610339565b346100fa575f3660031901126100fa577f00000000000000000000000000000000000000000000000000000000000000006001600160a01b03168152602090f35b90601f8019910116810190811067ffffffffffffffff82111761049657604052565b634e487b7160e01b5f52604160045260245ffd5b51906001600160501b03821682036100fa57565b908160a09103126100fa576104d2816104aa565b916020820151916040810151916104f06080606084015193016104aa565b90565b9190820391821161050057565b634e487b7160e01b5f52601160045260245ffd5b60ff16604d811161050057600a0a90565b60ff7f00000000000000000000000000000000000000000000000000000000000000001660128110610591576012811161055d575090565b6011190160ff81116105005761057290610514565b90811561057d570490565b634e487b7160e01b5f52601260045260245ffd5b60120360ff8111610500576105a590610514565b908181029181830414901517156105005790565b5f546001600160a01b031633036105cc57565b60405163118cdaa760e01b8152336004820152602490fdfea2646970667358221220d77cfe0f4dc1606d0f4f426f7a8928c152349a41c4c89d831775dc695d59f60564736f6c63430008180033","linkReferences":{}},"methodIdentifiers":{"feed()":"37a7b7d8","latestPrice()":"a3e6ba94","maxStaleness()":"87cf4696","owner()":"8da5cb5b","renounceOwnership()":"715018a6","safePrice()":"655ee64a","transferOwnership(address)":"f2fde38b"},"id":109}