{"abi":[{"type":"function","name":"CLOCK_MODE","inputs":[],"outputs":[{"name":"","type":"string","internalType":"string"}],"stateMutability":"pure"},{"type":"function","name":"DEFAULT_ADMIN_ROLE","inputs":[],"outputs":[{"name":"","type":"bytes32","internalType":"bytes32"}],"stateMutability":"view"},{"type":"function","name":"DOMAIN_SEPARATOR","inputs":[],"outputs":[{"name":"","type":"bytes32","internalType":"bytes32"}],"stateMutability":"view"},{"type":"function","name":"MINTER_ROLE","inputs":[],"outputs":[{"name":"","type":"bytes32","internalType":"bytes32"}],"stateMutability":"view"},{"type":"function","name":"UPGRADER_ROLE","inputs":[],"outputs":[{"name":"","type":"bytes32","internalType":"bytes32"}],"stateMutability":"view"},{"type":"function","name":"UPGRADE_INTERFACE_VERSION","inputs":[],"outputs":[{"name":"","type":"string","internalType":"string"}],"stateMutability":"view"},{"type":"function","name":"allowance","inputs":[{"name":"owner","type":"address","internalType":"address"},{"name":"spender","type":"address","internalType":"address"}],"outputs":[{"name":"","type":"uint256","internalType":"uint256"}],"stateMutability":"view"},{"type":"function","name":"approve","inputs":[{"name":"spender","type":"address","internalType":"address"},{"name":"value","type":"uint256","internalType":"uint256"}],"outputs":[{"name":"","type":"bool","internalType":"bool"}],"stateMutability":"nonpayable"},{"type":"function","name":"balanceOf","inputs":[{"name":"account","type":"address","internalType":"address"}],"outputs":[{"name":"","type":"uint256","internalType":"uint256"}],"stateMutability":"view"},{"type":"function","name":"burn","inputs":[{"name":"amount","type":"uint256","internalType":"uint256"}],"outputs":[],"stateMutability":"nonpayable"},{"type":"function","name":"checkpoints","inputs":[{"name":"account","type":"address","internalType":"address"},{"name":"pos","type":"uint32","internalType":"uint32"}],"outputs":[{"name":"","type":"tuple","internalType":"struct Checkpoints.Checkpoint208","components":[{"name":"_key","type":"uint48","internalType":"uint48"},{"name":"_value","type":"uint208","internalType":"uint208"}]}],"stateMutability":"view"},{"type":"function","name":"clock","inputs":[],"outputs":[{"name":"","type":"uint48","internalType":"uint48"}],"stateMutability":"view"},{"type":"function","name":"decimals","inputs":[],"outputs":[{"name":"","type":"uint8","internalType":"uint8"}],"stateMutability":"view"},{"type":"function","name":"delegate","inputs":[{"name":"delegatee","type":"address","internalType":"address"}],"outputs":[],"stateMutability":"nonpayable"},{"type":"function","name":"delegateBySig","inputs":[{"name":"delegatee","type":"address","internalType":"address"},{"name":"nonce","type":"uint256","internalType":"uint256"},{"name":"expiry","type":"uint256","internalType":"uint256"},{"name":"v","type":"uint8","internalType":"uint8"},{"name":"r","type":"bytes32","internalType":"bytes32"},{"name":"s","type":"bytes32","internalType":"bytes32"}],"outputs":[],"stateMutability":"nonpayable"},{"type":"function","name":"delegates","inputs":[{"name":"account","type":"address","internalType":"address"}],"outputs":[{"name":"","type":"address","internalType":"address"}],"stateMutability":"view"},{"type":"function","name":"eip712Domain","inputs":[],"outputs":[{"name":"fields","type":"bytes1","internalType":"bytes1"},{"name":"name","type":"string","internalType":"string"},{"name":"version","type":"string","internalType":"string"},{"name":"chainId","type":"uint256","internalType":"uint256"},{"name":"verifyingContract","type":"address","internalType":"address"},{"name":"salt","type":"bytes32","internalType":"bytes32"},{"name":"extensions","type":"uint256[]","internalType":"uint256[]"}],"stateMutability":"view"},{"type":"function","name":"getPastTotalSupply","inputs":[{"name":"timepoint","type":"uint256","internalType":"uint256"}],"outputs":[{"name":"","type":"uint256","internalType":"uint256"}],"stateMutability":"view"},{"type":"function","name":"getPastVotes","inputs":[{"name":"account","type":"address","internalType":"address"},{"name":"timepoint","type":"uint256","internalType":"uint256"}],"outputs":[{"name":"","type":"uint256","internalType":"uint256"}],"stateMutability":"view"},{"type":"function","name":"getRoleAdmin","inputs":[{"name":"role","type":"bytes32","internalType":"bytes32"}],"outputs":[{"name":"","type":"bytes32","internalType":"bytes32"}],"stateMutability":"view"},{"type":"function","name":"getVotes","inputs":[{"name":"account","type":"address","internalType":"address"}],"outputs":[{"name":"","type":"uint256","internalType":"uint256"}],"stateMutability":"view"},{"type":"function","name":"grantRole","inputs":[{"name":"role","type":"bytes32","internalType":"bytes32"},{"name":"account","type":"address","internalType":"address"}],"outputs":[],"stateMutability":"nonpayable"},{"type":"function","name":"hasRole","inputs":[{"name":"role","type":"bytes32","internalType":"bytes32"},{"name":"account","type":"address","internalType":"address"}],"outputs":[{"name":"","type":"bool","internalType":"bool"}],"stateMutability":"view"},{"type":"function","name":"initialize","inputs":[{"name":"name_","type":"string","internalType":"string"},{"name":"symbol_","type":"string","internalType":"string"},{"name":"maxSupply_","type":"uint256","internalType":"uint256"},{"name":"admin","type":"address","internalType":"address"}],"outputs":[],"stateMutability":"nonpayable"},{"type":"function","name":"initializeV2","inputs":[{"name":"taxBps_","type":"uint256","internalType":"uint256"},{"name":"treasury_","type":"address","internalType":"address"}],"outputs":[],"stateMutability":"nonpayable"},{"type":"function","name":"maxSupply","inputs":[],"outputs":[{"name":"","type":"uint256","internalType":"uint256"}],"stateMutability":"view"},{"type":"function","name":"mint","inputs":[{"name":"to","type":"address","internalType":"address"},{"name":"amount","type":"uint256","internalType":"uint256"}],"outputs":[],"stateMutability":"nonpayable"},{"type":"function","name":"name","inputs":[],"outputs":[{"name":"","type":"string","internalType":"string"}],"stateMutability":"view"},{"type":"function","name":"nonces","inputs":[{"name":"owner","type":"address","internalType":"address"}],"outputs":[{"name":"","type":"uint256","internalType":"uint256"}],"stateMutability":"view"},{"type":"function","name":"numCheckpoints","inputs":[{"name":"account","type":"address","internalType":"address"}],"outputs":[{"name":"","type":"uint32","internalType":"uint32"}],"stateMutability":"view"},{"type":"function","name":"permit","inputs":[{"name":"owner","type":"address","internalType":"address"},{"name":"spender","type":"address","internalType":"address"},{"name":"value","type":"uint256","internalType":"uint256"},{"name":"deadline","type":"uint256","internalType":"uint256"},{"name":"v","type":"uint8","internalType":"uint8"},{"name":"r","type":"bytes32","internalType":"bytes32"},{"name":"s","type":"bytes32","internalType":"bytes32"}],"outputs":[],"stateMutability":"nonpayable"},{"type":"function","name":"proxiableUUID","inputs":[],"outputs":[{"name":"","type":"bytes32","internalType":"bytes32"}],"stateMutability":"view"},{"type":"function","name":"renounceRole","inputs":[{"name":"role","type":"bytes32","internalType":"bytes32"},{"name":"callerConfirmation","type":"address","internalType":"address"}],"outputs":[],"stateMutability":"nonpayable"},{"type":"function","name":"revokeRole","inputs":[{"name":"role","type":"bytes32","internalType":"bytes32"},{"name":"account","type":"address","internalType":"address"}],"outputs":[],"stateMutability":"nonpayable"},{"type":"function","name":"setMaxSupply","inputs":[{"name":"newMax","type":"uint256","internalType":"uint256"}],"outputs":[],"stateMutability":"nonpayable"},{"type":"function","name":"setTransferTax","inputs":[{"name":"newBps","type":"uint256","internalType":"uint256"}],"outputs":[],"stateMutability":"nonpayable"},{"type":"function","name":"setTreasury","inputs":[{"name":"newTreasury","type":"address","internalType":"address"}],"outputs":[],"stateMutability":"nonpayable"},{"type":"function","name":"supportsInterface","inputs":[{"name":"interfaceId","type":"bytes4","internalType":"bytes4"}],"outputs":[{"name":"","type":"bool","internalType":"bool"}],"stateMutability":"view"},{"type":"function","name":"symbol","inputs":[],"outputs":[{"name":"","type":"string","internalType":"string"}],"stateMutability":"view"},{"type":"function","name":"totalSupply","inputs":[],"outputs":[{"name":"","type":"uint256","internalType":"uint256"}],"stateMutability":"view"},{"type":"function","name":"transfer","inputs":[{"name":"to","type":"address","internalType":"address"},{"name":"value","type":"uint256","internalType":"uint256"}],"outputs":[{"name":"","type":"bool","internalType":"bool"}],"stateMutability":"nonpayable"},{"type":"function","name":"transferFrom","inputs":[{"name":"from","type":"address","internalType":"address"},{"name":"to","type":"address","internalType":"address"},{"name":"value","type":"uint256","internalType":"uint256"}],"outputs":[{"name":"","type":"bool","internalType":"bool"}],"stateMutability":"nonpayable"},{"type":"function","name":"transferTaxBps","inputs":[],"outputs":[{"name":"","type":"uint256","internalType":"uint256"}],"stateMutability":"view"},{"type":"function","name":"treasury","inputs":[],"outputs":[{"name":"","type":"address","internalType":"address"}],"stateMutability":"view"},{"type":"function","name":"upgradeToAndCall","inputs":[{"name":"newImplementation","type":"address","internalType":"address"},{"name":"data","type":"bytes","internalType":"bytes"}],"outputs":[],"stateMutability":"payable"},{"type":"event","name":"Approval","inputs":[{"name":"owner","type":"address","indexed":true,"internalType":"address"},{"name":"spender","type":"address","indexed":true,"internalType":"address"},{"name":"value","type":"uint256","indexed":false,"internalType":"uint256"}],"anonymous":false},{"type":"event","name":"DelegateChanged","inputs":[{"name":"delegator","type":"address","indexed":true,"internalType":"address"},{"name":"fromDelegate","type":"address","indexed":true,"internalType":"address"},{"name":"toDelegate","type":"address","indexed":true,"internalType":"address"}],"anonymous":false},{"type":"event","name":"DelegateVotesChanged","inputs":[{"name":"delegate","type":"address","indexed":true,"internalType":"address"},{"name":"previousVotes","type":"uint256","indexed":false,"internalType":"uint256"},{"name":"newVotes","type":"uint256","indexed":false,"internalType":"uint256"}],"anonymous":false},{"type":"event","name":"EIP712DomainChanged","inputs":[],"anonymous":false},{"type":"event","name":"Initialized","inputs":[{"name":"version","type":"uint64","indexed":false,"internalType":"uint64"}],"anonymous":false},{"type":"event","name":"MaxSupplyUpdated","inputs":[{"name":"oldMax","type":"uint256","indexed":false,"internalType":"uint256"},{"name":"newMax","type":"uint256","indexed":false,"internalType":"uint256"}],"anonymous":false},{"type":"event","name":"RoleAdminChanged","inputs":[{"name":"role","type":"bytes32","indexed":true,"internalType":"bytes32"},{"name":"previousAdminRole","type":"bytes32","indexed":true,"internalType":"bytes32"},{"name":"newAdminRole","type":"bytes32","indexed":true,"internalType":"bytes32"}],"anonymous":false},{"type":"event","name":"RoleGranted","inputs":[{"name":"role","type":"bytes32","indexed":true,"internalType":"bytes32"},{"name":"account","type":"address","indexed":true,"internalType":"address"},{"name":"sender","type":"address","indexed":true,"internalType":"address"}],"anonymous":false},{"type":"event","name":"RoleRevoked","inputs":[{"name":"role","type":"bytes32","indexed":true,"internalType":"bytes32"},{"name":"account","type":"address","indexed":true,"internalType":"address"},{"name":"sender","type":"address","indexed":true,"internalType":"address"}],"anonymous":false},{"type":"event","name":"Transfer","inputs":[{"name":"from","type":"address","indexed":true,"internalType":"address"},{"name":"to","type":"address","indexed":true,"internalType":"address"},{"name":"value","type":"uint256","indexed":false,"internalType":"uint256"}],"anonymous":false},{"type":"event","name":"TransferTaxUpdated","inputs":[{"name":"oldBps","type":"uint256","indexed":false,"internalType":"uint256"},{"name":"newBps","type":"uint256","indexed":false,"internalType":"uint256"}],"anonymous":false},{"type":"event","name":"TreasuryUpdated","inputs":[{"name":"oldTreasury","type":"address","indexed":false,"internalType":"address"},{"name":"newTreasury","type":"address","indexed":false,"internalType":"address"}],"anonymous":false},{"type":"event","name":"Upgraded","inputs":[{"name":"implementation","type":"address","indexed":true,"internalType":"address"}],"anonymous":false},{"type":"error","name":"AccessControlBadConfirmation","inputs":[]},{"type":"error","name":"AccessControlUnauthorizedAccount","inputs":[{"name":"account","type":"address","internalType":"address"},{"name":"neededRole","type":"bytes32","internalType":"bytes32"}]},{"type":"error","name":"AddressEmptyCode","inputs":[{"name":"target","type":"address","internalType":"address"}]},{"type":"error","name":"CheckpointUnorderedInsertion","inputs":[]},{"type":"error","name":"ECDSAInvalidSignature","inputs":[]},{"type":"error","name":"ECDSAInvalidSignatureLength","inputs":[{"name":"length","type":"uint256","internalType":"uint256"}]},{"type":"error","name":"ECDSAInvalidSignatureS","inputs":[{"name":"s","type":"bytes32","internalType":"bytes32"}]},{"type":"error","name":"ERC1967InvalidImplementation","inputs":[{"name":"implementation","type":"address","internalType":"address"}]},{"type":"error","name":"ERC1967NonPayable","inputs":[]},{"type":"error","name":"ERC20ExceededSafeSupply","inputs":[{"name":"increasedSupply","type":"uint256","internalType":"uint256"},{"name":"cap","type":"uint256","internalType":"uint256"}]},{"type":"error","name":"ERC20InsufficientAllowance","inputs":[{"name":"spender","type":"address","internalType":"address"},{"name":"allowance","type":"uint256","internalType":"uint256"},{"name":"needed","type":"uint256","internalType":"uint256"}]},{"type":"error","name":"ERC20InsufficientBalance","inputs":[{"name":"sender","type":"address","internalType":"address"},{"name":"balance","type":"uint256","internalType":"uint256"},{"name":"needed","type":"uint256","internalType":"uint256"}]},{"type":"error","name":"ERC20InvalidApprover","inputs":[{"name":"approver","type":"address","internalType":"address"}]},{"type":"error","name":"ERC20InvalidReceiver","inputs":[{"name":"receiver","type":"address","internalType":"address"}]},{"type":"error","name":"ERC20InvalidSender","inputs":[{"name":"sender","type":"address","internalType":"address"}]},{"type":"error","name":"ERC20InvalidSpender","inputs":[{"name":"spender","type":"address","internalType":"address"}]},{"type":"error","name":"ERC2612ExpiredSignature","inputs":[{"name":"deadline","type":"uint256","internalType":"uint256"}]},{"type":"error","name":"ERC2612InvalidSigner","inputs":[{"name":"signer","type":"address","internalType":"address"},{"name":"owner","type":"address","internalType":"address"}]},{"type":"error","name":"ERC5805FutureLookup","inputs":[{"name":"timepoint","type":"uint256","internalType":"uint256"},{"name":"clock","type":"uint48","internalType":"uint48"}]},{"type":"error","name":"ERC6372InconsistentClock","inputs":[]},{"type":"error","name":"FailedCall","inputs":[]},{"type":"error","name":"InvalidAccountNonce","inputs":[{"name":"account","type":"address","internalType":"address"},{"name":"currentNonce","type":"uint256","internalType":"uint256"}]},{"type":"error","name":"InvalidInitialization","inputs":[]},{"type":"error","name":"MaxSupplyExceeded","inputs":[{"name":"requested","type":"uint256","internalType":"uint256"},{"name":"available","type":"uint256","internalType":"uint256"}]},{"type":"error","name":"NotInitializing","inputs":[]},{"type":"error","name":"SafeCastOverflowedUintDowncast","inputs":[{"name":"bits","type":"uint8","internalType":"uint8"},{"name":"value","type":"uint256","internalType":"uint256"}]},{"type":"error","name":"TaxTooHigh","inputs":[{"name":"bps","type":"uint256","internalType":"uint256"}]},{"type":"error","name":"UUPSUnauthorizedCallContext","inputs":[]},{"type":"error","name":"UUPSUnsupportedProxiableUUID","inputs":[{"name":"slot","type":"bytes32","internalType":"bytes32"}]},{"type":"error","name":"VotesExpiredSignature","inputs":[{"name":"expiry","type":"uint256","internalType":"uint256"}]},{"type":"error","name":"ZeroAddress","inputs":[]},{"type":"error","name":"ZeroTreasury","inputs":[]}],"bytecode":{"object":"0x60a08060405234620000d157306080527ff0c57e16840df040f15088dc2f81fe391c3923bec73e23a9662efc9c229c6a009081549060ff8260401c16620000c257506001600160401b036002600160401b0319828216016200007c575b6040516139c59081620000d68239608051818181610bcf0152610cf90152f35b6001600160401b031990911681179091556040519081527fc7f505b2f371ae2175ee4913f4499e1f2633a7b5936321eed1cdaeb6115181d290602090a15f80806200005c565b63f92ee8a960e01b8152600490fd5b5f80fdfe60806040526004361015610011575f80fd5b5f3560e01c806301ffc9a7146102e457806306fdde03146102df578063095ea7b3146102da57806318160ddd146102d557806323b872dd146102d0578063248a9ca3146102cb5780632490fe36146102c65780632f2ff15d146102c1578063313ce567146102bc5780633644e515146102b757806336568abe146102b25780633a46b1a8146102ad57806340c10f19146102a857806342966c68146102a35780634bf5d7e91461029e5780634f1ef2861461029957806352d1902d14610294578063587cde1e1461028f5780635c19a95c1461028a57806361d027b3146102855780636f8b44b0146102805780636fcfff451461027b57806370a08231146102765780637ecebe001461027157806384b0196e1461026c5780638b525903146102675780638e539e8c1461026257806391d148541461025d57806391ddadf41461025857806395d89b41146102535780639ab24eb01461024e578063a217fddf14610249578063a9059cbb14610244578063ad3cb1cc1461023f578063bd3a13f61461023a578063c3cda52014610235578063c4e4839814610230578063d505accf1461022b578063d539139314610226578063d547741f14610221578063d5abeb011461021c578063dd62ed3e14610217578063f0f4426014610212578063f1127ed81461020d5763f72c0d8b14610208575f80fd5b61192c565b611899565b611801565b6117c9565b6117ad565b611764565b61172a565b6115d8565b6115bb565b6114f2565b611381565b611321565b6112fb565b6112e1565b6112aa565b6111f8565b6111d6565b61117c565b6110a7565b611031565b610f7d565b610f26565b610ecf565b610e7a565b610dcd565b610da5565b610d83565b610d3e565b610ce7565b610b7f565b610a43565b61096c565b6108d8565b610806565b6107bf565b61079d565b610782565b610737565b610648565b61060f565b61051c565b6104f3565b6104c2565b610390565b3461033a57602036600319011261033a5760043563ffffffff60e01b811680910361033a57602090637965db0b60e01b8114908115610329575b506040519015158152f35b6301ffc9a760e01b1490505f61031e565b5f80fd5b91908251928382525f5b848110610368575050825f602080949584010152601f8019910116010190565b602081830181015184830182015201610348565b90602061038d92818152019061033e565b90565b3461033a575f36600319011261033a576040515f5f805160206138508339815191528054906103be82611966565b8085529160209160019182811690811561045357506001146103fb575b6103f7866103eb81880382610b0a565b6040519182918261037c565b0390f35b5f90815293507f2ae08a8e29253f69ac5d979a101956ab8f8d9d7ded63fa7a83b16fc47648eab05b838510610440575050505081016020016103eb826103f75f6103db565b8054868601840152938201938101610423565b90508695506103f7969350602092506103eb94915060ff191682840152151560051b82010192935f6103db565b600435906001600160a01b038216820361033a57565b602435906001600160a01b038216820361033a57565b606435906001600160a01b038216820361033a57565b3461033a57604036600319011261033a576104e86104de610480565b6024359033612635565b602060405160018152f35b3461033a575f36600319011261033a5760205f805160206138b083398151915254604051908152f35b3461033a57606036600319011261033a57610535610480565b61053d610496565b604435906105633361054e85611b6d565b9060018060a01b03165f5260205260405f2090565b54925f198410610584575b6105789350611dcd565b60405160018152602090f35b8284106105e9576001600160a01b038116156105d15733156105b9578261057894036105b33361054e84611b6d565b5561056e565b604051634a1406b160e11b81525f6004820152602490fd5b60405163e602df0560e01b81525f6004820152602490fd5b604051637dc7a0d960e11b81523360048201526024810185905260448101849052606490fd5b3461033a57602036600319011261033a576004355f525f805160206139308339815191526020526020600160405f200154604051908152f35b3461033a57604036600319011261033a57610661610496565b5f8051602061395083398151915290815460ff8160401c16908115610722575b50610710575f80516020613950833981519152805467ffffffffffffffff191660021790556106c391805460ff60401b1916600160401b179055600435611b1d565b5f80516020613950833981519152805460ff60401b19169055604051600281527fc7f505b2f371ae2175ee4913f4499e1f2633a7b5936321eed1cdaeb6115181d29080602081015b0390a1005b60405163f92ee8a960e01b8152600490fd5b600291506001600160401b031610155f610681565b3461033a57604036600319011261033a57610780600435610756610496565b90805f525f8051602061393083398151915260205261077b600160405f200154611fa3565b6121c5565b005b3461033a575f36600319011261033a57602060405160128152f35b3461033a575f36600319011261033a5760206107b76126be565b604051908152f35b3461033a57604036600319011261033a576107d8610496565b336001600160a01b038216036107f457610780906004356121fb565b60405163334bd91960e11b8152600490fd5b3461033a57604036600319011261033a57610827610822610480565b611ba5565b61083260243561228d565b8154905f829160058411610885575b61084c9350846128d2565b908161086a57505060205f5b6040516001600160d01b039091168152f35b610875602092611c29565b905f52815f20015460301c610858565b919261089081612741565b81039081116108d35761084c93855f5265ffffffffffff808360205f20015416908516105f146108c1575091610841565b9291506108cd906122e9565b90610841565b611c15565b3461033a57604036600319011261033a576108f1610480565b6024356108fc611e7b565b6001600160a01b0382161561095a575f54915f805160206138b08339815191525483039283116108d357828211610937576107809250613120565b50604051637502c12360e11b815260048101919091526024810191909152604490fd5b60405163d92e233d60e01b8152600490fd5b3461033a57602036600319011261033a576004353315610a2b5761098f33611bdd565b54818110610a0357908061078092036109a733611bdd565b556109cd815f805160206138b083398151915254035f805160206138b083398151915255565b6040518181525f9033907fddf252ad1be2c89b69c2b068fc378daa952ba7f163c4a11628f55a4df523b3ef90602090a333613404565b60405163391434e360e21b815233600482015260248101919091526044810191909152606490fd5b604051634b637e8f60e11b81525f6004820152602490fd5b3461033a575f36600319011261033a576103f7604051610a6281610ab4565b601d81527f6d6f64653d626c6f636b6e756d6265722666726f6d3d64656661756c74000000602082015260405191829160208352602083019061033e565b634e487b7160e01b5f52604160045260245ffd5b604081019081106001600160401b03821117610acf57604052565b610aa0565b602081019081106001600160401b03821117610acf57604052565b60a081019081106001600160401b03821117610acf57604052565b90601f801991011681019081106001600160401b03821117610acf57604052565b60405190610b3882610ab4565b565b9291926001600160401b038211610acf5760405191610b63601f8201601f191660200184610b0a565b82948184528183011161033a578281602093845f960137010152565b604036600319011261033a57610b93610480565b6024356001600160401b03811161033a573660238201121561033a57610bc3903690602481600401359101610b3a565b6001600160a01b0391907f00000000000000000000000000000000000000000000000000000000000000008316308114908115610ccc575b50610cba576020600493610c0d611ef6565b6040516352d1902d60e01b8152948591829086165afa5f9381610c89575b50610c5157604051634c9c8ce360e01b81526001600160a01b0383166004820152602490fd5b905f805160206138f08339815191528303610c70576107809250612926565b604051632a87526960e21b815260048101849052602490fd5b610cac91945060203d602011610cb3575b610ca48183610b0a565b810190612304565b925f610c2b565b503d610c9a565b60405163703e46dd60e11b8152600490fd5b9050835f805160206138f0833981519152541614155f610bfb565b3461033a575f36600319011261033a577f00000000000000000000000000000000000000000000000000000000000000006001600160a01b03163003610cba5760206040515f805160206138f08339815191528152f35b3461033a57602036600319011261033a5760206001600160a01b0380610d62610480565b165f525f80516020613830833981519152825260405f205416604051908152f35b3461033a57602036600319011261033a57610780610d9f610480565b3361231e565b3461033a575f36600319011261033a576002546040516001600160a01b039091168152602090f35b3461033a57602036600319011261033a57600435610de9611f4d565b5f805160206138b0833981519152548110610e35575f5460408051918252602082018390527f44ecfc706d63e347851cfd40acfa6cf2e3a41faa3e8b460210c03938e84a91ad91a15f55005b60405162461bcd60e51b815260206004820152601c60248201527f4e6577206d61782062656c6f772063757272656e7420737570706c79000000006044820152606490fd5b3461033a57602036600319011261033a57610e96610822610480565b5463ffffffff90818111610eb05760209160405191168152f35b604490604051906306dfcc6560e41b8252602060048301526024820152fd5b3461033a57602036600319011261033a5760206107b7610eed610480565b6001600160a01b03165f9081527f52c63247e1f47db19d5ce0460030c497f067ca4cebf71ba98eeadabe20bace00602052604090205490565b3461033a57602036600319011261033a576001600160a01b03610f47610480565b165f527f5ab42ced628888259c08ac98db1eb0cf702fc1501344311d8b100cd1bfe4bb00602052602060405f2054604051908152f35b3461033a575f36600319011261033a57610fd4610f9861199e565b610fa0611a71565b60405190610fad82610ad4565b5f8252610fe2602091604051958695600f60f81b875260e0602088015260e087019061033e565b90858203604087015261033e565b4660608501523060808501525f60a085015283810360c0850152602080845192838152019301915f5b82811061101a57505050500390f35b83518552869550938101939281019260010161100b565b3461033a57602036600319011261033a5760043561104d611f4d565b6101f4811161108f5760015460408051918252602082018390527f6a7b998a4adc393cb692c67fcd563e7971e2ea6f3fe7c9b8fb6dd53cf5b627d091a1600155005b602490604051906332e47cbf60e01b82526004820152fd5b3461033a57602036600319011261033a576110c360043561228d565b5f80516020613910833981519152908154905f829160058411611124575b6110eb935061286c565b90816110fe5750506040515f8152602090f35b611109602092611c29565b905f525f80516020613970833981519152015460301c610858565b919261112f81612741565b81039081116108d3576110eb93855f5265ffffffffffff80835f80516020613970833981519152015416908516105f1461116a5750916110e1565b929150611176906122e9565b906110e1565b3461033a57604036600319011261033a57602060ff6111ca61119c610496565b6004355f525f80516020613930833981519152845260405f209060018060a01b03165f5260205260405f2090565b54166040519015158152f35b3461033a575f36600319011261033a57602060405165ffffffffffff43168152f35b3461033a575f36600319011261033a576040515f5f8051602061389083398151915280549061122682611966565b808552916020916001918281169081156104535750600114611252576103f7866103eb81880382610b0a565b5f90815293507f46a2803e59a4de4e7a4c574b1243f25977ac4c77d5a1a4a609b5394cebb4a2aa5b838510611297575050505081016020016103eb826103f75f6103db565b805486860184015293820193810161127a565b3461033a57602036600319011261033a5760206001600160d01b036112d86112d3610822610480565b61241b565b16604051908152f35b3461033a575f36600319011261033a5760206040515f8152f35b3461033a57604036600319011261033a576104e8611317610480565b6024359033611dcd565b3461033a575f36600319011261033a576103f760405161134081610ab4565b60058152640352e302e360dc1b602082015260405191829160208352602083019061033e565b9080601f8301121561033a5781602061038d93359101610b3a565b3461033a57608036600319011261033a576001600160401b0360043581811161033a576113b2903690600401611366565b60243582811161033a576113ca903690600401611366565b906113d36104ac565b905f80516020613950833981519152549360ff8560401c16159416801590816114ca575b60011490816114c0575b1590816114b7575b50610710575f80516020613950833981519152805467ffffffffffffffff191660011790556114419284611493575b60443591611c44565b61144757005b5f80516020613950833981519152805460ff60401b19169055604051600181527fc7f505b2f371ae2175ee4913f4499e1f2633a7b5936321eed1cdaeb6115181d290806020810161070b565b5f80516020613950833981519152805460ff60401b1916600160401b179055611438565b9050155f611409565b303b159150611401565b8591506113f7565b6064359060ff8216820361033a57565b6084359060ff8216820361033a57565b3461033a5760c036600319011261033a5761150b610480565b6044359060243561151a6114d2565b8342116115a2576115966107809461159d926040519060208201927fe48329057bfd03d55e49b547132e39cffd9c1820ad7b9d4c5307691425d15adf845260018060a01b038816604084015286606084015260808301526080825261157e82610aef565b61159160a4359360843593519020612583565b6125a9565b91826125c1565b61231e565b604051632341d78760e11b815260048101859052602490fd5b3461033a575f36600319011261033a576020600154604051908152f35b3461033a5760e036600319011261033a576115f1610480565b6115f9610496565b604435906064356116086114e2565b814211611711576001600160a01b038581165f8181527f5ab42ced628888259c08ac98db1eb0cf702fc1501344311d8b100cd1bfe4bb00602090815260409182902080546001810190915582517f6e71edae12b1b97f4d1f60370fef10105fa2faae0126114a169c64845d6126c99281019283529283019390935292861660608201526080810187905260a081019190915260c0808201949094529283526116ca9290916116b760e083610b0a565b61159160c4359360a43593519020612583565b6001600160a01b03848116908216036116e7575061078092612635565b6040516325c0072360e11b81526001600160a01b0391821660048201529084166024820152604490fd5b60405163313c898160e11b815260048101839052602490fd5b3461033a575f36600319011261033a5760206040517f9f2df0fed2c77648de5860a4cc508cd0818c85b8b8a1ab4ceeef8d981c8956a68152f35b3461033a57604036600319011261033a57610780600435611783610496565b90805f525f805160206139308339815191526020526117a8600160405f200154611fa3565b6121fb565b3461033a575f36600319011261033a5760205f54604051908152f35b3461033a57604036600319011261033a5760206117f86117e7610480565b61054e6117f2610496565b91611b6d565b54604051908152f35b3461033a57602036600319011261033a5761181a610480565b611822611f4d565b6001600160a01b0381811691821561188757600254604080516001600160a01b0394831685168152929093166020830152917f4ab5be82436d353e61ca18726e984e561f5c1cc7c6d38b29d2553c790434705a91a16001600160a01b03191617600255005b604051639c707f9560e01b8152600490fd5b3461033a57604036600319011261033a576118b2610480565b6024359063ffffffff8216820361033a576040916118e46118f2926118d5611db5565b506118de611db5565b50611ba5565b6118ec611db5565b50613014565b508151906118ff82610ab4565b54602065ffffffffffff821692838152019060301c8152825191825260018060d01b039051166020820152f35b3461033a575f36600319011261033a5760206040517f189ab7a9244df0848122154315af71fe140f3db0fe014031783b0946b8c9d2e38152f35b90600182811c92168015611994575b602083101461198057565b634e487b7160e01b5f52602260045260245ffd5b91607f1691611975565b604051905f825f80516020613870833981519152918254926119bf84611966565b80845293602091600191828116908115611a4b57506001146119eb575b505050610b3892500383610b0a565b5f9081527f42ad5d3e1f2e6e70edcf6d991b8a3023d3fca8047a131592f9edb9fd9b89d57d9590935091905b828410611a335750610b389450505081016020015f80806119dc565b85548885018301529485019487945092810192611a17565b9250505060209250610b3894915060ff191682840152151560051b8201015f80806119dc565b604051905f825f805160206138d083398151915291825492611a9284611966565b80845293602091600191828116908115611a4b5750600114611abd57505050610b3892500383610b0a565b5f9081527f5f9ce34815f8e11431c7bb75a8e6886a91478f7ffc1dbb0a98dc240fddd76b759590935091905b828410611b055750610b389450505081016020015f80806119dc565b85548885018301529485019487945092810192611ae9565b906101f48211611b54576001600160a01b0316908115611887576001556bffffffffffffffffffffffff60a01b6002541617600255565b6040516332e47cbf60e01b815260048101839052602490fd5b6001600160a01b03165f9081527f52c63247e1f47db19d5ce0460030c497f067ca4cebf71ba98eeadabe20bace016020526040902090565b6001600160a01b03165f9081527fe8b26c30fad74198956032a3533d903385d56dd795af560196f9c78d4af40d016020526040902090565b6001600160a01b03165f9081527f52c63247e1f47db19d5ce0460030c497f067ca4cebf71ba98eeadabe20bace006020526040902090565b634e487b7160e01b5f52601160045260245ffd5b5f198101919082116108d357565b919082039182116108d357565b90939291906001600160a01b0383161561095a57611c60612afb565b611c68612afb565b80516001600160401b038111610acf575f8051602061385083398151915290611c9a81611c958454611966565b612b29565b602080601f8311600114611d1b575096611cea9392611cd683611cdd94611d0d9a9b5f91611d10575b508160011b915f199060031b1c19161790565b9055612d0d565b611ce5612afb565b612443565b611cf2612afb565b5f55611cfd81611fcf565b50611d0781612080565b50612156565b50565b90508601515f611cc3565b5f805160206138508339815191525f5290601f1983167f2ae08a8e29253f69ac5d979a101956ab8f8d9d7ded63fa7a83b16fc47648eab0925f905b828210611d9d57505083611d0d999a93611cea979693611cdd9660019410611d85575b5050811b019055612d0d565b8701515f1960f88460031b161c191690555f80611d79565b80600185968294968b01518155019501930190611d56565b60405190611dc282610ab4565b5f6020838281520152565b6001600160a01b039290919083831615610a2b5783821615611e63576001545f948115159081611e55575b50611e3d575b508315611e3257600254610b3894611e2c929091611e279083906001600160a01b03168761328e565b611c37565b9161328e565b91610b38935061328e565b819450611e4d906127109261268d565b04925f611dfe565b90506002541615155f611df8565b60405163ec442f0560e01b81525f6004820152602490fd5b335f9081527f549fe2656c81d2947b3b913f0a53b9ea86c71e049f3a1b8aa23c09a8a05cb8d4602052604090207f9f2df0fed2c77648de5860a4cc508cd0818c85b8b8a1ab4ceeef8d981c8956a69060ff905b541615611ed85750565b6044906040519063e2517d3f60e01b82523360048301526024820152fd5b335f9081527fab71e3f32666744d246edff3f96e4bdafee2e9867098cdd118a979a7464786a8602052604090207f189ab7a9244df0848122154315af71fe140f3db0fe014031783b0946b8c9d2e39060ff90611ece565b335f9081527fb7db2dd08fcb62d0c9e08c51941cae53c267786a0b75803fb7960902fc8ef97d602052604090205460ff1615611f8557565b60405163e2517d3f60e01b81523360048201525f6024820152604490fd5b5f8181525f8051602061393083398151915260209081526040808320338452909152902060ff90611ece565b6001600160a01b0381165f9081527fb7db2dd08fcb62d0c9e08c51941cae53c267786a0b75803fb7960902fc8ef97d60205260409020545f805160206139308339815191529060ff1661207a575f808052602091825260408082206001600160a01b038516835290925220805460ff1916600117905533906001600160a01b03165f7f2f8788117e7eff1d82e926ec794901d17c78024a50270940304540a733656f0d8180a4600190565b50505f90565b6001600160a01b0381165f9081527f549fe2656c81d2947b3b913f0a53b9ea86c71e049f3a1b8aa23c09a8a05cb8d4602052604090207f9f2df0fed2c77648de5860a4cc508cd0818c85b8b8a1ab4ceeef8d981c8956a6905f805160206139308339815191529060ff905b541661214f575f828152602091825260408082206001600160a01b038616835290925220805460ff1916600117905533916001600160a01b0316907f2f8788117e7eff1d82e926ec794901d17c78024a50270940304540a733656f0d5f80a4600190565b5050505f90565b6001600160a01b0381165f9081527fab71e3f32666744d246edff3f96e4bdafee2e9867098cdd118a979a7464786a8602052604090207f189ab7a9244df0848122154315af71fe140f3db0fe014031783b0946b8c9d2e3905f805160206139308339815191529060ff906120eb565b5f8181525f80516020613930833981519152602081815260408084206001600160a01b038716855290915290912060ff906120eb565b5f8181525f80516020613930833981519152602081815260408084206001600160a01b03871685529091529091205460ff161561214f575f828152602091825260408082206001600160a01b038616835290925220805460ff1916905533916001600160a01b0316907ff6391f5c32d9c69d2a47ea670b442974b53935d1edc7fd64eb21e047a839171b5f80a4600190565b65ffffffffffff90814316808210156122cb57508181116122ac571690565b604490604051906306dfcc6560e41b8252603060048301526024820152fd5b6044925060405191637669fc0f60e11b835260048301526024820152fd5b90600182018092116108d357565b919082018092116108d357565b9081602091031261033a575190565b6040513d5f823e3d90fd5b6001600160a01b038181165f8181525f805160206138308339815191526020526040812080548685166001600160a01b031982168117909255610b38969416946123c49390928691907f3134e8a2e6d97e929a7e54011ea5485d7d196dd5f0ba4d4ef95803e8e3fc257f9080a46001600160a01b03165f9081527f52c63247e1f47db19d5ce0460030c497f067ca4cebf71ba98eeadabe20bace00602052604090205490565b916129c8565b5f805160206139108339815191528054806123e55750505f90565b805f198101116108d3577f88c46c62109817164d0ae1873830d4299a82e5daf552a3d8e989b27638fcf747915f52015460301c90565b8054806124285750505f90565b5f199181838101116108d3575f5260205f2001015460301c90565b9061244c612afb565b60405161245881610ab4565b6001808252602090603160f81b6020840152612472612afb565b8451906001600160401b038211610acf575f80516020613870833981519152926124a5836124a08654611966565b612ba2565b602091601f84116001146124ed57505090806124db92610b3896975f926124e2575b50508160011b915f199060031b1c19161790565b9055612e06565b015190505f806124c7565b5f805160206138708339815191525f908152601f198516987f42ad5d3e1f2e6e70edcf6d991b8a3023d3fca8047a131592f9edb9fd9b89d57d949390925b8a831061256c5750505090839291600194610b38989910612554575b505050811b019055612e06565b01515f1960f88460031b161c191690555f8080612547565b83850151865594850194938101939181019161252b565b60429061258e6126be565b906040519161190160f01b8352600283015260228201522090565b9161038d93916125b893612ee2565b90929192612f87565b6001600160a01b0381165f9081527f5ab42ced628888259c08ac98db1eb0cf702fc1501344311d8b100cd1bfe4bb0060205260409020805460018101909155909181900361260d575050565b6040516301d4b62360e61b81526001600160a01b039092166004830152602482015260449150fd5b6001600160a01b0380821692919083156105d15782169384156105b957806126837f8c5be1e5ebec7d5bd14f71427d1e84f3dd0314c0f7b2291e5b200ac8c7c3b9259461054e602095611b6d565b55604051908152a3565b818102929181159184041417156108d357565b81156126aa570490565b634e487b7160e01b5f52601260045260245ffd5b6126c661199e565b602081519101206126d5611a71565b602081519101206040519060208201927f8b73c3c69bb8fe3d512ecc4cf759cc79239f7b179b0ffacaa9a75d522b39400f8452604083015260608201524660808201523060a082015260a0815260c081018181106001600160401b03821117610acf5760405251902090565b600181111561038d57600181600160801b81101561285a575b6128026127f86127ee6127e46127da6127d061280e97600488600160401b6128099a101561284d575b640100000000811015612840575b62010000811015612833575b610100811015612827575b601081101561281b575b1015612813575b60030260011c6127c9818b6126a0565b0160011c90565b6127c9818a6126a0565b6127c981896126a0565b6127c981886126a0565b6127c981876126a0565b6127c981866126a0565b80936126a0565b821190565b900390565b60011b6127b9565b811c9160021b916127b2565b60081c91811b916127a8565b60101c9160081b9161279d565b60201c9160101b91612791565b60401c9160201b91612783565b50600160401b9050608082901c61275a565b82821061287857505090565b909180831860011c81841601905f805160206139108339815191525f5265ffffffffffff80835f80516020613970833981519152015416908416105f146128c25750915b9061286c565b92506128cd906122e9565b6128bc565b905b8383106128e15750505090565b90919280841860011c8185160190835f5265ffffffffffff808360205f20015416908416105f146129165750925b91906128d4565b9350612921906122e9565b61290f565b90813b156129a7575f805160206138f083398151915280546001600160a01b0319166001600160a01b0384169081179091557fbc7cd75a20ee27fd9adebab32041f755214dbc6bffa90cc0225b39da2e5c2d3b5f80a280511561298c57611d0d9161303d565b50503461299557565b60405163b398979f60e01b8152600490fd5b604051634c9c8ce360e01b81526001600160a01b0383166004820152602490fd5b6001600160a01b03808316939291908116908185141580612af2575b6129f0575b5050505050565b81612a65575b505082612a05575b80806129e9565b7fdec2bacdd2f05b59de34da9b523dff8be42e5e38e818c82fdb0bae774387a72491612a3c612a36612a4293611ba5565b916130b6565b906130e9565b604080516001600160d01b039384168152919092166020820152a25f80806129fe565b612a6e90611ba5565b612a77846130b6565b6001600160d01b03908180612a8b8561241b565b16911690038181116108d357612acf612ae8917fdec2bacdd2f05b59de34da9b523dff8be42e5e38e818c82fdb0bae774387a7249465ffffffffffff431690613775565b6040805192851683529316602082015291829190820190565b0390a25f806129f6565b508315156129e4565b60ff5f805160206139508339815191525460401c1615612b1757565b604051631afcd79f60e31b8152600490fd5b601f8111612b35575050565b5f805160206138508339815191525f527f2ae08a8e29253f69ac5d979a101956ab8f8d9d7ded63fa7a83b16fc47648eab0906020601f840160051c83019310612b98575b601f0160051c01905b818110612b8d575050565b5f8155600101612b82565b9091508190612b79565b601f8111612bae575050565b5f805160206138708339815191525f527f42ad5d3e1f2e6e70edcf6d991b8a3023d3fca8047a131592f9edb9fd9b89d57d906020601f840160051c83019310612c11575b601f0160051c01905b818110612c06575050565b5f8155600101612bfb565b9091508190612bf2565b601f8111612c27575050565b5f805160206138908339815191525f527f46a2803e59a4de4e7a4c574b1243f25977ac4c77d5a1a4a609b5394cebb4a2aa906020601f840160051c83019310612c8a575b601f0160051c01905b818110612c7f575050565b5f8155600101612c74565b9091508190612c6b565b601f8111612ca0575050565b5f805160206138d08339815191525f527f5f9ce34815f8e11431c7bb75a8e6886a91478f7ffc1dbb0a98dc240fddd76b75906020601f840160051c83019310612d03575b601f0160051c01905b818110612cf8575050565b5f8155600101612ced565b9091508190612ce4565b9081516001600160401b038111610acf575f8051602061389083398151915290612d4081612d3b8454611966565b612c1b565b602080601f8311600114612d7557508190612d719394955f926124e25750508160011b915f199060031b1c19161790565b9055565b90601f19831695612db35f805160206138908339815191525f527f46a2803e59a4de4e7a4c574b1243f25977ac4c77d5a1a4a609b5394cebb4a2aa90565b925f905b888210612dee57505083600195969710612dd6575b505050811b019055565b01515f1960f88460031b161c191690555f8080612dcc565b80600185968294968601518155019501930190612db7565b9081516001600160401b038111610acf575f805160206138d083398151915290612e3981612e348454611966565b612c94565b602080601f8311600114612e6a57508190612d719394955f926124e25750508160011b915f199060031b1c19161790565b90601f19831695612ea85f805160206138d08339815191525f527f5f9ce34815f8e11431c7bb75a8e6886a91478f7ffc1dbb0a98dc240fddd76b7590565b925f905b888210612eca57505083600195969710612dd657505050811b019055565b80600185968294968601518155019501930190612eac565b91907f7fffffffffffffffffffffffffffffff5d576e7357a4501ddfe92f46681b20a08411612f5e579160209360809260ff5f9560405194855216868401526040830152606082015282805260015afa15612f59575f516001600160a01b03811615612f4f57905f905f90565b505f906001905f90565b612313565b5050505f9160039190565b60041115612f7357565b634e487b7160e01b5f52602160045260245ffd5b612f9081612f69565b80612f99575050565b612fa281612f69565b60018103612fbc5760405163f645eedf60e01b8152600490fd5b612fc581612f69565b60028103612fe65760405163fce698f760e01b815260048101839052602490fd5b80612ff2600392612f69565b14612ffa5750565b6040516335e2f38360e21b81526004810191909152602490fd5b8054821015613029575f5260205f2001905f90565b634e487b7160e01b5f52603260045260245ffd5b905f8091602081519101845af480806130a3575b1561306057505061038d6133eb565b1561308857604051639996b31560e01b81526001600160a01b03919091166004820152602490fd5b3d15155f036123135760405163d6bda27560e01b8152600490fd5b503d1515806130515750813b1515613051565b6001600160d01b03908181116130ca571690565b604490604051906306dfcc6560e41b825260d060048301526024820152fd5b906001600160d01b039081806130fe8561241b565b169116019081116108d35761311c9165ffffffffffff431690613775565b9091565b905f805160206138b083398151915280548281018091116108d35781556001600160a01b03838116801594909290851561327a57508381540381555b825f7fddf252ad1be2c89b69c2b068fc378daa952ba7f163c4a11628f55a4df523b3ef6020604051888152a3546001600160d01b03949085811161325357506131a4846130b6565b9065ffffffffffff43169186806131b96123ca565b169116018681116108d3576131ce9083613677565b5050613221575b505f805160206138308339815191526020527fd4fb29e10204005f1a39963c6862b79a755e22f0177c53f05cdc3786c702f974545f928352604090922054610b389450811691166129c8565b61322a846130b6565b85806132346123ca565b16911690039485116108d357610b389461324d91613677565b506131d5565b604051630e58ae9360e11b815260048101919091526001600160d01b036024820152604490fd5b61328390611bdd565b84815401905561315c565b9291906001600160a01b038085168015918215613398576132d16132c0865f805160206138b0833981519152546122f7565b5f805160206138b083398151915255565b83169081613384576132fe855f805160206138b083398151915254035f805160206138b083398151915255565b6040518581527fddf252ad1be2c89b69c2b068fc378daa952ba7f163c4a11628f55a4df523b3ef90602090a3613339575b610b3892936134e0565b5f805160206138b083398151915254936001600160d01b03851161335e57935061332f565b604051630e58ae9360e11b8152600481018690526001600160d01b036024820152604490fd5b61338d84611bdd565b8581540190556132fe565b6133a187611bdd565b548581106133bb578590036133b588611bdd565b556132d1565b60405163391434e360e21b81526001600160a01b0389166004820152602481019190915260448101869052606490fd5b604051903d82523d5f602084013e60203d830101604052565b6001600160a01b03908116919082156134a0575b613421826130b6565b6001600160d01b03939084806134356123ca565b16911690039384116108d357613456610b389465ffffffffffff4316613677565b50505f9081525f8051602061383083398151915260205260408120549080527fd4fb29e10204005f1a39963c6862b79a755e22f0177c53f05cdc3786c702f97454821691166129c8565b6134a9826130b6565b6001600160d01b039081806134bc6123ca565b169116019081116108d3576134d99065ffffffffffff4316613677565b5050613418565b6001600160a01b03908116929181908415613573575b1690811561352c575b610b38935f525f805160206138308339815191526020528060405f205416915f5260405f205416906129c8565b613535836130b6565b6001600160d01b03949085806135496123ca565b16911690039485116108d35761356a610b389565ffffffffffff4316613677565b505093506134ff565b905061357e836130b6565b6001600160d01b03919082806135926123ca565b169116019182116108d3576135b0839265ffffffffffff4316613677565b50506134f6565b5f80516020613910833981519152908154600160401b811015610acf5760018101808455811015613029575f92909252805160209091015160301b65ffffffffffff191665ffffffffffff91909116175f805160206139708339815191529190910155565b8054600160401b811015610acf5761363991600182018155613014565b61366457815160209092015160301b65ffffffffffff191665ffffffffffff92909216919091179055565b634e487b7160e01b5f525f60045260245ffd5b5f8051602061391083398151915254919291801561374c5761369b6136bd91611c29565b5f805160206139108339815191525f525f805160206139708339815191520190565b9081549165ffffffffffff9081841691831680831161373a57869203613702576136fb92509065ffffffffffff82549181199060301b169116179055565b60301c9190565b505061373590613721613713610b2b565b65ffffffffffff9092168252565b6001600160d01b03851660208201526135b7565b6136fb565b604051632520601d60e01b8152600490fd5b506137709061375c613713610b2b565b6001600160d01b03841660208201526135b7565b5f9190565b8054929392801561380a5761378c61379791611c29565b825f5260205f200190565b9182549265ffffffffffff9182851692811680841161373a578793036137d657506136fb92509065ffffffffffff82549181199060301b169116179055565b915050613735916137f66137e8610b2b565b65ffffffffffff9093168352565b6001600160d01b038616602083015261361c565b50906137709161381b6137e8610b2b565b6001600160d01b038516602083015261361c56fee8b26c30fad74198956032a3533d903385d56dd795af560196f9c78d4af40d0052c63247e1f47db19d5ce0460030c497f067ca4cebf71ba98eeadabe20bace03a16a46d94261c7517cc8ff89f61c0ce93598e3c849801011dee649a6a557d10252c63247e1f47db19d5ce0460030c497f067ca4cebf71ba98eeadabe20bace0452c63247e1f47db19d5ce0460030c497f067ca4cebf71ba98eeadabe20bace02a16a46d94261c7517cc8ff89f61c0ce93598e3c849801011dee649a6a557d103360894a13ba1a3210667c828492db98dca3e2076cc3735a920a3ca505d382bbce8b26c30fad74198956032a3533d903385d56dd795af560196f9c78d4af40d0202dd7bc7dec4dceedda775e58dd541e08a116c6c53815c0bd028192f7b626800f0c57e16840df040f15088dc2f81fe391c3923bec73e23a9662efc9c229c6a0088c46c62109817164d0ae1873830d4299a82e5daf552a3d8e989b27638fcf748a26469706673582212207563e40005d9100fdeb72512c699511612b3f5157b700182f2b959e5c33eac1064736f6c63430008180033","linkReferences":{}},"methodIdentifiers":{"CLOCK_MODE()":"4bf5d7e9","DEFAULT_ADMIN_ROLE()":"a217fddf","DOMAIN_SEPARATOR()":"3644e515","MINTER_ROLE()":"d5391393","UPGRADER_ROLE()":"f72c0d8b","UPGRADE_INTERFACE_VERSION()":"ad3cb1cc","allowance(address,address)":"dd62ed3e","approve(address,uint256)":"095ea7b3","balanceOf(address)":"70a08231","burn(uint256)":"42966c68","checkpoints(address,uint32)":"f1127ed8","clock()":"91ddadf4","decimals()":"313ce567","delegate(address)":"5c19a95c","delegateBySig(address,uint256,uint256,uint8,bytes32,bytes32)":"c3cda520","delegates(address)":"587cde1e","eip712Domain()":"84b0196e","getPastTotalSupply(uint256)":"8e539e8c","getPastVotes(address,uint256)":"3a46b1a8","getRoleAdmin(bytes32)":"248a9ca3","getVotes(address)":"9ab24eb0","grantRole(bytes32,address)":"2f2ff15d","hasRole(bytes32,address)":"91d14854","initialize(string,string,uint256,address)":"bd3a13f6","initializeV2(uint256,address)":"2490fe36","maxSupply()":"d5abeb01","mint(address,uint256)":"40c10f19","name()":"06fdde03","nonces(address)":"7ecebe00","numCheckpoints(address)":"6fcfff45","permit(address,address,uint256,uint256,uint8,bytes32,bytes32)":"d505accf","proxiableUUID()":"52d1902d","renounceRole(bytes32,address)":"36568abe","revokeRole(bytes32,address)":"d547741f","setMaxSupply(uint256)":"6f8b44b0","setTransferTax(uint256)":"8b525903","setTreasury(address)":"f0f44260","supportsInterface(bytes4)":"01ffc9a7","symbol()":"95d89b41","totalSupply()":"18160ddd","transfer(address,uint256)":"a9059cbb","transferFrom(address,address,uint256)":"23b872dd","transferTaxBps()":"c4e48398","treasury()":"61d027b3","upgradeToAndCall(address,bytes)":"4f1ef286"},"id":115}