{"abi":[{"type":"constructor","inputs":[{"name":"baseURI_","type":"string","internalType":"string"},{"name":"admin","type":"address","internalType":"address"},{"name":"soulbound_","type":"bool","internalType":"bool"}],"stateMutability":"nonpayable"},{"type":"function","name":"DEFAULT_ADMIN_ROLE","inputs":[],"outputs":[{"name":"","type":"bytes32","internalType":"bytes32"}],"stateMutability":"view"},{"type":"function","name":"MINTER_ROLE","inputs":[],"outputs":[{"name":"","type":"bytes32","internalType":"bytes32"}],"stateMutability":"view"},{"type":"function","name":"approve","inputs":[{"name":"to","type":"address","internalType":"address"},{"name":"tokenId","type":"uint256","internalType":"uint256"}],"outputs":[],"stateMutability":"nonpayable"},{"type":"function","name":"balanceOf","inputs":[{"name":"owner","type":"address","internalType":"address"}],"outputs":[{"name":"","type":"uint256","internalType":"uint256"}],"stateMutability":"view"},{"type":"function","name":"batchMint","inputs":[{"name":"recipients","type":"address[]","internalType":"address[]"},{"name":"uris","type":"string[]","internalType":"string[]"}],"outputs":[{"name":"tokenIds","type":"uint256[]","internalType":"uint256[]"}],"stateMutability":"nonpayable"},{"type":"function","name":"getApproved","inputs":[{"name":"tokenId","type":"uint256","internalType":"uint256"}],"outputs":[{"name":"","type":"address","internalType":"address"}],"stateMutability":"view"},{"type":"function","name":"getRoleAdmin","inputs":[{"name":"role","type":"bytes32","internalType":"bytes32"}],"outputs":[{"name":"","type":"bytes32","internalType":"bytes32"}],"stateMutability":"view"},{"type":"function","name":"grantRole","inputs":[{"name":"role","type":"bytes32","internalType":"bytes32"},{"name":"account","type":"address","internalType":"address"}],"outputs":[],"stateMutability":"nonpayable"},{"type":"function","name":"hasRole","inputs":[{"name":"role","type":"bytes32","internalType":"bytes32"},{"name":"account","type":"address","internalType":"address"}],"outputs":[{"name":"","type":"bool","internalType":"bool"}],"stateMutability":"view"},{"type":"function","name":"isApprovedForAll","inputs":[{"name":"owner","type":"address","internalType":"address"},{"name":"operator","type":"address","internalType":"address"}],"outputs":[{"name":"","type":"bool","internalType":"bool"}],"stateMutability":"view"},{"type":"function","name":"mint","inputs":[{"name":"to","type":"address","internalType":"address"},{"name":"uri","type":"string","internalType":"string"}],"outputs":[{"name":"tokenId","type":"uint256","internalType":"uint256"}],"stateMutability":"nonpayable"},{"type":"function","name":"name","inputs":[],"outputs":[{"name":"","type":"string","internalType":"string"}],"stateMutability":"view"},{"type":"function","name":"ownerOf","inputs":[{"name":"tokenId","type":"uint256","internalType":"uint256"}],"outputs":[{"name":"","type":"address","internalType":"address"}],"stateMutability":"view"},{"type":"function","name":"renounceRole","inputs":[{"name":"role","type":"bytes32","internalType":"bytes32"},{"name":"callerConfirmation","type":"address","internalType":"address"}],"outputs":[],"stateMutability":"nonpayable"},{"type":"function","name":"revokeRole","inputs":[{"name":"role","type":"bytes32","internalType":"bytes32"},{"name":"account","type":"address","internalType":"address"}],"outputs":[],"stateMutability":"nonpayable"},{"type":"function","name":"safeTransferFrom","inputs":[{"name":"from","type":"address","internalType":"address"},{"name":"to","type":"address","internalType":"address"},{"name":"tokenId","type":"uint256","internalType":"uint256"}],"outputs":[],"stateMutability":"nonpayable"},{"type":"function","name":"safeTransferFrom","inputs":[{"name":"from","type":"address","internalType":"address"},{"name":"to","type":"address","internalType":"address"},{"name":"tokenId","type":"uint256","internalType":"uint256"},{"name":"data","type":"bytes","internalType":"bytes"}],"outputs":[],"stateMutability":"nonpayable"},{"type":"function","name":"setApprovalForAll","inputs":[{"name":"operator","type":"address","internalType":"address"},{"name":"approved","type":"bool","internalType":"bool"}],"outputs":[],"stateMutability":"nonpayable"},{"type":"function","name":"setBaseURI","inputs":[{"name":"newBaseURI","type":"string","internalType":"string"}],"outputs":[],"stateMutability":"nonpayable"},{"type":"function","name":"setSoulbound","inputs":[{"name":"enabled","type":"bool","internalType":"bool"}],"outputs":[],"stateMutability":"nonpayable"},{"type":"function","name":"soulbound","inputs":[],"outputs":[{"name":"","type":"bool","internalType":"bool"}],"stateMutability":"view"},{"type":"function","name":"supportsInterface","inputs":[{"name":"interfaceId","type":"bytes4","internalType":"bytes4"}],"outputs":[{"name":"","type":"bool","internalType":"bool"}],"stateMutability":"view"},{"type":"function","name":"symbol","inputs":[],"outputs":[{"name":"","type":"string","internalType":"string"}],"stateMutability":"view"},{"type":"function","name":"tokenURI","inputs":[{"name":"tokenId","type":"uint256","internalType":"uint256"}],"outputs":[{"name":"","type":"string","internalType":"string"}],"stateMutability":"view"},{"type":"function","name":"totalSupply","inputs":[],"outputs":[{"name":"","type":"uint256","internalType":"uint256"}],"stateMutability":"view"},{"type":"function","name":"transferFrom","inputs":[{"name":"from","type":"address","internalType":"address"},{"name":"to","type":"address","internalType":"address"},{"name":"tokenId","type":"uint256","internalType":"uint256"}],"outputs":[],"stateMutability":"nonpayable"},{"type":"event","name":"Approval","inputs":[{"name":"owner","type":"address","indexed":true,"internalType":"address"},{"name":"approved","type":"address","indexed":true,"internalType":"address"},{"name":"tokenId","type":"uint256","indexed":true,"internalType":"uint256"}],"anonymous":false},{"type":"event","name":"ApprovalForAll","inputs":[{"name":"owner","type":"address","indexed":true,"internalType":"address"},{"name":"operator","type":"address","indexed":true,"internalType":"address"},{"name":"approved","type":"bool","indexed":false,"internalType":"bool"}],"anonymous":false},{"type":"event","name":"BadgeMinted","inputs":[{"name":"to","type":"address","indexed":true,"internalType":"address"},{"name":"tokenId","type":"uint256","indexed":true,"internalType":"uint256"},{"name":"uri","type":"string","indexed":false,"internalType":"string"}],"anonymous":false},{"type":"event","name":"BaseURIUpdated","inputs":[{"name":"newBaseURI","type":"string","indexed":false,"internalType":"string"}],"anonymous":false},{"type":"event","name":"BatchMetadataUpdate","inputs":[{"name":"_fromTokenId","type":"uint256","indexed":false,"internalType":"uint256"},{"name":"_toTokenId","type":"uint256","indexed":false,"internalType":"uint256"}],"anonymous":false},{"type":"event","name":"MetadataUpdate","inputs":[{"name":"_tokenId","type":"uint256","indexed":false,"internalType":"uint256"}],"anonymous":false},{"type":"event","name":"RoleAdminChanged","inputs":[{"name":"role","type":"bytes32","indexed":true,"internalType":"bytes32"},{"name":"previousAdminRole","type":"bytes32","indexed":true,"internalType":"bytes32"},{"name":"newAdminRole","type":"bytes32","indexed":true,"internalType":"bytes32"}],"anonymous":false},{"type":"event","name":"RoleGranted","inputs":[{"name":"role","type":"bytes32","indexed":true,"internalType":"bytes32"},{"name":"account","type":"address","indexed":true,"internalType":"address"},{"name":"sender","type":"address","indexed":true,"internalType":"address"}],"anonymous":false},{"type":"event","name":"RoleRevoked","inputs":[{"name":"role","type":"bytes32","indexed":true,"internalType":"bytes32"},{"name":"account","type":"address","indexed":true,"internalType":"address"},{"name":"sender","type":"address","indexed":true,"internalType":"address"}],"anonymous":false},{"type":"event","name":"SoulboundSet","inputs":[{"name":"enabled","type":"bool","indexed":false,"internalType":"bool"}],"anonymous":false},{"type":"event","name":"Transfer","inputs":[{"name":"from","type":"address","indexed":true,"internalType":"address"},{"name":"to","type":"address","indexed":true,"internalType":"address"},{"name":"tokenId","type":"uint256","indexed":true,"internalType":"uint256"}],"anonymous":false},{"type":"error","name":"AccessControlBadConfirmation","inputs":[]},{"type":"error","name":"AccessControlUnauthorizedAccount","inputs":[{"name":"account","type":"address","internalType":"address"},{"name":"neededRole","type":"bytes32","internalType":"bytes32"}]},{"type":"error","name":"AlreadyHoldsBadge","inputs":[{"name":"holder","type":"address","internalType":"address"}]},{"type":"error","name":"ERC721IncorrectOwner","inputs":[{"name":"sender","type":"address","internalType":"address"},{"name":"tokenId","type":"uint256","internalType":"uint256"},{"name":"owner","type":"address","internalType":"address"}]},{"type":"error","name":"ERC721InsufficientApproval","inputs":[{"name":"operator","type":"address","internalType":"address"},{"name":"tokenId","type":"uint256","internalType":"uint256"}]},{"type":"error","name":"ERC721InvalidApprover","inputs":[{"name":"approver","type":"address","internalType":"address"}]},{"type":"error","name":"ERC721InvalidOperator","inputs":[{"name":"operator","type":"address","internalType":"address"}]},{"type":"error","name":"ERC721InvalidOwner","inputs":[{"name":"owner","type":"address","internalType":"address"}]},{"type":"error","name":"ERC721InvalidReceiver","inputs":[{"name":"receiver","type":"address","internalType":"address"}]},{"type":"error","name":"ERC721InvalidSender","inputs":[{"name":"sender","type":"address","internalType":"address"}]},{"type":"error","name":"ERC721NonexistentToken","inputs":[{"name":"tokenId","type":"uint256","internalType":"uint256"}]},{"type":"error","name":"Soulbound","inputs":[]},{"type":"error","name":"ZeroAddress","inputs":[]}],"bytecode":{"object":"0x608060405234620004d157620021d1803803806200001d816200050a565b928339810190606081830312620004d15780516001600160401b0390818111620004d157820190601f91848382011215620004d15780518281116200032b57602090601f199262000074838588850116016200050a565b97828952838383010111620004d15782905f5b838110620004d55750505f918801015284810151946001600160a01b0386168603620004d1576040015193841515809503620004d157620000c7620004ea565b91601383527f446546692050726f746f636f6c2042616467650000000000000000000000000081840152620000fb620004ea565b936003948581526222282160e91b8382015284518781116200032b575f546001968782811c92168015620004c6575b868310146200030c57818784931162000473575b50859087831160011462000414575f9262000408575b50505f1982891b1c191690861b175f555b8051908782116200032b578554908682811c92168015620003fd575b858310146200030c578186849311620003aa575b5084908683116001146200034b575f926200033f575b50505f1982881b1c191690851b1784555b88519586116200032b576009548481811c9116801562000320575b838210146200030c57838111620002c3575b50819286116001146200025757505083929183916200023a985f956200024b575b50501b925f19911b1c1916176009555b60ff8019600a5416911617600a55620002338162000530565b50620005a0565b50604051611b4f9081620006428239f35b015193505f806200020a565b859492919395169760095f52835f20935f905b8a8210620002ab575050846200023a991062000291575b50505050811b016009556200021a565b01519060f8845f19921b161c191690555f80808062000281565b8088859782949686015181550196019301906200026a565b60095f52825f208480890160051c820192858a1062000302575b0160051c019085905b828110620002f6575050620001e9565b5f8155018590620002e6565b92508192620002dd565b634e487b7160e01b5f52602260045260245ffd5b90607f1690620001d7565b634e487b7160e01b5f52604160045260245ffd5b015190505f80620001ab565b908488941691845f52865f20925f5b888282106200039357505084116200037b575b505050811b018455620001bc565b01515f19838a1b60f8161c191690555f80806200036d565b8385015186558b979095019493840193016200035a565b909150865f52845f208680850160051c820192878610620003f3575b918991869594930160051c01915b828110620003e457505062000195565b5f8155859450899101620003d4565b92508192620003c6565b91607f169162000181565b015190505f8062000154565b9085899416915f8052875f20925f5b898282106200045c575050841162000444575b505050811b015f5562000165565b01515f19838b1b60f8161c191690555f808062000436565b8385015186558c9790950194938401930162000423565b9091505f8052855f208780850160051c820192888610620004bc575b918a91869594930160051c01915b828110620004ad5750506200013e565b5f81558594508a91016200049d565b925081926200048f565b91607f16916200012a565b5f80fd5b8181018301518a820184015284920162000087565b60408051919082016001600160401b038111838210176200032b57604052565b6040519190601f01601f191682016001600160401b038111838210176200032b57604052565b6001600160a01b03165f8181525f80516020620021b1833981519152602052604090205460ff166200059b575f8181525f80516020620021b183398151915260205260408120805460ff191660011790553391905f80516020620021918339815191528180a4600190565b505f90565b6001600160a01b03165f8181527fa4bfd7afe708e2e87e7f0e2ad9b4d545417e0f795f57b5c5ab5d799c565a04f460205260409020547f9f2df0fed2c77648de5860a4cc508cd0818c85b8b8a1ab4ceeef8d981c8956a6919060ff166200063b57815f52600760205260405f20815f5260205260405f20600160ff1982541617905533915f80516020620021918339815191525f80a4600190565b50505f9056fe6080604090808252600480361015610015575f80fd5b5f3560e01c91826301ffc9a714610d5d5750816306fdde0314610cb0578163081812fc14610c78578163095ea7b314610b9d5781630fad0f5114610b7a57816318160ddd14610b5c57816323b872dd14610b45578163248a9ca314610b1b5781632f2ff15d14610af357816336568abe14610aaf57816342842e0e14610a8157816355f804b3146108975781636352211e1461086857816364ba144e1461061e57816370a08231146105f257816391d14854146105ae57816395d89b41146104cb578163a217fddf146104b1578163a22cb465146103fa578163b88d4fde14610390578163c87b56dd1461035a578163d0def52114610267578163d53913931461022d578163d547741f146101f1578163df30e54b1461018f575063e985e9c51461013e575f80fd5b3461018b578060031936011261018b57602090610159610e41565b610161610e57565b9060018060a01b038091165f5260058452825f2091165f52825260ff815f20541690519015158152f35b5f80fd5b90503461018b57602036600319011261018b57359081151580920361018b577f82787f4f20a62cb9ca52da6896e7ca9185ac3ab7db717a721f7d8e71d989d3de916020916101db61143e565b60ff19600a541660ff831617600a5551908152a1005b823461018b578060031936011261018b5761022b91356102266001610214610e57565b93835f5260076020525f20015461150d565b6115ad565b005b823461018b575f36600319011261018b57602090517f9f2df0fed2c77648de5860a4cc508cd0818c85b8b8a1ab4ceeef8d981c8956a68152f35b90503461018b578160031936011261018b57610281610e41565b9060243567ffffffffffffffff811161018b576102a19036908301610ea2565b906102aa611494565b6001600160a01b03841692831561034c576102c485611285565b610335576008546020908781877f6854c057dc92416510857b3daad5434a4202a4d192cf0f85d496d91974efaea3888861030a858e61030282611221565b600855611621565b61031e610318368484610f6f565b8661186a565b61032c8651928392836111aa565b0390a351908152f35b855163027e1e8360e21b8152908101849052602490fd5b855163d92e233d60e01b8152fd5b823461018b57602036600319011261018b5761037961038c92356112bb565b9051918291602083526020830190610e1c565b0390f35b3461018b57608036600319011261018b576103a9610e41565b6103b1610e57565b6044359060643567ffffffffffffffff811161018b573660238201121561018b5761022b948160246103e893369301359101610f6f565b926103f4838383610fdd565b336119d0565b823461018b578060031936011261018b57610413610e41565b906024359182151580930361018b57331561049b576001600160a01b03169283156104865750335f526005602052805f20835f52602052805f2060ff1981541660ff8416179055519081527f17307eab39ab6107e8899845ad3d59bd9653f200f220920489ca2b5937696c3160203392a3005b836024925191630b61174360e31b8352820152fd5b815163a9fbf51f60e01b81525f81860152602490fd5b823461018b575f36600319011261018b57602090515f8152f35b823461018b575f36600319011261018b578051905f9082600192600154936104f285610fa5565b90818452602095866001821691825f1461058c575050600114610531575b505061038c9291610522910385610f31565b51928284938452830190610e1c565b9085925060015f527fb10e2d527612073b26eecdfd717e6a320cf44b4afac2b0732d9fcbe2b7fa0cf6915f925b8284106105745750505082010181610522610510565b8054848a01860152889550879490930192810161055e565b60ff19168682015292151560051b850190920192508391506105229050610510565b823461018b578060031936011261018b576020916105ca610e57565b90355f5260078352815f209060018060a01b03165f52825260ff815f20541690519015158152f35b823461018b57602036600319011261018b57602090610617610612610e41565b611285565b9051908152f35b90503461018b578160031936011261018b5767ffffffffffffffff813581811161018b5761064f9036908401610ed0565b909160249060243590811161018b5761066b9036908601610ed0565b949093610676611494565b8584036108335761068a84979695976111d1565b9661069787519889610f31565b8488526106a3856111d1565b95602095868a0197601f19013689375f5b8181106106f95789518881528b51818a018190528190818d01908c908c5f5b8281106106e257505050500390f35b8351855286955093810193928101926001016106d3565b989997986001600160a01b038061071961071484868a6111e9565b61120d565b16156108235761073061061261071484868a6111e9565b6107fd5760089081549161074383611221565b905561075c8261075761071486888c6111e9565b611621565b61077a61077461076d85888a611243565b3691610f6f565b8361186a565b8a518310156107eb57908c7f6854c057dc92416510857b3daad5434a4202a4d192cf0f85d496d91974efaea38493838d8f60019860051b0101526107c261071486898d6111e9565b6107de6107d0878b8d611243565b9095519384931695836111aa565b0390a301999897996106b4565b88603289634e487b7160e01b5f52525ffd5b869061080f6107148e948b968a6111e9565b925163027e1e8360e21b8152921690820152fd5b8b5163d92e233d60e01b81528790fd5b865162461bcd60e51b8152602081840152600f60248201526e098cadccee8d040dad2e6dac2e8c6d608b1b6044820152606490fd5b823461018b57602036600319011261018b5761088660209235611404565b90516001600160a01b039091168152f35b90503461018b5760208060031936011261018b5767ffffffffffffffff90823582811161018b576108cb9036908501610ea2565b9390926108d661143e565b8411610a6e57506108e8600954610fa5565b601f8111610a0b575b505f90601f841160011461096357507f6741b2fc379fad678116fe3d4d4b9a1a184ab53ba36b86ad0fa66340b1ab41ad936109458480610953945f91610958575b508160011b915f199060031b1c19161790565b6009555b51928392836111aa565b0390a1005b90508501355f610932565b90601f19841660095f527f6e1540171b6c0c960b71a7020d9f60077f6af931a8bbf590da0223dacf75c7af925f905b8282106109f3575050917f6741b2fc379fad678116fe3d4d4b9a1a184ab53ba36b86ad0fa66340b1ab41ad95918561095394106109da575b5050600184811b01600955610949565b8401355f19600387901b60f8161c191690555f806109ca565b80600185968294968901358155019501930190610992565b60095f527f6e1540171b6c0c960b71a7020d9f60077f6af931a8bbf590da0223dacf75c7af601f850160051c81019160208610610a64575b601f0160051c01905b818110610a5957506108f1565b5f8155600101610a4c565b9091508190610a43565b604190634e487b7160e01b5f525260245ffd5b823461018b5761022b90610a9436610e6d565b91925192610aa184610f01565b5f84526103f4838383610fdd565b823461018b578060031936011261018b57610ac8610e57565b90336001600160a01b03831603610ae4575061022b91356115ad565b5163334bd91960e11b81529050fd5b823461018b578060031936011261018b5761022b9135610b166001610214610e57565b61152f565b823461018b57602036600319011261018b57602091355f52600782526001815f2001549051908152f35b3461018b5761022b610b5636610e6d565b91610fdd565b823461018b575f36600319011261018b576020906008549051908152f35b823461018b575f36600319011261018b5760209060ff600a541690519015158152f35b823461018b578060031936011261018b57610bb6610e41565b91602435610bc381611404565b33151580610c65575b80610c3e575b610c28576001600160a01b039485169482918691167f8c5be1e5ebec7d5bd14f71427d1e84f3dd0314c0f7b2291e5b200ac8c7c3b9255f80a45f526020525f20906001600160601b0360a01b8254161790555f80f35b835163a9fbf51f60e01b81523381850152602490fd5b5060018060a01b0381165f526005602052835f20335f5260205260ff845f20541615610bd2565b506001600160a01b038116331415610bcc565b823461018b57602036600319011261018b578160209235610c9881611404565b505f52825260018060a01b03815f2054169051908152f35b823461018b575f36600319011261018b578051905f90825f5492610cd384610fa5565b808352602094600190866001821691825f1461058c575050600114610d0457505061038c9291610522910385610f31565b5f80805286935091907f290decd9548b62a8d60345a988386fc84ba6bc95484008f6362f93160ef3e5635b828410610d455750505082010181610522610510565b8054848a018601528895508794909301928101610d2f565b903461018b57602036600319011261018b57359063ffffffff60e01b821680920361018b57602091637965db0b60e01b8114908115610d9e575b5015158152f35b632483248360e11b811491508115610db8575b5083610d97565b6380ac58cd60e01b811491508115610dea575b8115610dd9575b5083610db1565b6301ffc9a760e01b14905083610dd2565b635b5e139f60e01b81149150610dcb565b5f5b838110610e0c5750505f910152565b8181015183820152602001610dfd565b90602091610e3581518092818552858086019101610dfb565b601f01601f1916010190565b600435906001600160a01b038216820361018b57565b602435906001600160a01b038216820361018b57565b606090600319011261018b576001600160a01b0390600435828116810361018b5791602435908116810361018b579060443590565b9181601f8401121561018b5782359167ffffffffffffffff831161018b576020838186019501011161018b57565b9181601f8401121561018b5782359167ffffffffffffffff831161018b576020808501948460051b01011161018b57565b6020810190811067ffffffffffffffff821117610f1d57604052565b634e487b7160e01b5f52604160045260245ffd5b90601f8019910116810190811067ffffffffffffffff821117610f1d57604052565b67ffffffffffffffff8111610f1d57601f01601f191660200190565b929192610f7b82610f53565b91610f896040519384610f31565b82948184528183011161018b578281602093845f960137010152565b90600182811c92168015610fd3575b6020831014610fbf57565b634e487b7160e01b5f52602260045260245ffd5b91607f1691610fb4565b6001600160a01b03918216929091831561119257815f526020926002845260409482865f2054169433151580611107575b50600286151591826110d6575b835f5260038152885f2060018154019055865f5252865f20826001600160601b0360a01b82541617905584875192877fddf252ad1be2c89b69c2b068fc378daa952ba7f163c4a11628f55a4df523b3ef5f80a460ff600a541690816110ce575b50806110c6575b6110b7575016928383036110965750505050565b6064945051926364283d7b60e01b8452600484015260248301526044820152fd5b63a4420a9560e01b8152600490fd5b506001611082565b90505f61107b565b5f87815260046020526040812080546001600160a01b03191690558881526003825289902080545f1901905561101b565b80611151575b15611118575f61100e565b868587611135576024915190637e27328960e01b82526004820152fd5b604491519063177e802f60e01b82523360048301526024820152fd5b503386148015611176575b8061110d5750845f52600481523384885f2054161461110d565b50855f5260058152865f20335f52815260ff875f20541661115c565b604051633250574960e11b81525f6004820152602490fd5b90918060409360208452816020850152848401375f828201840152601f01601f1916010190565b67ffffffffffffffff8111610f1d5760051b60200190565b91908110156111f95760051b0190565b634e487b7160e01b5f52603260045260245ffd5b356001600160a01b038116810361018b5790565b5f19811461122f5760010190565b634e487b7160e01b5f52601160045260245ffd5b91908110156111f95760051b81013590601e198136030182121561018b57019081359167ffffffffffffffff831161018b57602001823603811361018b579190565b6001600160a01b031680156112a3575f52600360205260405f205490565b6040516322718ad960e21b81525f6004820152602490fd5b6112c481611404565b5060408051916112d383610f01565b5f8352805f52602060068152825f20938351945f868254916112f483610fa5565b9283835286830194600191886001821691825f146113e45750506001146113a7575b505061132492500387610f31565b815195861561139d5780516113605750505050611342919250611404565b505f815161134f81610f01565b525161135a81610f01565b5f815290565b909192935061138e8661137f61139a9751988996888089019101610dfb565b84019151809386840190610dfb565b01038084520182610f31565b90565b9550505050505090565b8792505f52815f20905f915b8583106113cb57505061132493508201015f80611316565b81948484839695965492010152019101899287926113b3565b925093505061132494915060ff19168552151560051b8201015f80611316565b5f818152600260205260409020546001600160a01b0316908115611426575090565b60249060405190637e27328960e01b82526004820152fd5b335f9081527f6d5257204ebe7d88fd91ae87941cb2dd9d8062b64ae5a2bd2d28ec40b9fbf6df602052604090205460ff161561147657565b60405163e2517d3f60e01b81523360048201525f6024820152604490fd5b335f9081527fa4bfd7afe708e2e87e7f0e2ad9b4d545417e0f795f57b5c5ab5d799c565a04f460205260409020547f9f2df0fed2c77648de5860a4cc508cd0818c85b8b8a1ab4ceeef8d981c8956a69060ff16156114ef5750565b6044906040519063e2517d3f60e01b82523360048301526024820152fd5b805f52600760205260405f20335f5260205260ff60405f205416156114ef5750565b90815f52600760205260405f209060018060a01b031690815f5260205260ff60405f205416155f146115a757815f52600760205260405f20815f5260205260405f20600160ff1982541617905533917f2f8788117e7eff1d82e926ec794901d17c78024a50270940304540a733656f0d5f80a4600190565b50505f90565b90815f52600760205260405f209060018060a01b031690815f5260205260ff60405f2054165f146115a757815f52600760205260405f20815f5260205260405f2060ff19815416905533917ff6391f5c32d9c69d2a47ea670b442974b53935d1edc7fd64eb21e047a839171b5f80a4600190565b604080519261162f84610f01565b5f84526001600160a01b039383851693841561185357825f5260209560028752845f2054168015159081611822575b865f5260038852855f2060018154019055845f5260028852855f20876001600160601b0360a01b82541617905584878751927fddf252ad1be2c89b69c2b068fc378daa952ba7f163c4a11628f55a4df523b3ef5f80a460ff600a54168061181b575b80611813575b6110b757506117fc573b6116dc575b5050505050565b846117199184959697945180938192630a85bd0160e11b968784523360048501525f60248501526044840152608060648401526084830190610e1c565b03815f895af15f91816117bc575b50611785575050503d5f1461177d573d9261174184610f53565b9361174e83519586610f31565b84523d5f8286013e5b83519384611777578251633250574960e11b815260048101859052602490fd5b84925001fd5b606092611757565b9194506001600160e01b0319909116036117a55750505f808080806116d5565b602492505190633250574960e11b82526004820152fd5b9091508681813d83116117f5575b6117d48183610f31565b8101031261018b57516001600160e01b03198116810361018b57905f611727565b503d6117ca565b83516339e3563760e11b81525f6004820152602490fd5b5060016116c6565b50816116c0565b5f85815260046020526040812080546001600160a01b03191690558181526003895286902080545f1901905561165e565b8351633250574960e11b81525f6004820152602490fd5b919091805f526020906006825260405f2084519467ffffffffffffffff8611610f1d576118978254610fa5565b601f811161198d575b508390601f87116001146119095795806118f2927ff8e1a15aba9398e019f0b49df1a4fde98ee17ae345cb5f6b5e2c27f5033e8ce797985f926118fe575b50508160011b915f199060031b1c19161790565b90555b604051908152a1565b015190505f806118de565b90601f19871691835f52855f20925f5b81811061197657509160019391897ff8e1a15aba9398e019f0b49df1a4fde98ee17ae345cb5f6b5e2c27f5033e8ce7999a941061195e575b505050811b0190556118f5565b01515f1960f88460031b161c191690555f8080611951565b929387600181928786015181550195019301611919565b825f52845f20601f880160051c8101918689106119c6575b601f0160051c01905b8181106119bb57506118a0565b5f81556001016119ae565b90915081906119a5565b9293909193843b6119e2575050505050565b604051630a85bd0160e11b8082526001600160a01b039586166004830152938516602482015260448101919091526080606482015260209594909316939290859082908190611a35906084830190610e1c565b03815f885af15f9181611ad9575b50611aa2575050503d5f14611a9a573d91611a5d83610f53565b92611a6b6040519485610f31565b83523d5f8285013e5b82519283611a9557604051633250574960e11b815260048101849052602490fd5b019050fd5b606091611a74565b9193506001600160e01b031990911603611ac157505f808080806116d5565b60249060405190633250574960e11b82526004820152fd5b9091508581813d8311611b12575b611af18183610f31565b8101031261018b57516001600160e01b03198116810361018b57905f611a43565b503d611ae756fea2646970667358221220b367a96c7e1d51b5e509c16c8691c6fc379a2d98f9e4ea802e3ac0b6db4f1ae764736f6c634300081800332f8788117e7eff1d82e926ec794901d17c78024a50270940304540a733656f0d6d5257204ebe7d88fd91ae87941cb2dd9d8062b64ae5a2bd2d28ec40b9fbf6df","linkReferences":{}},"methodIdentifiers":{"DEFAULT_ADMIN_ROLE()":"a217fddf","MINTER_ROLE()":"d5391393","approve(address,uint256)":"095ea7b3","balanceOf(address)":"70a08231","batchMint(address[],string[])":"64ba144e","getApproved(uint256)":"081812fc","getRoleAdmin(bytes32)":"248a9ca3","grantRole(bytes32,address)":"2f2ff15d","hasRole(bytes32,address)":"91d14854","isApprovedForAll(address,address)":"e985e9c5","mint(address,string)":"d0def521","name()":"06fdde03","ownerOf(uint256)":"6352211e","renounceRole(bytes32,address)":"36568abe","revokeRole(bytes32,address)":"d547741f","safeTransferFrom(address,address,uint256)":"42842e0e","safeTransferFrom(address,address,uint256,bytes)":"b88d4fde","setApprovalForAll(address,bool)":"a22cb465","setBaseURI(string)":"55f804b3","setSoulbound(bool)":"df30e54b","soulbound()":"0fad0f51","supportsInterface(bytes4)":"01ffc9a7","symbol()":"95d89b41","tokenURI(uint256)":"c87b56dd","totalSupply()":"18160ddd","transferFrom(address,address,uint256)":"23b872dd"},"id":116}