{"abi":[{"type":"constructor","inputs":[],"stateMutability":"nonpayable"},{"type":"function","name":"DEFAULT_ADMIN_ROLE","inputs":[],"outputs":[{"name":"","type":"bytes32","internalType":"bytes32"}],"stateMutability":"view"},{"type":"function","name":"PAUSER_ROLE","inputs":[],"outputs":[{"name":"","type":"bytes32","internalType":"bytes32"}],"stateMutability":"view"},{"type":"function","name":"STRATEGY_ROLE","inputs":[],"outputs":[{"name":"","type":"bytes32","internalType":"bytes32"}],"stateMutability":"view"},{"type":"function","name":"UPGRADER_ROLE","inputs":[],"outputs":[{"name":"","type":"bytes32","internalType":"bytes32"}],"stateMutability":"view"},{"type":"function","name":"UPGRADE_INTERFACE_VERSION","inputs":[],"outputs":[{"name":"","type":"string","internalType":"string"}],"stateMutability":"view"},{"type":"function","name":"allowance","inputs":[{"name":"owner","type":"address","internalType":"address"},{"name":"spender","type":"address","internalType":"address"}],"outputs":[{"name":"","type":"uint256","internalType":"uint256"}],"stateMutability":"view"},{"type":"function","name":"approve","inputs":[{"name":"spender","type":"address","internalType":"address"},{"name":"value","type":"uint256","internalType":"uint256"}],"outputs":[{"name":"","type":"bool","internalType":"bool"}],"stateMutability":"nonpayable"},{"type":"function","name":"asset","inputs":[],"outputs":[{"name":"","type":"address","internalType":"address"}],"stateMutability":"view"},{"type":"function","name":"balanceOf","inputs":[{"name":"account","type":"address","internalType":"address"}],"outputs":[{"name":"","type":"uint256","internalType":"uint256"}],"stateMutability":"view"},{"type":"function","name":"convertToAssets","inputs":[{"name":"shares","type":"uint256","internalType":"uint256"}],"outputs":[{"name":"","type":"uint256","internalType":"uint256"}],"stateMutability":"view"},{"type":"function","name":"convertToShares","inputs":[{"name":"assets","type":"uint256","internalType":"uint256"}],"outputs":[{"name":"","type":"uint256","internalType":"uint256"}],"stateMutability":"view"},{"type":"function","name":"decimals","inputs":[],"outputs":[{"name":"","type":"uint8","internalType":"uint8"}],"stateMutability":"view"},{"type":"function","name":"deposit","inputs":[{"name":"assets","type":"uint256","internalType":"uint256"},{"name":"receiver","type":"address","internalType":"address"}],"outputs":[{"name":"shares","type":"uint256","internalType":"uint256"}],"stateMutability":"nonpayable"},{"type":"function","name":"getRoleAdmin","inputs":[{"name":"role","type":"bytes32","internalType":"bytes32"}],"outputs":[{"name":"","type":"bytes32","internalType":"bytes32"}],"stateMutability":"view"},{"type":"function","name":"grantRole","inputs":[{"name":"role","type":"bytes32","internalType":"bytes32"},{"name":"account","type":"address","internalType":"address"}],"outputs":[],"stateMutability":"nonpayable"},{"type":"function","name":"hasRole","inputs":[{"name":"role","type":"bytes32","internalType":"bytes32"},{"name":"account","type":"address","internalType":"address"}],"outputs":[{"name":"","type":"bool","internalType":"bool"}],"stateMutability":"view"},{"type":"function","name":"initialize","inputs":[{"name":"asset_","type":"address","internalType":"address"},{"name":"name_","type":"string","internalType":"string"},{"name":"symbol_","type":"string","internalType":"string"},{"name":"maxDepositPerUser_","type":"uint256","internalType":"uint256"},{"name":"oracle_","type":"address","internalType":"address"},{"name":"admin","type":"address","internalType":"address"}],"outputs":[],"stateMutability":"nonpayable"},{"type":"function","name":"maxDeposit","inputs":[{"name":"","type":"address","internalType":"address"}],"outputs":[{"name":"","type":"uint256","internalType":"uint256"}],"stateMutability":"view"},{"type":"function","name":"maxDepositPerUser","inputs":[],"outputs":[{"name":"","type":"uint256","internalType":"uint256"}],"stateMutability":"view"},{"type":"function","name":"maxMint","inputs":[{"name":"","type":"address","internalType":"address"}],"outputs":[{"name":"","type":"uint256","internalType":"uint256"}],"stateMutability":"view"},{"type":"function","name":"maxRedeem","inputs":[{"name":"owner","type":"address","internalType":"address"}],"outputs":[{"name":"","type":"uint256","internalType":"uint256"}],"stateMutability":"view"},{"type":"function","name":"maxWithdraw","inputs":[{"name":"owner","type":"address","internalType":"address"}],"outputs":[{"name":"","type":"uint256","internalType":"uint256"}],"stateMutability":"view"},{"type":"function","name":"mint","inputs":[{"name":"shares","type":"uint256","internalType":"uint256"},{"name":"receiver","type":"address","internalType":"address"}],"outputs":[{"name":"assets","type":"uint256","internalType":"uint256"}],"stateMutability":"nonpayable"},{"type":"function","name":"name","inputs":[],"outputs":[{"name":"","type":"string","internalType":"string"}],"stateMutability":"view"},{"type":"function","name":"oracle","inputs":[],"outputs":[{"name":"","type":"address","internalType":"contract IOracle"}],"stateMutability":"view"},{"type":"function","name":"pause","inputs":[],"outputs":[],"stateMutability":"nonpayable"},{"type":"function","name":"paused","inputs":[],"outputs":[{"name":"","type":"bool","internalType":"bool"}],"stateMutability":"view"},{"type":"function","name":"previewDeposit","inputs":[{"name":"assets","type":"uint256","internalType":"uint256"}],"outputs":[{"name":"","type":"uint256","internalType":"uint256"}],"stateMutability":"view"},{"type":"function","name":"previewMint","inputs":[{"name":"shares","type":"uint256","internalType":"uint256"}],"outputs":[{"name":"","type":"uint256","internalType":"uint256"}],"stateMutability":"view"},{"type":"function","name":"previewRedeem","inputs":[{"name":"shares","type":"uint256","internalType":"uint256"}],"outputs":[{"name":"","type":"uint256","internalType":"uint256"}],"stateMutability":"view"},{"type":"function","name":"previewWithdraw","inputs":[{"name":"assets","type":"uint256","internalType":"uint256"}],"outputs":[{"name":"","type":"uint256","internalType":"uint256"}],"stateMutability":"view"},{"type":"function","name":"proxiableUUID","inputs":[],"outputs":[{"name":"","type":"bytes32","internalType":"bytes32"}],"stateMutability":"view"},{"type":"function","name":"redeem","inputs":[{"name":"shares","type":"uint256","internalType":"uint256"},{"name":"receiver","type":"address","internalType":"address"},{"name":"owner_","type":"address","internalType":"address"}],"outputs":[{"name":"assets","type":"uint256","internalType":"uint256"}],"stateMutability":"nonpayable"},{"type":"function","name":"renounceRole","inputs":[{"name":"role","type":"bytes32","internalType":"bytes32"},{"name":"callerConfirmation","type":"address","internalType":"address"}],"outputs":[],"stateMutability":"nonpayable"},{"type":"function","name":"reportYield","inputs":[{"name":"amount","type":"uint256","internalType":"uint256"}],"outputs":[],"stateMutability":"nonpayable"},{"type":"function","name":"revokeRole","inputs":[{"name":"role","type":"bytes32","internalType":"bytes32"},{"name":"account","type":"address","internalType":"address"}],"outputs":[],"stateMutability":"nonpayable"},{"type":"function","name":"setMaxDepositPerUser","inputs":[{"name":"newLimit","type":"uint256","internalType":"uint256"}],"outputs":[],"stateMutability":"nonpayable"},{"type":"function","name":"setOracle","inputs":[{"name":"newOracle","type":"address","internalType":"address"}],"outputs":[],"stateMutability":"nonpayable"},{"type":"function","name":"setStrategy","inputs":[{"name":"newStrategy","type":"address","internalType":"address"}],"outputs":[],"stateMutability":"nonpayable"},{"type":"function","name":"strategy","inputs":[],"outputs":[{"name":"","type":"address","internalType":"address"}],"stateMutability":"view"},{"type":"function","name":"supportsInterface","inputs":[{"name":"interfaceId","type":"bytes4","internalType":"bytes4"}],"outputs":[{"name":"","type":"bool","internalType":"bool"}],"stateMutability":"view"},{"type":"function","name":"symbol","inputs":[],"outputs":[{"name":"","type":"string","internalType":"string"}],"stateMutability":"view"},{"type":"function","name":"totalAssets","inputs":[],"outputs":[{"name":"","type":"uint256","internalType":"uint256"}],"stateMutability":"view"},{"type":"function","name":"totalSupply","inputs":[],"outputs":[{"name":"","type":"uint256","internalType":"uint256"}],"stateMutability":"view"},{"type":"function","name":"transfer","inputs":[{"name":"to","type":"address","internalType":"address"},{"name":"value","type":"uint256","internalType":"uint256"}],"outputs":[{"name":"","type":"bool","internalType":"bool"}],"stateMutability":"nonpayable"},{"type":"function","name":"transferFrom","inputs":[{"name":"from","type":"address","internalType":"address"},{"name":"to","type":"address","internalType":"address"},{"name":"value","type":"uint256","internalType":"uint256"}],"outputs":[{"name":"","type":"bool","internalType":"bool"}],"stateMutability":"nonpayable"},{"type":"function","name":"unpause","inputs":[],"outputs":[],"stateMutability":"nonpayable"},{"type":"function","name":"upgradeToAndCall","inputs":[{"name":"newImplementation","type":"address","internalType":"address"},{"name":"data","type":"bytes","internalType":"bytes"}],"outputs":[],"stateMutability":"payable"},{"type":"function","name":"withdraw","inputs":[{"name":"assets","type":"uint256","internalType":"uint256"},{"name":"receiver","type":"address","internalType":"address"},{"name":"owner_","type":"address","internalType":"address"}],"outputs":[{"name":"shares","type":"uint256","internalType":"uint256"}],"stateMutability":"nonpayable"},{"type":"event","name":"Approval","inputs":[{"name":"owner","type":"address","indexed":true,"internalType":"address"},{"name":"spender","type":"address","indexed":true,"internalType":"address"},{"name":"value","type":"uint256","indexed":false,"internalType":"uint256"}],"anonymous":false},{"type":"event","name":"Deposit","inputs":[{"name":"sender","type":"address","indexed":true,"internalType":"address"},{"name":"owner","type":"address","indexed":true,"internalType":"address"},{"name":"assets","type":"uint256","indexed":false,"internalType":"uint256"},{"name":"shares","type":"uint256","indexed":false,"internalType":"uint256"}],"anonymous":false},{"type":"event","name":"Initialized","inputs":[{"name":"version","type":"uint64","indexed":false,"internalType":"uint64"}],"anonymous":false},{"type":"event","name":"MaxDepositUpdated","inputs":[{"name":"oldLimit","type":"uint256","indexed":false,"internalType":"uint256"},{"name":"newLimit","type":"uint256","indexed":false,"internalType":"uint256"}],"anonymous":false},{"type":"event","name":"OracleUpdated","inputs":[{"name":"oldOracle","type":"address","indexed":true,"internalType":"address"},{"name":"newOracle","type":"address","indexed":true,"internalType":"address"}],"anonymous":false},{"type":"event","name":"Paused","inputs":[{"name":"account","type":"address","indexed":false,"internalType":"address"}],"anonymous":false},{"type":"event","name":"RoleAdminChanged","inputs":[{"name":"role","type":"bytes32","indexed":true,"internalType":"bytes32"},{"name":"previousAdminRole","type":"bytes32","indexed":true,"internalType":"bytes32"},{"name":"newAdminRole","type":"bytes32","indexed":true,"internalType":"bytes32"}],"anonymous":false},{"type":"event","name":"RoleGranted","inputs":[{"name":"role","type":"bytes32","indexed":true,"internalType":"bytes32"},{"name":"account","type":"address","indexed":true,"internalType":"address"},{"name":"sender","type":"address","indexed":true,"internalType":"address"}],"anonymous":false},{"type":"event","name":"RoleRevoked","inputs":[{"name":"role","type":"bytes32","indexed":true,"internalType":"bytes32"},{"name":"account","type":"address","indexed":true,"internalType":"address"},{"name":"sender","type":"address","indexed":true,"internalType":"address"}],"anonymous":false},{"type":"event","name":"StrategyUpdated","inputs":[{"name":"oldStrategy","type":"address","indexed":true,"internalType":"address"},{"name":"newStrategy","type":"address","indexed":true,"internalType":"address"}],"anonymous":false},{"type":"event","name":"Transfer","inputs":[{"name":"from","type":"address","indexed":true,"internalType":"address"},{"name":"to","type":"address","indexed":true,"internalType":"address"},{"name":"value","type":"uint256","indexed":false,"internalType":"uint256"}],"anonymous":false},{"type":"event","name":"Unpaused","inputs":[{"name":"account","type":"address","indexed":false,"internalType":"address"}],"anonymous":false},{"type":"event","name":"Upgraded","inputs":[{"name":"implementation","type":"address","indexed":true,"internalType":"address"}],"anonymous":false},{"type":"event","name":"Withdraw","inputs":[{"name":"sender","type":"address","indexed":true,"internalType":"address"},{"name":"receiver","type":"address","indexed":true,"internalType":"address"},{"name":"owner","type":"address","indexed":true,"internalType":"address"},{"name":"assets","type":"uint256","indexed":false,"internalType":"uint256"},{"name":"shares","type":"uint256","indexed":false,"internalType":"uint256"}],"anonymous":false},{"type":"error","name":"AccessControlBadConfirmation","inputs":[]},{"type":"error","name":"AccessControlUnauthorizedAccount","inputs":[{"name":"account","type":"address","internalType":"address"},{"name":"neededRole","type":"bytes32","internalType":"bytes32"}]},{"type":"error","name":"AddressEmptyCode","inputs":[{"name":"target","type":"address","internalType":"address"}]},{"type":"error","name":"DepositLimitExceeded","inputs":[{"name":"attempted","type":"uint256","internalType":"uint256"},{"name":"limit","type":"uint256","internalType":"uint256"}]},{"type":"error","name":"ERC1967InvalidImplementation","inputs":[{"name":"implementation","type":"address","internalType":"address"}]},{"type":"error","name":"ERC1967NonPayable","inputs":[]},{"type":"error","name":"ERC20InsufficientAllowance","inputs":[{"name":"spender","type":"address","internalType":"address"},{"name":"allowance","type":"uint256","internalType":"uint256"},{"name":"needed","type":"uint256","internalType":"uint256"}]},{"type":"error","name":"ERC20InsufficientBalance","inputs":[{"name":"sender","type":"address","internalType":"address"},{"name":"balance","type":"uint256","internalType":"uint256"},{"name":"needed","type":"uint256","internalType":"uint256"}]},{"type":"error","name":"ERC20InvalidApprover","inputs":[{"name":"approver","type":"address","internalType":"address"}]},{"type":"error","name":"ERC20InvalidReceiver","inputs":[{"name":"receiver","type":"address","internalType":"address"}]},{"type":"error","name":"ERC20InvalidSender","inputs":[{"name":"sender","type":"address","internalType":"address"}]},{"type":"error","name":"ERC20InvalidSpender","inputs":[{"name":"spender","type":"address","internalType":"address"}]},{"type":"error","name":"ERC4626ExceededMaxDeposit","inputs":[{"name":"receiver","type":"address","internalType":"address"},{"name":"assets","type":"uint256","internalType":"uint256"},{"name":"max","type":"uint256","internalType":"uint256"}]},{"type":"error","name":"ERC4626ExceededMaxMint","inputs":[{"name":"receiver","type":"address","internalType":"address"},{"name":"shares","type":"uint256","internalType":"uint256"},{"name":"max","type":"uint256","internalType":"uint256"}]},{"type":"error","name":"ERC4626ExceededMaxRedeem","inputs":[{"name":"owner","type":"address","internalType":"address"},{"name":"shares","type":"uint256","internalType":"uint256"},{"name":"max","type":"uint256","internalType":"uint256"}]},{"type":"error","name":"ERC4626ExceededMaxWithdraw","inputs":[{"name":"owner","type":"address","internalType":"address"},{"name":"assets","type":"uint256","internalType":"uint256"},{"name":"max","type":"uint256","internalType":"uint256"}]},{"type":"error","name":"EnforcedPause","inputs":[]},{"type":"error","name":"ExpectedPause","inputs":[]},{"type":"error","name":"FailedCall","inputs":[]},{"type":"error","name":"InvalidInitialization","inputs":[]},{"type":"error","name":"InvalidStrategy","inputs":[]},{"type":"error","name":"NotInitializing","inputs":[]},{"type":"error","name":"SafeERC20FailedOperation","inputs":[{"name":"token","type":"address","internalType":"address"}]},{"type":"error","name":"UUPSUnauthorizedCallContext","inputs":[]},{"type":"error","name":"UUPSUnsupportedProxiableUUID","inputs":[{"name":"slot","type":"bytes32","internalType":"bytes32"}]},{"type":"error","name":"ZeroAssets","inputs":[]},{"type":"error","name":"ZeroShares","inputs":[]}],"bytecode":{"object":"0x60a080604052346100cc57306080527ff0c57e16840df040f15088dc2f81fe391c3923bec73e23a9662efc9c229c6a009081549060ff8260401c166100bd57506001600160401b036002600160401b031982821601610078575b60405161280b90816100d18239608051818181610a6d0152610b220152f35b6001600160401b031990911681179091556040519081527fc7f505b2f371ae2175ee4913f4499e1f2633a7b5936321eed1cdaeb6115181d290602090a15f8080610059565b63f92ee8a960e01b8152600490fd5b5f80fdfe604060808152600480361015610013575f80fd5b5f3560e01c90816301e1d1141461178657816301ffc9a71461173257816306fdde031461166c57816307a2d13a14610d24578163095ea7b3146115c55781630a28a477146115a757816318160ddd1461157d57816323b872dd1461154157816323ee76e4146114ee578163248a9ca3146114b85781632f2ff15d14611490578163313ce5671461144457816333a100ca146113bc57816336568abe1461137857816338d52e0f146113445781633f4ba83a146112cf578163402d267d1461044f57816347b70db014610d295781634cdad50614610d245781634f1ef28614610ad157816352d1902d14610a5a578163580b7c2e14610a205781635c975abb146109f15781636e553f651461096257816370a08231146103b55781637adbf973146108fa5781637dc0d1d0146108d257816382e5310c146108b45781638456cb591461084f57816391d14854146107ff57816394bf804d1461078957816395d89b411461068b578163a217fddf14610671578163a8c62e7614610649578163a9059cbb14610619578163ad3cb1cc146105d9578163b3d7f6b9146105bb578163b460af9414610518578163ba08765214610454578163c63d75b61461044f578163c6e6f59214610275578163ce96cb7714610427578163d547741f146103e1578163d905777e146103b5578163dd62ed3e14610370578163e203ad06146102b457508063e63ab1e91461027a578063ef8b30f7146102755763f72c0d8b14610238575f80fd5b34610271575f36600319011261027157602090517f189ab7a9244df0848122154315af71fe140f3db0fe014031783b0946b8c9d2e38152f35b5f80fd5b61194b565b5034610271575f36600319011261027157602090517f65d7a28e3265b37a6474929f336521b332c1681b933f6cb9f3376673440d862a8152f35b8234610271576020366003190112610271578135907f928286c473ded01ff8bf61a1986f14a0579066072fa8261442d9fea514d93a4c805f525f80516020612776833981519152602052815f20335f5260205260ff825f2054161561035257508115610343575f8051602061279683398151915254610341908390309033906001600160a01b031661229b565b005b51630cb65c7760e21b81529050fd5b905163e2517d3f60e01b815233818501526024810191909152604490fd5b823461027157806003193601126102715760209061038c61180f565b61039d610397611825565b91611a70565b9060018060a01b03165f528252805f20549051908152f35b8234610271576020366003190112610271576020906103da6103d561180f565b611aa8565b9051908152f35b823461027157806003193601126102715761034191356104226001610404611825565b93835f525f805160206127768339815191526020525f200154611e4b565b61216c565b8234610271576020366003190112610271576020906103da61044a6103d561180f565b611b26565b61183b565b82346102715761046336611916565b92919361047460025f541415611a24565b60025f556104806121eb565b841561050a576001600160a01b0384165f9081525f80516020612736833981519152602052839020548086116104d5575050836104cb916104c2602096611b26565b94859133612460565b60015f5551908152f35b9251632e52afbb60e21b81526001600160a01b0390941690840190815260208101949094525060408301529081906060010390fd5b8251639811e0c760e01b8152fd5b82346102715761052736611916565b92919361053860025f541415611a24565b60025f556105446121eb565b84156105ad5761055661044a85611aa8565b8086116105785750506104cb908461056f602096611b5d565b94859233612460565b9251633fa733bb60e21b81526001600160a01b0390941690840190815260208101949094525060408301529081906060010390fd5b8251630cb65c7760e21b8152fd5b8234610271576020366003190112610271576103da60209235611aef565b8234610271575f366003190112610271578051610615916105f982611860565b60058252640352e302e360dc1b602083015251918291826117a2565b0390f35b823461027157806003193601126102715760209061064261063861180f565b6024359033611c93565b5160018152f35b8234610271575f3660031901126102715760035490516001600160a01b039091168152602090f35b8234610271575f36600319011261027157602090515f8152f35b8234610271575f3660031901126102715780515f7f52c63247e1f47db19d5ce0460030c497f067ca4cebf71ba98eeadabe20bace048054906106cc826119ec565b8085529160209160019182811690811561075c5750600114610704575b61061586886106fa82890383611890565b51918291826117a2565b5f90815293507f46a2803e59a4de4e7a4c574b1243f25977ac4c77d5a1a4a609b5394cebb4a2aa5b838510610749575050505081016020016106fa82610615866106e9565b805486860184015293820193810161072c565b9050610615979550869350602092506106fa94915060ff191682840152151560051b8201019294866106e9565b9050346102715781600319360112610271578035916107a6611825565b916107b560025f541415611a24565b60025f556107c16121eb565b83156107f157506104cb836107e06107da602096611aef565b85612215565b6107e981611aef565b809433612399565b9051639811e0c760e01b8152fd5b823461027157806003193601126102715760209161081b611825565b90355f525f805160206127768339815191528352815f209060018060a01b03165f52825260ff815f20541690519015158152f35b8234610271575f3660031901126102715760207f62e78cea01bee320cd4e420270b5ea74000d11b0c9f74754ebdbfc544b05a2589161088c611dd2565b6108946121eb565b5f805160206127b6833981519152805460ff1916600117905551338152a1005b8234610271575f366003190112610271576020906001549051908152f35b8234610271575f3660031901126102715760025490516001600160a01b039091168152602090f35b346102715760203660031901126102715761091361180f565b61091b611d7c565b6002546001600160a01b0391821691829082167f078c3b417dadf69374a59793b829c52001247130433427049317bde56607b1b75f80a36001600160a01b03191617600255005b823461027157806003193601126102715781359061097e611825565b61098c60025f541415611a24565b60025f556109986121eb565b82156109e157806109ac846109be93612215565b6109b584611b94565b93849133612399565b81156109d2576020925060015f5551908152f35b51639811e0c760e01b81529050fd5b8151630cb65c7760e21b81528490fd5b8234610271575f3660031901126102715760209060ff5f805160206127b6833981519152541690519015158152f35b8234610271575f36600319011261027157602090517f928286c473ded01ff8bf61a1986f14a0579066072fa8261442d9fea514d93a4c8152f35b8234610271575f366003190112610271577f00000000000000000000000000000000000000000000000000000000000000006001600160a01b03163003610ac457602090517f360894a13ba1a3210667c828492db98dca3e2076cc3735a920a3ca505d382bbc8152f35b5163703e46dd60e11b8152fd5b90508160031936011261027157610ae661180f565b602492833567ffffffffffffffff8111610271573660238201121561027157610b17903690868187013591016118b2565b6001600160a01b03927f00000000000000000000000000000000000000000000000000000000000000008416308114908115610cf6575b50610ce6577f189ab7a9244df0848122154315af71fe140f3db0fe014031783b0946b8c9d2e393845f526020945f805160206127768339815191528652845f20335f52865260ff855f20541615610cc9575083516352d1902d60e01b81529082169480828881895afa9182915f93610c99575b5050610bdb575050505191634c9c8ce360e01b8352820152fd5b85938591887f360894a13ba1a3210667c828492db98dca3e2076cc3735a920a3ca505d382bbc91828103610c845750843b15610c70575080546001600160a01b0319168317905551907fbc7cd75a20ee27fd9adebab32041f755214dbc6bffa90cc0225b39da2e5c2d3b5f80a2825115610c5a57506103419250612684565b91505034610c6457005b63b398979f60e01b8152fd5b8251634c9c8ce360e01b8152808801859052fd5b8351632a87526960e21b815280890191909152fd5b9080929350813d8311610cc2575b610cb18183611890565b810103126102715751905f80610bc1565b503d610ca7565b845163e2517d3f60e01b8152338189015280890191909152604490fd5b825163703e46dd60e11b81528590fd5b9050847f360894a13ba1a3210667c828492db98dca3e2076cc3735a920a3ca505d382bbc541614155f610b4e565b6117e9565b82346102715760c036600319011261027157610d4361180f565b67ffffffffffffffff929060243584811161027157610d6590369084016118f8565b9260443585811161027157610d7d90369085016118f8565b946001600160a01b0394608435868116908190036102715760a4359187831693848403610271577ff0c57e16840df040f15088dc2f81fe391c3923bec73e23a9662efc9c229c6a009889549760ff89891c161596838a16998a15806112c8575b6001809c1490816112be575b1590816112b5575b506112a55767ffffffffffffffff1981168b178d5588611286575b5015611256571697610e1c612358565b610e24612358565b865198602099885f8c830163313ce56760e01b8152858452610e4584611860565b835190855afa5f51918a528061124c575b80611241575b156112395760ff16895b1561123057905b5f8051602061279683398151915280546001600160a81b03191660a09390931b60ff60a01b1692909217179055610ea2612358565b610eaa612358565b825182811161121d577f52c63247e1f47db19d5ce0460030c497f067ca4cebf71ba98eeadabe20bace039080610ee083546119ec565b958c601f978881116111ae575b50508c90878311600114611125575f9261111a575b50505f19600383901b1c1916908a1b1790555b8a5191821161110757507f52c63247e1f47db19d5ce0460030c497f067ca4cebf71ba98eeadabe20bace0491610f4b83546119ec565b8181116110a6575b5088908211600114611022578190610fd7969798999a9b5f92611017575b50505f19600383901b1c191690881b1790555b610f8c612358565b610f94612358565b855f5560643586556bffffffffffffffffffffffff60a01b6002541617600255610fbd81611f26565b50610fc781611fb0565b50610fd181612056565b50611e79565b50610fde57005b7fc7f505b2f371ae2175ee4913f4499e1f2633a7b5936321eed1cdaeb6115181d29368ff000000000000000019815416905551908152a1005b015190508b80610f71565b601f1982169a835f527f46a2803e59a4de4e7a4c574b1243f25977ac4c77d5a1a4a609b5394cebb4a2aa9b5f5b818110611091575091899a9b9c9184610fd7999a9b959410611079575b505050811b019055610f84565b01515f1960f88460031b161c191690558b808061106c565b838301518e559c8a019c928b01928b0161104f565b835f527f46a2803e59a4de4e7a4c574b1243f25977ac4c77d5a1a4a609b5394cebb4a2aa8280850160051c8201928c86106110fe575b0160051c019089905b8281106110f3575050610f53565b5f81550189906110e5565b925081926110dc565b604190634e487b7160e01b5f525260245ffd5b015190508e80610f02565b8c9350908d91601f198416865f527f2ae08a8e29253f69ac5d979a101956ab8f8d9d7ded63fa7a83b16fc47648eab0935f905b82821061118d5750508411611175575b505050811b019055610f15565b01515f1960f88460031b161c191690558e8080611168565b91929395968291958786015181550195019301908f918f9695949392611158565b90919250845f52877f2ae08a8e29253f69ac5d979a101956ab8f8d9d7ded63fa7a83b16fc47648eab09181860160051c8301938610611214575b918e91869594930160051c01915b82811061120657508e9150610eed565b5f81558594508e91016111f6565b925081926111e8565b604182634e487b7160e01b5f525260245ffd5b50601290610e6d565b505f80610e66565b5060ff811115610e5c565b508a3d1015610e56565b875162461bcd60e51b81526020818c0152600a6024820152692d32b9379030b236b4b760b11b6044820152606490fd5b68ffffffffffffffffff191668010000000000000001178c558d610e0c565b895163f92ee8a960e01b81528c90fd5b9050158f610df1565b303b159150610de9565b5088610ddd565b8234610271575f366003190112610271576112e8611dd2565b5f805160206127b68339815191529182549060ff821615611336577f5db9ee0a495bf2e6ff9c91a7834c1ba4fdd244a5e8aa4e537bd38aeae4b073aa602084868560ff1916905551338152a1005b8251638dfc202b60e01b8152fd5b8234610271575f366003190112610271575f805160206127968339815191525490516001600160a01b039091168152602090f35b8234610271578060031936011261027157611391611825565b90336001600160a01b038316036113ad5750610341913561216c565b5163334bd91960e11b81529050fd5b8234610271576020366003190112610271576113d661180f565b906113df611d7c565b6001600160a01b0382811691821561143557506103419350816003549182167fe4cec16b1a7e6b7979e923da619a8b1e5fd0f0fb6e5c1cf647f350430ee61ca95f80a36001600160a01b03191617600355611e79565b51632711b74d60e11b81528490fd5b8234610271575f3660031901126102715760ff5f805160206127968339815191525460a01c169060ff821161147d576020925051908152f35b601183634e487b7160e01b5f525260245ffd5b823461027157806003193601126102715761034191356114b36001610404611825565b6120fc565b823461027157602036600319011261027157602091355f525f8051602061277683398151915282526001815f2001549051908152f35b905034610271576020366003190112610271577f78131f623b32212db92dadc6f203f2aeb863f71ce1a61b8eafc1ece42816c5ba90359161152d611d7c565b6001548151908152836020820152a1600155005b82346102715760603660031901126102715760209061064261156161180f565b611569611825565b60443591611578833383611bcb565b611c93565b8234610271575f366003190112610271576020905f80516020612756833981519152549051908152f35b8234610271576020366003190112610271576103da60209235611b5d565b82346102715780600319360112610271576115de61180f565b602435903315611656576001600160a01b0316908115611640576020935061160533611a70565b825f52845280835f205582519081527f8c5be1e5ebec7d5bd14f71427d1e84f3dd0314c0f7b2291e5b200ac8c7c3b925843392a35160018152f35b8251634a1406b160e11b81525f81860152602490fd5b825163e602df0560e01b81525f81860152602490fd5b8234610271575f3660031901126102715780515f7f52c63247e1f47db19d5ce0460030c497f067ca4cebf71ba98eeadabe20bace038054906116ad826119ec565b8085529160209160019182811690811561075c57506001146116da5761061586886106fa82890383611890565b5f90815293507f2ae08a8e29253f69ac5d979a101956ab8f8d9d7ded63fa7a83b16fc47648eab05b83851061171f575050505081016020016106fa82610615866106e9565b8054868601840152938201938101611702565b905034610271576020366003190112610271573563ffffffff60e01b811680910361027157602091637965db0b60e01b8214918215611775575b50519015158152f35b6301ffc9a760e01b1491505f61176c565b8234610271575f366003190112610271576020906103da611969565b602080825282518183018190529093925f5b8281106117d557505060409293505f838284010152601f8019910116010190565b8181018601518482016040015285016117b4565b34610271576020366003190112610271576020611807600435611b26565b604051908152f35b600435906001600160a01b038216820361027157565b602435906001600160a01b038216820361027157565b346102715760203660031901126102715761185461180f565b5060206040515f198152f35b6040810190811067ffffffffffffffff82111761187c57604052565b634e487b7160e01b5f52604160045260245ffd5b90601f8019910116810190811067ffffffffffffffff82111761187c57604052565b92919267ffffffffffffffff821161187c57604051916118dc601f8201601f191660200184611890565b829481845281830111610271578281602093845f960137010152565b9080601f8301121561027157816020611913933591016118b2565b90565b606090600319011261027157600435906001600160a01b03906024358281168103610271579160443590811681036102715790565b34610271576020366003190112610271576020611807600435611b94565b5f80516020612796833981519152546040516370a0823160e01b815230600482015290602090829060249082906001600160a01b03165afa9081156119e1575f916119b2575090565b90506020813d6020116119d9575b816119cd60209383611890565b81010312610271575190565b3d91506119c0565b6040513d5f823e3d90fd5b90600182811c92168015611a1a575b6020831014611a0657565b634e487b7160e01b5f52602260045260245ffd5b91607f16916119fb565b15611a2b57565b60405162461bcd60e51b815260206004820152601f60248201527f5265656e7472616e637947756172643a207265656e7472616e742063616c6c006044820152606490fd5b6001600160a01b03165f9081527f52c63247e1f47db19d5ce0460030c497f067ca4cebf71ba98eeadabe20bace016020526040902090565b6001600160a01b03165f9081525f80516020612736833981519152602052604090205490565b91908201809211611adb57565b634e487b7160e01b5f52601160045260245ffd5b611af7611969565b60018101809111611adb575f80516020612756833981519152549060018201809211611adb5761191392612324565b611b2e611969565b60018101809111611adb575f80516020612756833981519152549060018201809211611adb57611913926125ea565b5f805160206127568339815191525460018101809111611adb57611b7f611969565b9060018201809211611adb5761191392612324565b5f805160206127568339815191525460018101809111611adb57611bb6611969565b9060018201809211611adb57611913926125ea565b611bd481611a70565b9060018060a01b0380841692835f5260205260405f2054935f198510611bfd575b505050505050565b858510611c625750811615611c4a578115611c3257611c1b90611a70565b905f526020520360405f20555f8080808080611bf5565b604051634a1406b160e11b81525f6004820152602490fd5b60405163e602df0560e01b81525f6004820152602490fd5b604051637dc7a0d960e11b81526001600160a01b039190911660048201526024810185905260448101869052606490fd5b916001600160a01b03808416928315611d645716928315611d4c57825f525f805160206127368339815191528060205260405f205491838310611d19575091806020927fddf252ad1be2c89b69c2b068fc378daa952ba7f163c4a11628f55a4df523b3ef94865f5284520360405f2055845f5260405f20818154019055604051908152a3565b60405163391434e360e21b81526001600160a01b0391909116600482015260248101929092525060448101829052606490fd5b60405163ec442f0560e01b81525f6004820152602490fd5b604051634b637e8f60e11b81525f6004820152602490fd5b335f9081527fb7db2dd08fcb62d0c9e08c51941cae53c267786a0b75803fb7960902fc8ef97d602052604090205460ff1615611db457565b60405163e2517d3f60e01b81523360048201525f6024820152604490fd5b335f9081527f75442b0a96088b5456bc4ed01394c96a4feec0f883c9494257d76b96ab1c9b6b60205260409020547f65d7a28e3265b37a6474929f336521b332c1681b933f6cb9f3376673440d862a9060ff1615611e2d5750565b6044906040519063e2517d3f60e01b82523360048301526024820152fd5b805f525f8051602061277683398151915260205260405f20335f5260205260ff60405f20541615611e2d5750565b6001600160a01b03165f8181527f4f509ae5e37249735b95a7e39fadc3e2e3b7028ecb0e418ffaa3b5423723b06a60205260409020547f928286c473ded01ff8bf61a1986f14a0579066072fa8261442d9fea514d93a4c91905f805160206127768339815191529060ff16611f1f57825f5260205260405f20815f5260205260405f20600160ff1982541617905533915f805160206127168339815191525f80a4600190565b5050505f90565b6001600160a01b03165f8181527fb7db2dd08fcb62d0c9e08c51941cae53c267786a0b75803fb7960902fc8ef97d60205260409020545f805160206127768339815191529060ff16611faa575f805260205260405f20815f5260205260405f20600160ff1982541617905533905f5f805160206127168339815191528180a4600190565b50505f90565b6001600160a01b03165f8181527f75442b0a96088b5456bc4ed01394c96a4feec0f883c9494257d76b96ab1c9b6b60205260409020547f65d7a28e3265b37a6474929f336521b332c1681b933f6cb9f3376673440d862a91905f805160206127768339815191529060ff16611f1f57825f5260205260405f20815f5260205260405f20600160ff1982541617905533915f805160206127168339815191525f80a4600190565b6001600160a01b03165f8181527fab71e3f32666744d246edff3f96e4bdafee2e9867098cdd118a979a7464786a860205260409020547f189ab7a9244df0848122154315af71fe140f3db0fe014031783b0946b8c9d2e391905f805160206127768339815191529060ff16611f1f57825f5260205260405f20815f5260205260405f20600160ff1982541617905533915f805160206127168339815191525f80a4600190565b90815f525f805160206127768339815191528060205260405f209160018060a01b031691825f5260205260ff60405f205416155f14611f1f57825f5260205260405f20815f5260205260405f20600160ff1982541617905533915f805160206127168339815191525f80a4600190565b90815f525f805160206127768339815191528060205260405f209160018060a01b031691825f5260205260ff60405f2054165f14611f1f57825f5260205260405f20815f5260205260405f2060ff19815416905533917ff6391f5c32d9c69d2a47ea670b442974b53935d1edc7fd64eb21e047a839171b5f80a4600190565b60ff5f805160206127b6833981519152541661220357565b60405163d93c066560e01b8152600490fd5b90600154918215612296576001600160a01b03165f9081525f8051602061273683398151915260205260409020548061228857505f5b826122568383611ace565b1161226057505050565b6044929161226d91611ace565b906040519163f461319760e01b835260048301526024820152fd5b61229190611b26565b61224b565b505050565b6040516323b872dd60e01b5f9081526001600160a01b03938416600452938316602452604494909452909160209060648180855af160015f5114811615612305575b836040525f606052156122ef57505050565b635274afe760e01b835216600482015260249150fd5b600181151661231b57813b15153d1516166122dd565b833d5f823e3d90fd5b916123308183856125ea565b918115612344576119139309151590611ace565b634e487b7160e01b5f52601260045260245ffd5b60ff7ff0c57e16840df040f15088dc2f81fe391c3923bec73e23a9662efc9c229c6a005460401c161561238757565b604051631afcd79f60e31b8152600490fd5b909260018060a01b0380946123c185835f80516020612796833981519152541686309161229b565b16938415611d4c577fdcbc1c05240f31ff3ad067ef1ee35ce4997762752e3a095284754544f4c709d7926040925f80516020612756833981519152612407828254611ace565b9055865f525f80516020612736833981519152602052835f20818154019055865f7fddf252ad1be2c89b69c2b068fc378daa952ba7f163c4a11628f55a4df523b3ef60208751858152a3835195865260208601521692a3565b6001600160a01b0380841695909485831694939092828887036125d9575b50508615611d6457865f525f805160206127368339815191529384602052604094855f2054918483106125a75750908391895f5260205203845f20555f805160206127568339815191528281540390555f877fddf252ad1be2c89b69c2b068fc378daa952ba7f163c4a11628f55a4df523b3ef60208751868152a3855f8051602061279683398151915254169584519163a9059cbb60e01b5f521695866004528360245260205f60448180855af160015f5114811615612588575b82865215612573575050825191825260208201527ffbde797d201c681b91056529119e0b02407c7bb96a4a2c75c01fc9667232c8db9190a4565b635274afe760e01b8252600482015260249150fd5b600181151661259e57813b15153d151616612539565b823d5f823e3d90fd5b865163391434e360e21b81526001600160a01b0391909116600482015260248101929092525060448101839052606490fd5b6125e39186611bcb565b5f8261247e565b90915f198383099280830292838086109503948086039514612676578483111561265e5790829109815f038216809204600280826003021880830282030280830282030280830282030280830282030280830282030280920290030293600183805f03040190848311900302920304170290565b82634e487b715f52156003026011186020526024601cfd5b505080925015612344570490565b905f8091602081519101845af48080612702575b156126b85750506040513d81523d5f602083013e60203d82010160405290565b156126df57604051639996b31560e01b81526001600160a01b039091166004820152602490fd5b3d156126f0576040513d5f823e3d90fd5b60405163d6bda27560e01b8152600490fd5b503d1515806126985750813b151561269856fe2f8788117e7eff1d82e926ec794901d17c78024a50270940304540a733656f0d52c63247e1f47db19d5ce0460030c497f067ca4cebf71ba98eeadabe20bace0052c63247e1f47db19d5ce0460030c497f067ca4cebf71ba98eeadabe20bace0202dd7bc7dec4dceedda775e58dd541e08a116c6c53815c0bd028192f7b6268000773e532dfede91f04b12a73d3d2acd361424f41f76b4fb79f090161e36b4e00cd5ed15c6e187e77e9aee88184c21f4f2182ab5827cb3b7e07fbedcd63f03300a264697066735822122026512cf49d28a9c70583e6ec11b2e70376f749daa2addb38091b5d70d76d0c5764736f6c63430008180033","linkReferences":{}},"methodIdentifiers":{"DEFAULT_ADMIN_ROLE()":"a217fddf","PAUSER_ROLE()":"e63ab1e9","STRATEGY_ROLE()":"580b7c2e","UPGRADER_ROLE()":"f72c0d8b","UPGRADE_INTERFACE_VERSION()":"ad3cb1cc","allowance(address,address)":"dd62ed3e","approve(address,uint256)":"095ea7b3","asset()":"38d52e0f","balanceOf(address)":"70a08231","convertToAssets(uint256)":"07a2d13a","convertToShares(uint256)":"c6e6f592","decimals()":"313ce567","deposit(uint256,address)":"6e553f65","getRoleAdmin(bytes32)":"248a9ca3","grantRole(bytes32,address)":"2f2ff15d","hasRole(bytes32,address)":"91d14854","initialize(address,string,string,uint256,address,address)":"47b70db0","maxDeposit(address)":"402d267d","maxDepositPerUser()":"82e5310c","maxMint(address)":"c63d75b6","maxRedeem(address)":"d905777e","maxWithdraw(address)":"ce96cb77","mint(uint256,address)":"94bf804d","name()":"06fdde03","oracle()":"7dc0d1d0","pause()":"8456cb59","paused()":"5c975abb","previewDeposit(uint256)":"ef8b30f7","previewMint(uint256)":"b3d7f6b9","previewRedeem(uint256)":"4cdad506","previewWithdraw(uint256)":"0a28a477","proxiableUUID()":"52d1902d","redeem(uint256,address,address)":"ba087652","renounceRole(bytes32,address)":"36568abe","reportYield(uint256)":"e203ad06","revokeRole(bytes32,address)":"d547741f","setMaxDepositPerUser(uint256)":"23ee76e4","setOracle(address)":"7adbf973","setStrategy(address)":"33a100ca","strategy()":"a8c62e76","supportsInterface(bytes4)":"01ffc9a7","symbol()":"95d89b41","totalAssets()":"01e1d114","totalSupply()":"18160ddd","transfer(address,uint256)":"a9059cbb","transferFrom(address,address,uint256)":"23b872dd","unpause()":"3f4ba83a","upgradeToAndCall(address,bytes)":"4f1ef286","withdraw(uint256,address,address)":"b460af94"},"id":117}