{"abi":[{"type":"constructor","inputs":[{"name":"initialPrice","type":"int256","internalType":"int256"},{"name":"dec_","type":"uint8","internalType":"uint8"}],"stateMutability":"nonpayable"},{"type":"function","name":"decimals","inputs":[],"outputs":[{"name":"","type":"uint8","internalType":"uint8"}],"stateMutability":"view"},{"type":"function","name":"description","inputs":[],"outputs":[{"name":"","type":"string","internalType":"string"}],"stateMutability":"pure"},{"type":"function","name":"getRoundData","inputs":[{"name":"_rid","type":"uint80","internalType":"uint80"}],"outputs":[{"name":"roundId","type":"uint80","internalType":"uint80"},{"name":"answer","type":"int256","internalType":"int256"},{"name":"startedAt","type":"uint256","internalType":"uint256"},{"name":"updatedAt","type":"uint256","internalType":"uint256"},{"name":"answeredInRound","type":"uint80","internalType":"uint80"}],"stateMutability":"view"},{"type":"function","name":"latestRoundData","inputs":[],"outputs":[{"name":"roundId","type":"uint80","internalType":"uint80"},{"name":"answer","type":"int256","internalType":"int256"},{"name":"startedAt","type":"uint256","internalType":"uint256"},{"name":"updatedAt","type":"uint256","internalType":"uint256"},{"name":"answeredInRound","type":"uint80","internalType":"uint80"}],"stateMutability":"view"},{"type":"function","name":"setAnswer","inputs":[{"name":"answer","type":"int256","internalType":"int256"}],"outputs":[],"stateMutability":"nonpayable"},{"type":"function","name":"setInvalidRound","inputs":[{"name":"invalid","type":"bool","internalType":"bool"}],"outputs":[],"stateMutability":"nonpayable"},{"type":"function","name":"setPrice","inputs":[{"name":"price","type":"int256","internalType":"int256"}],"outputs":[],"stateMutability":"nonpayable"},{"type":"function","name":"setUpdatedAt","inputs":[{"name":"ts","type":"uint256","internalType":"uint256"}],"outputs":[],"stateMutability":"nonpayable"},{"type":"function","name":"version","inputs":[],"outputs":[{"name":"","type":"uint256","internalType":"uint256"}],"stateMutability":"pure"}],"bytecode":{"object":"0x60a03461008457601f61041638819003918201601f19168301916001600160401b03831184841017610088578084926040948552833981010312610084576020815191015160ff81168103610084576080525f55426001908155600280546001600160581b0319169091179055604051610379908161009d8239608051816102ad0152f35b5f80fd5b634e487b7160e01b5f52604160045260245ffdfe608060409080825260049081361015610016575f80fd5b5f3560e01c9081631ecc7d88146102d1578163313ce567146102965750806354fd4d501461027b5780637284e416146101d357806399213cd8146101355780639a6fc8f514610176578063b93491fb1461013a578063f7a30806146101355763feaf968c14610083575f80fd5b34610131575f366003190112610131576002549060ff8260501c165f1461011b576001600160501b038281165f19019190821161010857506001600160501b039261010491905b5f5460015491516001600160501b0395909616851686526020860152604085018190526060850152919091166080830152819060a0820190565b0390f35b601190634e487b7160e01b5f525260245ffd5b506101046001600160501b0392838316906100ca565b5f80fd5b6102e9565b50346101315760203660031901126101315735801515809103610131576002805460ff60501b191660509290921b60ff60501b16919091179055005b503461013157602036600319011261013157356001600160501b0381168103610131575f5460015492516001600160501b03929092168083526020830191909152604082018390526060820192909252608081019190915260a090f35b509034610131575f366003190112610131578051918183019083821067ffffffffffffffff83111761026857508152600e825260206d26b7b1b5a0b3b3b932b3b0ba37b960911b60208401528151928391602083528151918260208501525f5b8381106102525750505f83830185015250601f01601f19168101030190f35b8181018301518782018701528694508201610233565b604190634e487b7160e01b5f525260245ffd5b8234610131575f366003190112610131576020905160018152f35b34610131575f3660031901126101315760209060ff7f0000000000000000000000000000000000000000000000000000000000000000168152f35b82346101315760203660031901126101315735600155005b34610131576020366003190112610131576004355f55426001556002546001600160501b0380821681811461032f5760010116906001600160501b031916176002555f80f35b634e487b7160e01b5f52601160045260245ffdfea2646970667358221220664f12e821099db311912e0679f3ea8d4551edb6949225743947e2045dccf2a364736f6c63430008180033","linkReferences":{}},"methodIdentifiers":{"decimals()":"313ce567","description()":"7284e416","getRoundData(uint80)":"9a6fc8f5","latestRoundData()":"feaf968c","setAnswer(int256)":"99213cd8","setInvalidRound(bool)":"b93491fb","setPrice(int256)":"f7a30806","setUpdatedAt(uint256)":"1ecc7d88","version()":"54fd4d50"},"id":116}